:020000040800F2
:1000000000100020051000085110000851100008D1
:1000100000000000000000000000000000000000E0
:100020000000000000000000000000005110000867
:1000300000000000000000005110000851100008EE
:10004000511000085110000851100008511000080C
:100050005110000851100008511000084517000801
:1000600051100008511000085110000851100008EC
:1000700051100008511000085110000851100008DC
:100080005110000851100008000000005110000835
:1000900051100008511000085110000851100008BC
:1000A000511000085110000851100008A91800084C
:1000B000511000080000000051100008000000006E
:1000C0005FF808F180B586B000AF8023DB01181C13
:1000D000012100F0FDFA03F087FA01F0B1FC184AA3
:1000E000184B101C191C012202F0AAF83B1CE1223B
:1000F00052021A603B1C00225A603B1C00229A608C
:100100003B1C0022DA603B1C00225A613B1C0C2283
:100110001A610B4A3B1C101C191C01F0A3FF084B71
:10012000181C012102F04EF8074B181C0021202258
:1001300003F00CFA054B00221A70BD4606B080BDD4
:10014000003801400501050080000020A0000020CB
:1001500080B582B000AF021CFB1D1A70C046094B6F
:10016000181C802102F0AEF8031C002BF7D0FB1DF9
:100170001B789BB2034A101C191C02F041F8BD46C3
:1001800002B080BD0038014080B582B000AF786019
:1001900012E0C0460C4B181C802102F093F8031C9F
:1001A000002BF7D07B681B78074A101C191C02F043
:1001B00027F87B6801337B607B681B78002BE8D1D4
:1001C000BD4602B080BDC0460038014080B500AFDA
:1001D000044A054B101C191C02F092F8031C181C51
:1001E000BD4680BD003801400501050080B500AF67
:1001F000044B181C02F016F8031CDBB2181CBD4699
:1002000080BDC0460038014080B586B000AF0023F5
:100210007B6180239B02181C012100F03BFA8023A4
:10022000DB02181C012100F035FA03F0ADF903F0F0
:1002300005FA03F063FAFFF745FF02F0DBF801F07F
:100240007FFB00F03BFF02F025FD00237B6102E015
:100250007B6901337B617A69884B9A42F8D901F056
:1002600003FE002001F02AFD01F00AFE00F0C6FFA7
:10027000031C002B45D0824B181CFFF785FF814BD8
:10028000181CFFF781FF00237B6133E0381C13301B
:10029000391C12313A1C11327B6900F0BFFF3B1C44
:1002A00013331B78002B02D0012B0ED01BE0002053
:1002B00002F0ECF93B1C12331A783B1C11331B780B
:1002C000101C191C02F0CCF811E0012002F0DEF93C
:1002D0003B1C12331A783B1C11331B78101C191C61
:1002E00002F0BEF803E0684B181CFFF74DFF7B6976
:1002F00001337B617B69C32BC8D9644B181CFFF7A2
:1003000043FF00237B61B2E0614B7A699200D358CE
:10031000181C00F05DFF031C002B00D1A4E05D4B16
:10032000181CFFF731FF7B690133181C03F02EF80E
:10033000031C181CFFF728FF574B181CFFF724FF5E
:10034000534B7A699200D358181C00F0FBFF031C32
:10035000DAB23B1D1A703B1D1B78012B0FD057DC06
:10036000002B56D14A4B7A699200D3580133181C9E
:1003700000F0E8FF031CDAB23B1D5A7049E0444B21
:100380007A699200D3580133181C00F0DBFF031C7C
:10039000DAB23B1D9A703E4B7A699200D358023311
:1003A000181C00F0CFFF031CDAB23B1DDA70384B8B
:1003B0007A699200D3580333181C00F0C3FF031C62
:1003C000DAB23B1D1A71324B7A699200D35804336A
:1003D000181C00F0B7FF031CDAB23B1D5A712C4BFE
:1003E0007A699200D3580533181C00F0ABFF031C48
:1003F000DAB23B1DDA71264B7A699200D358063384
:10040000181C00F09FFF031CDAB23B1D9A7100E03C
:10041000C0461F4B7A699200D3580833181C00F06D
:1004200091FF031CDAB23B1D5A72194B7A69920094
:10043000D3580933181C00F085FF031CDAB23B1DAA
:100440001A72134B7A699200D3580A33181C00F0C1
:1004500079FF031CDAB23B1D9A727B69DBB23A1D4D
:10046000101C191C02F0D0FC7B6901337B617B6995
:10047000062B00D848E702F0E9FCFCE73F420F00FA
:10048000AC3A0008D43A0008F83A0008403B0008AB
:10049000903A0008483B0008783B000880B582B0DD
:1004A00000AF7860074B074A126B10218A431A632A
:1004B000044B044A116B7A680A431A63BD4602B0C2
:1004C00080BDC0460010024080B588B000AF7860A3
:1004D0000023FB610023BB6100237B6100233B61A0
:1004E0000023FB60654B5A680C231340FB61FB69DA
:1004F000042B07D0082B09D0002B30D17B68604A31
:100500001A6030E07B685E4A1A602CE05B4B5A68E8
:10051000F0239B031340BB61584B5A6880235B0256
:1005200013407B61BB699B0C0233BB617B69002B71
:1005300005D1BB69534A5A437B681A6013E04F4B9D
:10054000DA6A0F23134001333B614D48396903F0E8
:1005500049F9031CBA695A437B681A6003E07B6857
:10056000474A1A60C046454B5A68F0231340FB6166
:10057000FB691B09FB61444AFB69D3181B78DBB29A
:10058000FB607B681A68FB68DA407B685A603B4B0B
:100590005A68E023DB001340FB61FB691B0AFB6127
:1005A000394AFB69D3181B78DBB2FB607B685A6859
:1005B000FB68DA407B689A60304B1A6B80235B00E3
:1005C000134003D17B68314ADA6010E02B4B5A6844
:1005D0008023DB01134005D17B689B685A087B6848
:1005E000DA6004E07B689B689A087B68DA60234BDA
:1005F0001A6B4023134003D17B68254A1A6103E03C
:100600007B68802212021A611C4B1A6B1023134064
:1006100003D17B681A4A5A6103E07B681A687B68D9
:100620005A61164B1A6B0323134004D17B689A68F6
:100630007B689A611EE0114B1A6B03231340012B58
:1006400004D17B681A687B689A6113E00B4B1A6BC4
:1006500003231340022B04D17B68802212029A618B
:1006600008E0064B1A6B03231340032B02D17B686F
:10067000034A9A61BD4608B080BDC04600100240E2
:1006800000127A0000093D0000000020809FD50084
:100690001280000080B582B000AF78600A1CFB1C9D
:1006A0001A70FB1C1B78002B06D0084B074A5169B7
:1006B0007A680A435A6106E0044B044A5269796831
:1006C000C9430A405A61BD4602B080BD00100240D5
:1006D00080B582B000AF78600A1CFB1C1A70FB1C4E
:1006E0001B78002B06D0084B074A91697A680A43A9
:1006F0009A6106E0044B044A92697968C9430A404A
:100700009A61BD4602B080BD0010024080B582B043
:1007100000AF78600A1CFB1C1A70FB1C1B78002BB6
:1007200006D0084B074AD1697A680A43DA6106E0C5
:10073000044B044AD2697968C9430A40DA61BD466C
:1007400002B080BD0010024080B500AFBFF34F8FF4
:10075000024B034ADA60BFF34F8FFEE700ED00E083
:100760000400FA0580B594B000AF78600A1CFB1C49
:100770001A707B681B78623B182B01D900F0DEFBF6
:100780009A00DA4BD3181B689F460023FB62FB1CC0
:100790001B78022B35D97B6803331B78782B07D164
:1007A0007B680433181C02F099FE031CFB6406E00E
:1007B0007B680233181C02F073FE031CFB64FB6CA5
:1007C000DBB2181C01F0C4FE031CFB62FB6A181CA0
:1007D000022102F025FE031CBB62C54B181CFFF76B
:1007E000D3FCBB6A181CFFF7CFFCC24B181CFFF7E9
:1007F000CBFC01F05BFF031C181CFFF7C5FC00F0ED
:10080000DDFBBD4B181CFFF7BFFC00F0D7FBFB1C4A
:100810001B78022B40D97B6803331B78782B07D1D8
:100820007B680433181C02F059FE031CBB6406E00D
:100830007B680233181C02F033FE031CBB64AF4B11
:100840001B78181C022102F0EBFD031C7B62AB4BF2
:100850001A78BB6CDBB2101C191C01F001FEA84B0E
:10086000181CFFF791FC7B680233181CFFF78CFC07
:10087000A44B181CFFF788FC7B6A181CFFF784FC4C
:100880009C4B181CFFF780FC01F010FF031C181C88
:10089000FFF77AFC00F092FB974B181CFFF774FCF3
:1008A0008CE3FB1C1B78022B2BD97B6803331B7852
:1008B000782B07D17B680433181C02F00FFE031C51
:1008C0007B6406E07B680233181C02F0E9FD031C20
:1008D0007B647B6CDAB2894B1A708B4B181CFFF768
:1008E00053FC7B680233181CFFF74EFC814B181C2D
:1008F000FFF74AFC01F0DAFE031C181CFFF744FC6A
:100900005CE3824B181CFFF73FFC57E3FB1C1B7892
:10091000022B1DD97B680233181C02F0C1FD021C9A
:100920003B1C23331A703B1C23331B78181C01F02B
:10093000ADFE774B181CFFF727FC01F0B7FE031C38
:10094000181CFFF721FC734B181CFFF71DFC35E347
:10095000714B181CFFF718FC30E30023FB61FB1CF4
:100960001B78022B29D97B6803331B78782B07D19E
:100970007B680433181C02F0B1FD031C3B6406E0E5
:100980007B680233181C02F08BFD031C3B643B6C3C
:10099000181C00F0D3FB031CFB61FB69181C082129
:1009A00002F03EFD031CBB61514B181CFFF7ECFB32
:1009B000BB69181CFFF7E8FB00E3584B181CFFF756
:1009C000E3FBFBE2FB1C1B78022B37D97B6803336C
:1009D0001B78782B07D17B680433181C02F07EFD4E
:1009E000031CFB6306E07B680233181C02F058FD11
:1009F000031CFB634A4B1B68181C082102F010FD06
:100A0000031C7B61464B1A68FB6B101C191C00F021
:100A1000AFFB031C002B08D1394B181CFFF7B4FBAC
:100A20007B680233181CFFF7AFFB3E4B181CFFF727
:100A3000ABFB7B69181CFFF7A7FBBFE23A4B181C06
:100A4000FFF7A2FBBAE2FB1C1B78022B24D97B68C0
:100A500003331B78782B07D17B680433181C02F012
:100A60003DFD031CBB6306E07B680233181C02F0EB
:100A700017FD031CBB632A4BBA6B1A602B4B181C67
:100A8000FFF782FB7B680233181CFFF77DFB284BC6
:100A9000181CFFF779FB91E2264B181CFFF774FB3B
:100AA0008CE2FB1C1B78022B19D97B6802331B7864
:100AB000592B19D17B6803331B78452B14D17B68E4
:100AC00004331B78532B0FD1012000F0FBFA031CD9
:100AD000002B09D1184B181CFFF756FB6EE2174B81
:100AE000181CFFF751FB69E268E2C046BC460008EB
:100AF000343C00083C3C0008483C0008440000200E
:100B0000583C0008643C0008743C0008883C00081D
:100B1000983C0008A03C0008AC3C0008F43C0008ED
:100B200048000020103D0008203D0008383D000826
:100B30004C3D0008583D0008743D0008A03D0008E9
:100B4000FB1C1B78022B19D97B6802331B78592BAD
:100B500019D17B6803331B78452B14D17B68043390
:100B60001B78532B0FD1042000F0ACFA031C002B90
:100B700009D1C74B181CFFF707FB1FE2C54B181C18
:100B8000FFF702FB1AE219E2FB1C1B78022B1DD9AE
:100B90007B6802331B78592B18D17B6803331B7891
:100BA000452B13D17B6804331B78532B0ED102F0F5
:100BB00023F9031C002B04D1B74B181CFFF7E4FAF0
:100BC00009E0B64B181CFFF7DFFA04E0B44B181C21
:100BD000FFF7DAFAF2E1F1E1FB1C1B78022B2ED9C8
:100BE0007B6803331B78782B09D17B680433181C8E
:100BF00002F074FC021C3B1C37331A7008E07B685F
:100C00000233181C02F04CFC021C3B1C37331A70D8
:100C10003B1C37331B78181C00F054FA031C002BC4
:100C200012D1A04B181CFFF7AFFA7B680233181CD7
:100C3000FFF7AAFA9C4B181CFFF7A6FABEE19B4BE4
:100C4000181CFFF7A1FAB9E1B8E101F0CFF901F002
:100C500001FA031C3B613B1C343300221A8026E05E
:100C60003B1C34331B883A69D3181B78181C0221AB
:100C700002F0D6FB031CFB60FB68181CFFF784FA2C
:100C80008B4B181CFFF780FA3B1C34331B88013355
:100C90001A1C0F23134003D1864B181CFFF774FA5C
:100CA0003B1C34331A883B1C343301321A803B1C02
:100CB00034331B887F2BD3D980E1FFF745FDFB1C24
:100CC0001B78062B40D97B68063300221A707B689C
:100CD00003331B78782B21D17B680433181C02F076
:100CE000FDFB021C3B1C33331A707B6808331B78F6
:100CF000782B09D17B680933181C02F0EFFB021C2A
:100D00003B1C32331A700DE07B680733181C02F06D
:100D1000C7FB021C3B1C32331A7003E0664B181CE5
:100D2000FFF732FA3B1C33331A783B1C32331B7803
:100D3000101C191C00F01EFB031C002B09D15F4B7B
:100D4000181CFFF721FA39E15B4B181CFFF71CFA5E
:100D500034E133E15A4B181CFFF716FA594B181CB3
:100D6000FFF712FA584B181CFFF70EFA574B181CD6
:100D7000FFF70AFA564B181CFFF706FA554B181CDA
:100D8000FFF702FA4B4B181CFFF7FEF9524B181CE9
:100D9000FFF7FAF9514B181CFFF7F6F9454B181CF1
:100DA000FFF7F2F94E4B181CFFF7EEF94D4B181CEC
:100DB000FFF7EAF94C4B181CFFF7E6F94B4B181CF0
:100DC000FFF7E2F94A4B181CFFF7DEF9494B181CF4
:100DD000FFF7DAF9484B181CFFF7D6F9354B181C0A
:100DE000FFF7D2F9454B181CFFF7CEF9314B181C11
:100DF000FFF7CAF9424B181CFFF7C6F9414B181C04
:100E0000FFF7C2F92B4B181CFFF7BEF9294B181C32
:100E1000FFF7BAF93C4B181CFFF7B6F93B4B181C0F
:100E2000FFF7B2F9234B181CFFF7AEF9384B181C2B
:100E3000FFF7AAF9374B181CFFF7A6F9364B181C19
:100E4000FFF7A2F9354B181CFFF79EF9344B181C1D
:100E5000FFF79AF9334B181CFFF796F9324B181C21
:100E6000FFF792F9314B181CFFF78EF9304B181C25
:100E7000FFF78AF92F4B181CFFF786F90D4B181C4A
:100E8000FFF782F92C4B181CFFF77EF996E0C0465D
:100E9000B03D0008DC3D0008EC3D00081C3E0008A9
:100EA000543E0008643E00086C3E0008803E000886
:100EB000AC3E0008B03E0008B43E0008E03E00082A
:100EC000E83E00080C3F0008183F0008903F00086B
:100ED000DC3F0008284000087C40000894400008DF
:100EE0001C4100083041000858410008A841000892
:100EF000D0410008F841000858420008AC42000800
:100F0000104300081C4300084043000884430008C5
:100F1000B0430008BC430008C8430008D44300089D
:100F2000E0430008EC430008F843000808440008C8
:100F3000184400082444000834440008214B181CBD
:100F4000FFF722F9204B181CFFF71EF91F4B181C46
:100F5000FFF71AF91E4B181CFFF716F91D4B181C4A
:100F6000FFF712F91C4B181CFFF70EF91B4B181C4E
:100F7000FFF70AF91A4B181CFFF706F9194B181C52
:100F8000FFF702F9184B181CFFF7FEF8174B181C57
:100F9000FFF7FAF8164B181CFFF7F6F8154B181C5C
:100FA000FFF7F2F8144B181CFFF7EEF8134B181C60
:100FB000FFF7EAF8124B181CFFF7E6F8BD4614B02D
:100FC00080BDC0467444000880440008984400086E
:100FD000B0440008E4440008004500081845000833
:100FE0003045000868450008A8450008E8450008A5
:100FF000204600084046000854460008684600089D
:10100000984600080C488546002103E00B4B5B58CE
:10101000435004310A480B4B42189A42F6D30A4A0D
:1010200002E0002313600432084B9A42F9D300F027
:10103000D3FAFFF7E9F8FEE700100020384C00086B
:101040000000002044000020440000201005002083
:10105000FEE7000080B584B000AF021CFB1D1A70D3
:101060000023FB60FB1D1B78022B0BD002DC012B45
:1010700005D010E0032B08D0042B09D00BE00A4B5D
:10108000FB600CE0094BFB6009E0094BFB6006E0EC
:10109000084BFB6003E0084B181CFFF775F8FB6872
:1010A000181CBD4604B080BD007000080074000824
:1010B00000780008007C00083C47000880B500AFBD
:1010C000BD4680BD80B584B000AF021CFB1D1A7008
:1010D0003B1C0F3300221A7001F03EFF342001F058
:1010E000F3FFFB1D1B78181CFFF7B4FF031C002B3C
:1010F00014D0FB1D1B78181CFFF7ACFF031C181C39
:1011000001F04CFF031C042B0CD00B4B181CFFF7F9
:101110003BF83B1C0F3301221A7003E03B1C0F33DA
:1011200001221A7001F02EFF3B1C0F331B78181C94
:10113000BD4604B080BDC0464C47000880B582B0B3
:1011400000AF78607A68074B9A4201D9064B04E0F9
:101150007B68064A9B189B001B68181CBD4602B0A2
:1011600080BDC046FF030000EFBEADDE001C0002E4
:1011700080B584B000AF786039603B1C0F3300222B
:101180001A7001F0E9FE342001F09EFF7B680E4AE0
:101190009B189A003B68101C191C01F03DFF031CB2
:1011A000042B07D0094B181CFEF7EEFF3B1C0F3336
:1011B00001221A7001F0E6FE3B1C0F331B78181C4D
:1011C000BD4604B080BDC046001C00026447000854
:1011D00090B583B000AF78607B689C000420FFF777
:1011E00039FF031CE3181B68013301D0012300E021
:1011F0000023181CBD4603B090BDC04680B500AFAB
:101200000120FFF727FF031C1B68013301D00123D6
:1012100000E00023181CBD4680BDC04690B587B0D5
:1012200000AFF860B9607A603B603B68FF2B00D983
:1012300016E03B689C000120FFF70CFF031CE3183D
:101240001B687B617B691B0EDAB2FB681A707B69D5
:101250001B0CDAB2BB681A707B69DAB27B681A7051
:10126000BD4607B090BDC04680B584B000AF786081
:1012700039600023FB603B1C0B3300221A7001F025
:101280006BFE342001F020FF0120FFF7E3FE031C7A
:10129000FB60FB68181C01F081FE031C042B08D0C6
:1012A000224B181CFEF770FF3B1C0B3301221A70F7
:1012B0001FE01EE03B681E4A9B189B007A68D3180B
:1012C0001B68FA68101C191C01F0A6FE031C042BF5
:1012D00006D1FB680433FB603B68013B3B6008E0E0
:1012E000144B181CFEF750FF3B1C0B3301221A70E5
:1012F00006E0FA68104B9A4202D83B68002BD9D11D
:10130000FA680E4B9A4207D10D4B181CFEF73CFFB2
:101310003B1C0B3301221A7001F034FE3B1C0B33D3
:101320001B78181CBD4604B080BDC0464C47000861
:10133000FFFFFF3F64470008FF7F000800800008B0
:101340007447000890B583B000AF78607B68FF2BCE
:1013500001D9074B07E07B689C000420FFF77AFE69
:10136000031CE3181B68181CBD4603B090BDC046A3
:10137000EFBEADDE90B585B000AF786039603B1C44
:101380000F3300221A7001F0E7FD342001F09CFEBB
:101390007B689C000420FFF75DFE031CE2183B689D
:1013A000101C191C01F038FE031C042B07D0084B3D
:1013B000181CFEF7E9FE3B1C0F3301221A7001F0E6
:1013C000E1FD3B1C0F331B78181CBD4605B090BDDA
:1013D0006447000880B584B000AF786039600023AE
:1013E000FB607B681B680122191C91430A1C7B6807
:1013F0001A607B681B68FB60FA68274B1340FB6030
:101400003B685A683B689B681B021343FA681343A6
:10141000FB607B68FA681A603B681A681F4B1A40C9
:101420007B681A617B681B6801221A437B681A601B
:101430000023FB607B68FA689A607B68FA68DA6070
:101440003B689A693B681B691343FB607B68FA68D9
:101450009A607B689B68802212021A437B689A60BC
:101460003B68DB68FB607B681A68FB681A437B6833
:101470001A607B685B68FB60FA68094B1340FB608D
:101480003B685B69FA681343FB607B68FA685A60E3
:10149000BD4604B080BDC046FFE0CF00FFFFFFF0B7
:1014A000FF7FFF0780B582B000AF78600A1CFB1C8D
:1014B0001A70FB1C1B78002B06D07B681B6801226E
:1014C0001A437B681A6007E07B681B680122191CBD
:1014D00091430A1C7B681A60BD4602B080BDC046BD
:1014E00080B586B000AFF8607B603B1C0A33198082
:1014F0003B1C09331A7000237B61FB685B687B61CE
:101500007A690E4B13407B613B1C0A331B889B0599
:101510009A0D3B1C09331B781904FF231B040B4055
:101520001A437B681A433B6A13437A6913437B610E
:10153000FB687A695A60BD4606B080BD009800FC21
:1015400080B582B000AF78600A1CFB1C1A70FB1CCF
:101550001A787B689A62BD4602B080BD80B582B0C1
:1015600000AF78607B685B6ADBB2181CBD4602B0D6
:1015700080BDC04680B584B000AF7860396000237C
:10158000BB603B1C0F3300221A707B689B69BB60F9
:10159000BB683A681340BB60BB68002B04D03B1C9F
:1015A0000F3301221A7003E03B1C0F3300221A7024
:1015B0003B1C0F331B78181CBD4604B080BDC046D1
:1015C00080B582B000AF786039607B683A68DA61D4
:1015D000BD4602B080BDC04680B500AF1B4B1B4A64
:1015E000126801210A431A60184B184A5168184AB8
:1015F0000A405A60154B154A1168164A0A401A608B
:10160000124B124A1168144A0A401A600F4B0F4AD3
:101610005168124A0A405A600C4B0C4AD26A0F2198
:101620008A43DA62094B094A116B0D4A0A401A6370
:10163000064B064A526B01218A435A63034B002230
:101640009A6000F00FF8BD4680BDC0460010024011
:101650000CB8FF08FFFFF6FEFFFFFBFFFFFFC0FF18
:10166000ACFEFFFF80B582B000AF00237B6000239B
:101670003B60314B304A1268802149020A431A60AC
:101680002D4B1A6880239B0213403B607B6801331B
:101690007B603B68002B04D17A68A023DB019A426F
:1016A000EED1254B1A6880239B02134002D0012300
:1016B0003B6001E000233B603B68012B38D11F4BAE
:1016C00011221A601C4B1C4A52685A601A4B1A4A63
:1016D00052685A60184B184A5168194A0A405A60B1
:1016E000154B154A5268882149030A435A60124B28
:1016F000114A1268802149040A431A60C0460E4B01
:101700001A6880239B041340F9D00B4B0A4A526895
:1017100003218A435A60084B074A526802210A4350
:101720005A60C046044B5A680C231340082BF9D169
:10173000BD4602B080BDC0460010024000200240FD
:10174000FFFFC0FF90B585B000AF202001F08EFDF7
:10175000031C002B00D171E0494B181CFEF714FD4F
:10176000012000F093FF0023FB6002E0FB680133DF
:10177000FB60FA68434B9A42F8D93C1C0B34962024
:1017800000F0E6FE031C23703B1C0B331B78181C77
:10179000022101F045FE031C7B603B4B181CFEF749
:1017A000F3FC7B68181CFEF7EFFC384B181CFEF7A7
:1017B000EBFC3B1C0B331B785BB2002B13DA422093
:1017C00000F0C6FE031C1A1C4023134006D0304B09
:1017D000181CFEF7D9FC00F053FB24E02D4B181C1D
:1017E000FEF7D2FC1FE0C82000F0B2FE031C1A1C5A
:1017F000F02313400DD0C82000F0AAFE031C1B09E3
:10180000DBB21A1C244B9200D358181CFEF7BCFC08
:1018100009E03B1C0B331A780423134003D01F4B01
:10182000181CFEF7B1FC3B1C0B331B789620191CCF
:1018300000F016FE202001F039FD1EE080235B0041
:10184000181C01F013FD031C002B09D0144B181CAD
:10185000FEF79AFC80235B00181C01F027FD0CE0CA
:10186000102001F003FD031C002B06D00D4B181CAB
:10187000FEF78AFC102001F019FDBD4605B090BDB1
:10188000504800080F270000684800087848000802
:101890007C480008A048000810000020B448000858
:1018A000C8480008E048000898B500AFFEF78EFC75
:1018B000031C002B3DD0204B1B781C1CFEF796FC14
:1018C000031C1A1C1D4B1A551B4B1B781B4AD35C5F
:1018D000181CFEF73DFC184B1B78184AD35C0D2BE7
:1018E00021D1154B1B78154A0021D1540A20FEF74F
:1018F0002FFC114B1B78114A101C191CFEF732FFEC
:101900000D20FEF725FC0A20FEF722FC0A20FEF738
:101910001FFC0A4B181C0021202201F017FE064B69
:1019200000221A7005E0044B1B780133DAB2024B37
:101930001A70BD4698BDC046A0000020800000205F
:1019400080B586B000AF01200121FEF7C1FE3B1D2E
:1019500020221A603B1D00221A713B1D00229A7141
:101960003B1D0122DA713B1D00225A719023DA05DA
:101970003B1D101C191C00F077F83B1D8022520003
:101980001A603B1D00221A713B1D00229A713B1DFB
:101990000122DA713B1D00225A719023DA053B1DAA
:1019A000101C191C00F060F83B1D10221A603B1D32
:1019B00000221A713B1D00229A713B1D0122DA712F
:1019C0003B1D00225A719023DA053B1D101C191C87
:1019D00000F04AF80020052101F074FC00200821E5
:1019E00001F070FC0020042101F06CFC3B1C103362
:1019F000982252001A603B1C103300221A713B1CC3
:101A000010330C225A713B1C103301229A713B1C7B
:101A10001033181C01F0BEFB3B1C0C3307221A705C
:101A20003B1C0C3300225A703B1C0C3301229A7071
:101A30003B1C0C33181C01F07FFEBD4606B080BD78
:101A400080B582B000AF3B1D1B221A703B1D0022E7
:101A50005A703B1D01229A703B1D181C01F06CFE50
:101A6000BD4602B080BDC04680B586B000AF78608C
:101A7000396000237B6100233B610023FB6000236E
:101A80007B6185E07B690122101C9840031C3B614F
:101A90003B681B683A691340FB60FA683B699A42ED
:101AA00073D13B681B79012B03D03B681B79022B58
:101AB00038D17B689B687A6952000321081C9040EA
:101AC000021CD2431A407B689A607B689A683B6824
:101AD0005B79191C7B695B00081C9840031C1A4346
:101AE0007B689A607B689B889BB27A6992B201217D
:101AF000081C9040021C92B2D24392B213409AB298
:101B00007B689A807B689B889AB23B689B79191C9A
:101B10007B699BB2081C9840031C9BB213439AB28A
:101B20007B689A807B681B687A6952000321081CD5
:101B30009040021CD2431A407B681A607B681A6886
:101B40003B681B79191C7B695B00081C9840031CCF
:101B50001A437B681A607B68DB687A6992B252002C
:101B60000321081C9040021CD2431A407B68DA60B3
:101B70007B68DA683B68DB79191C7B695B00081CB1
:101B80009840031C1A437B68DA607B6901337B61F0
:101B90007B690F2B00D875E7BD4606B080BDC046F7
:101BA00080B584B000AF78600A1CBB1C1A803B1C57
:101BB0000F3300221A707B681B8A9BB2BA1C1288F2
:101BC00013409BB2002B04D03B1C0F3301221A7030
:101BD00003E03B1C0F3300221A703B1C0F331B78B1
:101BE000181CBD4604B080BD80B582B000AF7860DF
:101BF0000A1CBB1C1A80BB1C1A887B689A61BD46F4
:101C000002B080BD80B582B000AF78600A1CBB1CFA
:101C10001A807B68BA1C12881A85BD4602B080BD46
:101C200090B585B000AF7860BB1C19807B1C1A7022
:101C30000023FB600023BB607B1C1A78BB1C198847
:101C400007230B409B00111C99400B1CFB60BB1C25
:101C50001B88DB089BB21A1CBB1C1B88DB089BB2D1
:101C6000191C7B6808318900CB58B91C08880721EA
:101C7000014089000F20041C8C40211CC9431940DD
:101C80007B6808329200D150BB1C1B88DB089BB2DA
:101C90001A1C7B6808329200D258FB681343BB6061
:101CA000BB1C1B88DB089BB21A1C7B6808329200A5
:101CB000B968D150BD4605B090BDC04680B582B070
:101CC00000AF021CFB1D1A70002000F0DFFCFB1DA2
:101CD0001B78002B00D0C4E00020012100F0C0FBE5
:101CE0000120382100F0BCFB0220C02100F0B8FB2D
:101CF0000320182100F0B4FB0420782100F0B0FB91
:101D00000520002100F0ACFB0620802100F0A8FB9C
:101D10000720002100F0A4FB0820802100F0A0FB98
:101D20000920002100F09CFB0A20802100F098FB94
:101D30000B20002100F094FB0C20802100F090FB90
:101D40000D20002100F08CFB0E20802100F088FB8C
:101D50000F20002100F084FB1020802100F080FB88
:101D60001120202100F07CFB1220002100F078FBE4
:101D70001320202100F074FB1420042100F070FBDC
:101D800015200A2100F06CFB1620062100F068FBEC
:101D90001720062100F064FB1820002100F060FBF2
:101DA0001920082100F05CFB1A20002100F058FBEC
:101DB0001B20FF2100F054FB1C20FF2100F050FBF2
:101DC0001D20782100F04CFB1E20342100F048FB40
:101DD0001F20902100F044FB2020072100F040FB51
:101DE0002120202100F03CFB2220322100F038FB92
:101DF0002320142100F034FB2420082100F030FBC4
:101E000025207F2100F02CFB2620102100F028FB4C
:101E10002720702100F024FB2820BF2100F020FBA8
:101E20002920022100F01CFB2A20002100F018FBD1
:101E30002B20002100F014FB2C20002100F010FBCF
:101E40002D20082100F00CFB2E20202100F008FBA3
:101E50003620012100F004FB3C200E2100F000FBA5
:101E6000C046BD4602B080BD80B500AF012000F085
:101E70000DFC9620FF2100F0F3FABD4680BDC04660
:101E800080B500AF012000F001FC0120002100F02E
:101E9000E7FA0220182100F0E3FA0320002100F005
:101EA000DFFA1520002100F0DBFA1620002100F0F7
:101EB000D7FA1820082100F0D3FA3020042100F0CE
:101EC000CFFA3120032100F0CBFA3220E02100F0DC
:101ED000C7FA3320242100F0C3FA3420062100F091
:101EE000BFFA3520402100F0BBFA3620D92100F09E
:101EF000B7FA37200A2100F0B3FA3820002100F0A9
:101F0000AFFA39202D2100F0ABFA3A20002100F081
:101F1000A7FA3B20402100F0A3FA3C20042100F066
:101F20009FFA4020802100F09BFA4120102100F010
:101F300097FA4920A82100F093FA5520002100F0DB
:101F40008FFA5620082100F08BFA9620202100F00D
:101F500087FA9820032100F083FA9920022100F0EB
:101F60007FFA9C20302100F07BFA9D20612100F057
:101F700077FAA220A42100F073FAA320A42100F094
:101F80006FFAA520442100F06BFAAB20402100F04D
:101F900067FAAF20142100F063FABA20A02100F004
:101FA0005FFADE209C2100F05BFAE420602100F063
:101FB00057FAFA207D2100F053FA4820002100F062
:101FC0004FFA5520102100F04BFA5620002100F066
:101FD00047FA16203021302200F034FB1720002170
:101FE000012200F02FFBBD4680BDC04690B583B0F6
:101FF00000AF042000F04AFBBB1D00221A801EE047
:10200000BB1D1C88BB1D1B88DBB2181C00F0A0FA8E
:10201000031C1A1C0D4B1A55BB1D00221A8004E02C
:10202000BB1D1A88BB1D01321A80BB1D1A88084BC4
:102030009A42F5D9BB1D1A88BB1D01321A80BB1DFF
:102040001B887F2BDCD9BD4603B090BDA4000020C7
:102050000F27000080B500AF014B181CBD4680BDA6
:10206000A400002080B58CB000AF786039600023F8
:10207000FB620023BB6200237B627B681B6801223A
:10208000191C91430A1C7B681A607B685B687B6241
:102090007A6A474B13407B623B689B687A6A1343BA
:1020A0007B627B687A6A5A607B681B687B627A6AAB
:1020B000404B13407B623B685A683B68DB681A43BD
:1020C0003B681B6913437A6A13437B627B687A6AB5
:1020D0001A607B689B687B627A6A374B13407B622D
:1020E0003B685B697A6A13437B627B687A6A9A60B1
:1020F0003B1C0833181CFEF7E7F97A682F4B9A420D
:1021000004D13B1C08339B69BB6203E03B1C0833D2
:102110009B68BB627B681A6880231B02134014D043
:10212000BB6A5A003B681B68101C191C01F05AFB63
:10213000031CFB62BB6A5A003B681B68101C191C1D
:1021400001F094FB0B1C7B6210E03B681B68B86AD3
:10215000191C01F047FB031CFB623B681B68BA6A51
:10216000101C191C01F082FB0B1C7B623B681B6876
:102170005A087B6A9A4202D8FB6A0133FB627B6889
:102180001A6880231B0213400AD0FA6A0F231340F7
:102190005B087B62FA6A0A4B1A407B6A1343FB6254
:1021A000FB6A9AB27B689A81BD460CB080BDC0467E
:1021B000FFCFFFFFF3E9FFFFFFFCFFFF0038014007
:1021C000F0FF000080B582B000AF78600A1CFB1CF5
:1021D0001A70FB1C1B78002B06D07B681B68012241
:1021E0001A437B681A6007E07B681B680122191C90
:1021F00091430A1C7B681A60BD4602B080BDC04690
:1022000080B582B000AF78600A1CBB1C1A80BB1C72
:102210001B88DB05DB0D9AB27B681A85BD4602B0D0
:1022200080BDC04680B582B000AF78607B689B8C73
:102230009BB2DB05DB0D9BB2181CBD4602B080BD16
:1022400080B588B000AFF860B960FB1D1A7000233C
:10225000BB6100237B6100233B610023FB61FB68C2
:10226000FB61BB689BB21B0A9BB2BB61BA68FF23D0
:1022700013407B617B690122111C99400B1C3B615F
:10228000BB69022B03D1FB690433FB6105E0BB6929
:10229000032B02D1FB690833FB61FB1D1B78002B6C
:1022A00006D0FB69FA6911683A690A431A6006E0C8
:1022B000FB69FA6912683969C9430A401A60BD4668
:1022C00008B080BD80B584B000AF786039603B1C39
:1022D0000F3300221A707B68DB693A68134004D020
:1022E0003B1C0F3301221A7003E03B1C0F3300220A
:1022F0001A703B1C0F331B78181CBD4604B080BD00
:1023000080B586B000AF786039600023FB600023A1
:102310007B610023BB603B1C133300221A703B68B7
:102320009BB21B0A9BB2BB603A68FF2313407B61E0
:102330007B690122111C99400B1C7B61BB68012B3E
:1023400005D17B681A687B6913407B610DE0BB682F
:10235000022B05D17B685A687B6913407B6104E0DE
:102360007B689A687B6913407B613B681B0CFB6050
:10237000FB680122111C99400B1CFB607B68DA6929
:10238000FB681340FB607B69002B07D0FB68002BC8
:1023900004D03B1C133301221A7003E03B1C13339F
:1023A00000221A703B1C13331B78181CBD4606B064
:1023B00080BDC04680B582B000AF021CFB1D1A7004
:1023C000FB1D1B78042B0ED89A00094BD3181B68F1
:1023D0009F46982308E0722306E0402304E056233A
:1023E00002E07E2300E09823181CBD4602B080BDA9
:1023F000AC4A000880B588B000AF80239B03181C4E
:102400000121FEF783F90020FEF748F801F0C0F83B
:102410003B1D00225A603B1D00229A603B1D10228A
:102420001A613B1D0022DA603B1D00225A613B1DF0
:10243000094A1A603B1D00229A61084A3B1D101C84
:10244000191CFEF7C7FF054B181C0121FFF72AF8DE
:10245000BD4608B080BDC04609033210005400409C
:1024600080B584B002AF0A1CFB1D011C1970BB1D96
:102470001A70C046344A80231B02101C191CFFF737
:1024800079F8031C012BF5D0304B1B78181CFFF793
:1024900091FF031C01339AB22B4980235B048020F7
:1024A00080010090081C111C0122FFF719F8C0469A
:1024B000254B181C0221FFF75DF8031C002BF7D0F9
:1024C000214AFB1D1B78101C191CFFF739F8C04668
:1024D0001D4B181C8021FFF74DF8031C002BF7D073
:1024E0001A4B1B78181CFFF765FF031C01339AB2C7
:1024F000154980239B0400200090081C111C012218
:10250000FEF7EEFFC046104B181C0221FFF732F811
:10251000031C002BF7D00C4ABB1D1B78101C191C88
:10252000FFF70EF8C046084B181C2021FFF722F8D1
:10253000031C002BF7D0044B181C2021FFF740F898
:10254000BD4602B080BDC046005400404C00002093
:1025500090B587B002AF021CFB1D1A703B1C0F33F5
:1025600000221A70C046354A80231B02101C191C19
:10257000FFF700F8031C012BF5D0314B1B78181C1A
:10258000FFF718FF031C2D4A802189010091101CC0
:10259000191C01220023FEF7A3FFC046274B181C7D
:1025A0000221FEF7E7FF031C002BF7D0234AFB1D97
:1025B0001B78101C191CFEF7C3FFC0461F4B181CCC
:1025C0004021FEF7D7FF031C002BF7D01C4B1B78D4
:1025D000181CFFF7EFFE031C1A1C184980239B04EC
:1025E000902080010090081C111C0122FEF778FF4A
:1025F000C046124B181C0421FEF7BCFF031C002B25
:10260000F7D03C1C0F340D4B181CFEF7A7FF031C22
:102610002370C046094B181C2021FEF7ABFF031C9A
:10262000002BF7D0054B181C2021FEF7C9FF3B1CDF
:102630000F331B78181CBD4605B090BD00540040F8
:102640004C00002080B582B000AFFB1D1870BB1D90
:1026500019707B1D1A70FB1D1B78181CFFF778FF83
:10266000031CDBB2BA1D1278D243D2B21340DAB2E5
:102670007B1D1B781343DBB2DBB2FA1D1278101CF2
:10268000191CFFF7EDFEBD4602B080BD80B582B0DB
:1026900000AF021CFB1D1A70034BFA1D12781A7052
:1026A000BD4602B080BDC0464C00002080B500AFE2
:1026B000044B1B781A1C044B9200D358181CBD46BF
:1026C00080BDC0464C0000203000002080B500AF27
:1026D000BFF34F8F024B034ADA60BFF34F8FFEE721
:1026E00000ED00E00400FA0590B585B000AF0023CE
:1026F000FB600023BB6000237B60FB1C00221A7080
:102700000020FFF7C3FFBB1C00221A700023FB60F0
:102710002BE000237B607B1C3949FA688A18127809
:102720001A703C1C7B1C1B78181CFFF711FF031C44
:102730002370BB1C1B781B067A6813437B607B1CD1
:102740001B781B047A6813437B603B1C1B787A68F8
:1027500013437B602B4BBA6892007968D150BB68F9
:102760000133BB60FB680133FB60FB682A2BD0D9C7
:102770000120FFF78BFFBB1C01221A700023FB60B6
:102780002BE000237B607B1C1F49FA688A181278B3
:102790001A703C1C7B1C1B78181CFFF7D9FE031C0D
:1027A0002370BB1C1B781B067A6813437B607B1C61
:1027B0001B781B047A6813437B603B1C1B787A6888
:1027C00013437B600F4BBA6892007968D150BB68A5
:1027D0000133BB60FB680133FB60FB68982BD0D9E9
:1027E000FC1C084ABB68101C191CFEF73DFD031CAD
:1027F0002370FB1C1B78181CBD4605B090BDC0465D
:102800005C4B0008F8010020C04A000880B582B087
:1028100000AF00237B609023DA0580231B02101C8D
:10282000191CFFF7EFF91D4B181C0821FFF7EAF9F7
:102830001A4B181C1021FFF7E5F9184B181C202122
:10284000FFF7D2F900237B6002E07B6801337B60F5
:102850007A68134B9A42F8D9104B181C2021FFF7C5
:10286000D1F900237B6002E07B6801337B607A68EA
:102870000B4B9A42F8D9094B181C2021FFF7B4F9E9
:1028800000237B6002E07B6801337B607A68044B45
:102890009A42F8D9BD4602B080BDC0460004004847
:1028A000E703000080B584B000AF021CFB1D1A7066
:1028B0000023FB609023DA0580231B02101C191CE7
:1028C000FFF7A0F9354B181C0821FFF79BF9334B94
:1028D000181C1021FFF796F9FB1D1B78012B0ED059
:1028E00002DC002B05D029E0022B13D0032B17D0DC
:1028F00024E02A4B181C1021FFF776F91EE0274B25
:10290000181C1021FFF770F9244B181C0821FFF741
:102910006BF913E0214B181C0821FFF765F90DE056
:102920001E4B181C0821FFF75FF99023DA0580235E
:102930001B02101C191CFFF757F9C046174B181C37
:102940002021FFF751F90023FB6002E0FB6801330F
:10295000FB60FA68124B9A42F8D9104B181C2021E0
:10296000FFF750F90023FB6002E0FB680133FB60D6
:10297000FA680B4B9A42F8D9084B181C2021FFF734
:1029800033F90023FB6002E0FB680133FB60FA6867
:10299000034B9A42F8D9BD4604B080BD00040048FC
:1029A000E703000080B582B000AF744B1B781A1C9F
:1029B0007349131C9B009B185B009B185B5C012BED
:1029C00019D002DC002B07D0D5E0022B00D1C0E0EB
:1029D000032B00D1CCE0CEE0684B1B781A1C684971
:1029E000131C9B009B185B009B18CB185B78181C72
:1029F000FFF758FFBFE0BB1D00221A805F4B1B781A
:102A00001A1C5F49131C9B009B185B009B18CB187A
:102A10009B78181CFFF73AFE584B1B781A1C584934
:102A2000131C9B009B185B009B18CB18DB78002BBA
:102A300016D0524B1B781A1C5149131C9B009B1833
:102A40005B009B18CB181B79181CFFF781FD031C3A
:102A50001B029AB2BB1D1B8813439AB2BB1D1A807E
:102A6000464B1B781A1C4649131C9B009B185B00A5
:102A70009B18CB185B79181CFFF76AFD031C191C07
:102A8000BB1DBA1D12880A431A803C4B1B781A1CC6
:102A90003B49131C9B009B185B009B18CB18DB79F0
:102AA000002B11D0354B1B781A1C3549131C9B0089
:102AB0009B185B009B18CB189B79191CBB1DBA1D7A
:102AC00012888A181A8010E02C4B1B781A1C2C498B
:102AD000131C9B009B185B009B18CB189B791A1C3E
:102AE000BB1DB91D09888A1A1A80244B1B781A1C31
:102AF0002349131C9B009B185B009B18CB18DB78A9
:102B0000002B13D01D4B1B781A1C1D49131C9B0056
:102B10009B185B009B18CB181A79BB1D1B881B0ADE
:102B20009BB2DBB2101C191CFFF79AFC134B1B78ED
:102B30001A1C1349131C9B009B185B009B18CB1895
:102B40005A79BB1D1B88DBB2101C191CFFF788FCCF
:102B500011E000F051F9031C002B04D1094B181CA3
:102B6000FDF712FB07E0084B181CFDF70DFB02E018
:102B7000FFF7ACFDC046BD4602B080BD0905002090
:102B8000A8010020A44B0008D84B000880B500AF76
:102B9000084B1B781A1C0849131C9B009B185B00F0
:102BA0009B18CB1808335B78002B01D0FFF7FAFE97
:102BB000BD4680BD09050020A801002080B500AFFA
:102BC000084B1B781A1C0849131C9B009B185B00C0
:102BD0009B18CB1808331B78002B01D0FFF7E2FEBF
:102BE000BD4680BD09050020A801002080B500AFCA
:102BF0009023DB05181C0121FEF7D2FF031C002BDC
:102C000001D1002341E09023DB05181C0221FEF7CF
:102C1000C7FF031C002B01D1012336E09023DB0505
:102C2000181C0421FEF7BCFF031C002B01D102235A
:102C30002BE09023DB05181C0821FEF7B1FF031CD5
:102C4000002B01D1032320E09023DB05181C402139
:102C5000FEF7A6FF031C002B01D1042315E09023EF
:102C6000DB05181C8021FEF79BFF031C002B01D104
:102C700005230AE0064B181C0121FEF791FF031CF7
:102C8000002B01D1062300E00723181CBD4680BDA0
:102C90000004004880B500AF544B00221A70544B1A
:102CA00000221A60534B00221A70524B00225A70B5
:102CB000504B01221A724F4B01225A724D4B012286
:102CC0009A724C4B0022DA724A4B01221A73494B1A
:102CD0000122DA74474B01221A75464B01225A75BC
:102CE000444B00229A75434B0222DA75414B012274
:102CF0009A77404B0122DA773E4A20230121D154B2
:102D00003C4A21230021D1543A4A22230321D154A1
:102D1000384A29230121D154364A2A230121D1548A
:102D2000344A2B230121D154324A2C230121D1547E
:102D3000304A2E230121D1542E4A2F230121D15470
:102D40002C4A30233721D1542A4A31233821D154F7
:102D5000284A32230821D154264A33230121D15451
:102D6000244A34230121D154224A35230121D1544C
:102D7000204A36230121D1541E4A37230121D15440
:102D80001C4A39230121D1541A4A3A230121D15432
:102D9000184A3B233721D154164A3C233821D154B9
:102DA000144A3D230821D154124A3E230021D15414
:102DB000104A3F230121D1540E4A40230121D1540E
:102DC0000C4A41230121D1540A4A42230221D15401
:102DD000084A4A230121D154064A4B230021D154E9
:102DE000044A4C230021D154BD4680BD0805002073
:102DF0000C050020A801002080B500AFFFF774FC8F
:102E0000031C181CBD4680BD80B582B000AF786041
:102E10000A1CFB1C1A70FB1C1B78062B00D90FE048
:102E2000FB1C1A780849131C9B009B185B009B181D
:102E30007A68C9180B23081C111C1A1C00F082FDAB
:102E4000BD4602B080BDC046A801002080B582B05A
:102E500000AF00237B60384B1B78042B68D89A00A6
:102E6000364BD3181B689F46FFF7D0FC324B01222C
:102E70001A705DE0FFF7BAFE031C1A1C304B1A7083
:102E80002F4B1B78072B03D02B4B02221A704FE0DD
:102E90004EE02C4B1B685A1C2A4B1A60294B1A68AF
:102EA000294B9A4202D9244B04221A70FFF79EFE46
:102EB000031C072B03D1204B03221A7038E037E0A4
:102EC000FFF77CFEFFF792FE031C072B0DD01C4B77
:102ED0001B781A1C1D49131C9B009B185B009B1838
:102EE000CB1808339B78002B05D1134B01221A70A5
:102EF000144B00221A6000237B6002E07B680133E0
:102F00007B607A68124B9A42F8D911E00D4B1A682F
:102F1000104B9A4203D8084B01221A7004E0FFF7C5
:102F200035FE054B01221A70064B00221A60C0467E
:102F3000BD4602B080BDC04608050020104C000808
:102F4000090500200C0500202F750000A8010020B5
:102F50005FEA0000B80B000080B500AF064B1A69AD
:102F60008023134005D0044B044A5A60024B044AA4
:102F70005A60BD4680BDC04600200240230167451F
:102F8000AB89EFCD80B500AF034B034A12698021B6
:102F90000A431A61BD4680BD0020024090B585B04D
:102FA00000AF78603B1C0F3304221A703C1C0F34B6
:102FB000B0231B03181C00F0BFF8031C23703B1C3C
:102FC0000F331B78042B1DD1124B124A12690221B8
:102FD0000A431A610F4B7A685A610E4B0D4A126907
:102FE00040210A431A613C1C0F34B0231B03181CF8
:102FF00000F0A2F8031C2370064B064A1269022156
:103000008A431A613B1C0F331B78181CBD4605B060
:1030100090BDC0460020024090B585B000AF7860FA
:1030200039603B1C0F3304221A700023BB603C1C28
:103030000F34B0231B03181C00F07EF8031C237010
:103040003B1C0F331B78042B35D11E4B1D4A1269D4
:1030500001210A431A617B683A6892B21A803C1CCB
:103060000F34B0231B03181C00F066F8031C2370F8
:103070003B1C0F331B78042B17D17B680233BB60DA
:10308000BB683A68120C92B21A803C1C0F34B02311
:103090001B03181C00F050F8031C2370094B094A4D
:1030A000126901218A431A6105E0064B054A12693B
:1030B00001218A431A613B1C0F331B78181CBD4643
:1030C00005B090BD0020024080B582B000AF7860AE
:1030D000024B7A68DA60BD4602B080BD0020024033
:1030E00080B582B000AFFB1D04221A70114BDA6864
:1030F0000123134003D0FB1D01221A7014E00D4B75
:10310000DA681023134003D0FB1D02221A700BE073
:10311000084BDA680423134003D0FB1D03221A7006
:1031200002E0FB1D04221A70FB1D1B78181CBD4613
:1031300002B080BD0020024090B585B000AF78603D
:103140003B1C0F3304221A703C1C0F34FFF7C8FFDE
:10315000031C237008E03C1C0F34FFF7C1FF031C65
:1031600023707B68013B7B603B1C0F331B78012B7A
:1031700002D17B68002BEED17B68002B03D13B1C76
:103180000F3305221A703B1C0F331B78181CBD46E9
:1031900005B090BD80B584B000AF78600023FB60BF
:1031A000314BFB607B689B79002B4DD02E4B2E4A18
:1031B00011687A681268D2430A401A602A4B2A4A78
:1031C00051687A681268D2430A405A607B681B795A
:1031D000FA68D318FB60FB68FA6811687A681268AD
:1031E0000A431A60204B204A91687A681268D243D9
:1031F0000A409A601C4B1C4AD1687A681268D24314
:103200000A40DA607B685B79102B0ED1164B164AA8
:1032100091687A6812680A439A60134B124AD1681F
:103220007A6812680A43DA601BE00F4BFB607B6828
:103230005B79FA68D318FB60FB68FA6811687A68F2
:1032400012680A431A600CE07B681B79FA68D3188D
:10325000FB60FB68FA6811687A681268D2430A401A
:103260001A60BD4604B080BD0004014080B584B042
:1032700000AF78603B1C0F3300221A700A4B5B6969
:103280007A68134004D03B1C0F3301221A7003E00C
:103290003B1C0F3300221A703B1C0F331B78181C89
:1032A000BD4604B080BDC0460004014080B582B078
:1032B00000AF7860024B7A685A61BD4602B080BDAB
:1032C00000040140B0B584B000AF0A1CFB1D011C16
:1032D0001970BB1D1A700023FB60BB1D1A780323F5
:1032E00013409B000F22111C99400B1CFB60184BD4
:1032F000BA1D12789208D2B21549B81D007880081C
:10330000C0B2023080004158F868C0430140023228
:103310009200D1500E4BBA1D12789208D2B20C49CD
:10332000B81D00788008C0B2023080004058F91DF6
:103330000C78B91D0D78032129408900251C8D408A
:10334000291C014302329200D150BD4604B0B0BDE9
:103350000000014080B584B000AF78600A1CFB1CFF
:103360001A700023FB6005E0FB680133FB607B689B
:1033700001337B607B681B78FA1C12789A42F3D188
:10338000FB68181CBD4604B080BDC04680B584B043
:1033900000AF7860214BFB607B68002B19DBFB687A
:1033A000013BFB607B68181C0A2100F0BFFA0B1C74
:1033B000DBB23033DAB2FB681A707B68181C0A2162
:1033C00000F05EFA031C7B607B68002BE7D1FB6892
:1033D0001FE0FB68013BFB607B68181C0A2100F0C2
:1033E000A5FA0B1CDBB23022D31ADAB2FB681A70D2
:1033F0007B68181C0A2100F043FA031C7B607B6881
:10340000002BE6D1FB68013BFB60FB682D221A70A4
:10341000FB68181CBD4604B080BDC0466400002097
:1034200080B584B000AF786039601B4BBB60BB686F
:103430000433BB60BB6800221A703B1C0F333A6830
:103440001A7013E0BB68013BBB607A680F2313401E
:10345000124AD25CBB681A707B681B117B603B1CF4
:103460000F333A1C0F321278013A1A703B1C0F339B
:103470001B78002BE6D1BB68013BBB60BB687822A0
:103480001A70BB68013BBB60BB6830221A70BB6816
:10349000181CBD4604B080BD7C000020244C0008F0
:1034A00080B584B000AF78600023FB600CE0FB685F
:1034B000DA00FB685B00D2187B681B78D318303BBE
:1034C000FB607B6801337B607B681B78002BEED14F
:1034D000FB68181CBD4604B080BDC04680B586B0F0
:1034E00000AF786001237B610023BB607B68181C00
:1034F0000021FFF72FFF031C013BFB601DE0FB6871
:103500007A68D3181B78303B3B613B69092B08DD97
:103510003B69302B01DD272300E007233A69D31AEA
:103520003B613B697A695343BA68D318BB607B69D6
:103530001B017B61FB68013BFB60FB68002BDEDA53
:10354000BB68181CBD4606B080BDC04680B586B0BD
:1035500000AFF8607A603B1C0B330A1C1A70002322
:103560007B6109E0FB685A1CFA603A1C0B32127846
:103570001A707B6901337B617A697B689A42F1D367
:10358000BD4606B080BDC04680B500AFBD4680BD1B
:1035900080B582B000AF9023DB05181C09210422FE
:1035A000FEF73EFB9023DB05181C0A210422FEF7E0
:1035B00037FB3B1CC022D2001A603B1C00225A7110
:1035C0003B1C02221A713B1C0122DA713B1C0122B6
:1035D0009A719023DA053B1C101C191CFEF744FA63
:1035E000BD4602B080BDC04680B582B000AF124B70
:1035F000181C06210022FEF713FB0F4B181C072195
:103600000022FEF70DFB3B1CC0221A603B1C03226C
:103610005A713B1C02221A713B1C00229A713B1CFE
:103620000122DA71044A3B1C101C191CFEF71CFA1B
:10363000BD4602B080BDC0460004004880B582B0DF
:1036400000AF3B1C01221A603B1C00221A713B1C7C
:1036500000229A713B1C0122DA713B1C01225A7133
:10366000254A3B1C101C191CFEF7FEF93B1CCF22FF
:103670001A603B1C00221A713B1C00229A713B1CF1
:103680000122DA713B1C01225A719023DA053B1C9E
:10369000101C191CFEF7E8F93B1C38221A603B1C71
:1036A00001221A713B1C00229A713B1C0122DA7123
:1036B0003B1C01225A71104A3B1C101C191CFEF7BE
:1036C000D3F93B1C802212021A603B1C01221A71A2
:1036D0003B1C00229A713B1C0122DA713B1C012227
:1036E0005A719023DA053B1C101C191CFEF7BCF91B
:1036F000BD4602B080BDC0460004004880B582B01F
:1037000000AF3B1C802252001A603B1C01221A7140
:103710003B1C00229A713B1C0122DA713B1C0122E6
:103720005A719023DA053B1C101C191CFEF79CF9FA
:10373000BD4602B080BDC04680B584B000AF7860A1
:103740000023FB607B689B78002B3CD0244B7A687D
:1037500012789208D2B2C0329200D358FB607B68D4
:103760001B781A1C03231340DB00FF22101C984017
:10377000031CDA43FB681340FB607B685B789A01AB
:10378000FF231A407B681B78191C03230B40DB00C6
:10379000111C99400B1CFA681343FB60104B7A68AC
:1037A00012789208D2B2C0329200F968D1500C4B14
:1037B0007A681278111C1F220A400121081C9040CF
:1037C000021C1A6009E0064A7B681B78191C1F233B
:1037D0000B40012199408023D150BD4604B080BDEB
:1037E00000E100E0002934D00123002210B4884217
:1037F0002CD301242407A14204D2814202D2090120
:103800001B01F8E7E400A14204D2814202D2490040
:103810005B00F8E7884201D3401A1A434C08A042E3
:1038200002D3001B5C0822438C08A04202D3001B79
:103830009C082243CC08A04202D3001BDC08224390
:10384000002803D01B0901D00909E3E7101C10BCB4
:103850007047002801D00020C04307B4024802A1ED
:103860004018029003BDC046D90000000029F0D0E6
:1038700003B5FFF7B9FF0EBC4243891A1847C0468B
:10388000002941D010B4041C4C40A446012300225E
:10389000002900D54942002800D5404288422CD357
:1038A00001242407A14204D2814202D209011B0152
:1038B000F8E7E400A14204D2814202D249005B0051
:1038C000F8E7884201D3401A1A434C08A04202D3B9
:1038D000001B5C0822438C08A04202D3001B9C08FA
:1038E0002243CC08A04202D3001BDC08224300285C
:1038F00003D01B0901D00909E3E7101C6446002C22
:1039000000D5404210BC7047002806D003DB0020E1
:10391000C043400801E08020000607B4024802A12D
:103920004018029003BDC046190000000029EBD0EA
:1039300003B5FFF7A7FF0EBC4243891A1847C046DC
:103940007047C046F0B50F2A35D9031C0B439C07BE
:1039500035D1161C103E36093501451910350C1CA1
:10396000031C27681F6067685F60A7689F60E7683F
:103970001034DF601033AB42F3D1731C1B01C51848
:10398000C9180F231340032B1BD91C1FA408013493
:10399000A4000023CE58EE500433A342FAD1ED1810
:1039A000C91803231A4005D00023CC5CEC54013322
:1039B0009342FAD1F0BD051C002AF5D1FAE7051CA7
:1039C000F2E71A1CF8E7C04615161718191A1B1C3F
:1039D0001D1E1F202122232425262728292A2B2C9F
:1039E0002D2E2F303132333435363738393A3B3C8F
:1039F0003D3E3F4041424448494A4B52535455563C
:103A00005758595A5B5C5D5E5F60616263646566CE
:103A10006768696A6B6C6D6E6F7F80818292939428
:103A2000959697989A9C9DD0D5D6D7D8D9DADEDBD3
:103A3000DCDDA0A1A2A3A4A5A6A7A8A9AAABACADB2
:103A4000AEAFB0B1B2B3B4B5B6B7B8B9BABBBCBD1E
:103A5000BEBFC1C2C3C4C5C6C7C9D0D5D6E0F9FA76
:103A6000FB0000000102030405060708090A0B0C0D
:103A70000D0E0F101112131415161718191A1B1CFE
:103A80001D1E1F2021222328292C2D2E34363C00D8
:103A900000000000100000002000000030000000C6
:103AA000400000005000000060000000466F756E8E
:103AB000642067656E6572616C20636F6E6669670E
:103AC00075726174696F6E206F6E20666C617368C9
:103AD000210D0A004C6F6164696E672067656E6531
:103AE00072616C20636F6E66696775726174696F6D
:103AF0006E2E2E2E0D0A00004E6F20737563682007
:103B00006465766963652E20506C65617365206518
:103B10007261736520636F6E66696775726174693F
:103B20006F6E20696E20666C617368206D656D6FC5
:103B300072792028636D6420276527292100000001
:103B4000446F6E65210D0A00466F756E64206275C4
:103B500074746F6E20636F6E6669677572617469E5
:103B60006F6E206F6E20666C61736820666F7220C6
:103B7000627574746F6E20000D0A00000000000072
:103B80001000000020000000300000004000000095
:103B9000500000006000000015161718191A1B1CB1
:103BA0001D1E1F202122232425262728292A2B2CCD
:103BB0002D2E2F303132333435363738393A3B3CBD
:103BC0003D3E3F4041424448494A4B52535455566A
:103BD0005758595A5B5C5D5E5F60616263646566FD
:103BE0006768696A6B6C6D6E6F7F80818292939457
:103BF000959697989A9C9DD0D5D6D7D8D9DADEDB02
:103C0000DCDDA0A1A2A3A4A5A6A7A8A9AAABACADE0
:103C1000AEAFB0B1B2B3B4B5B6B7B8B9BABBBCBD4C
:103C2000BEBFC1C2C3C4C5C6C7C9D0D5D6E0F9FAA4
:103C3000FB0000005265616420000000206F6E20D0
:103C4000646576696365200053796E7461783A2003
:103C500072203C7265673E005772697474656E200D
:103C60000000000020746F207265676973746572CC
:103C70002000000052656769737465722061637487
:103C8000697665206973200053796E7461783A20F3
:103C900069203C7265673E00446576696365200073
:103CA00020697320616374697665000053796E74CE
:103CB00061783A2073203C736C6176653E0D0A0989
:103CC000303A20414439393834410D0A09313A201B
:103CD000414456373531310D0A09323A20414456B4
:103CE000373238300D0A09333A20414456373339D8
:103CF0003100000053796E7461783A207A203C31AB
:103D0000322062697420616464726573733E0000DE
:103D10002061742061646472657373200000000088
:103D200053796E7461783A2078203C33326269743A
:103D30002076616C75653E0041637469766520612B
:103D4000646472657373206973200000206F6E20B5
:103D5000666C61736800000053796E7461783A2074
:103D600063203C31326269742061646472657373EC
:103D70003E00000044656661756C742067656E6581
:103D800072616C20636F6E66696775726174696FCA
:103D90006E206973206E6F77207573656421000053
:103DA00053796E7461783A206420594553000000BD
:103DB00044656661756C7420627574746F6E2063FF
:103DC0006F6E66696775726174696F6E20697320C2
:103DD0006E6F7720757365642100000053796E74EF
:103DE00061783A20622059455300000047656E65AE
:103DF00072616C20636F6E66696775726174696F5A
:103E00006E20686173206265656E207361766564FB
:103E1000206F6E20666C617368210000436F756CC3
:103E200064206E6F7420736176652067656E6572BD
:103E3000616C20636F6E66696775726174696F6E1D
:103E400020746F20666C617368206D656D6F727988
:103E50002100000053796E7461783A20662059453C
:103E6000530000005061676520000000206572610A
:103E7000736564206F6E20666C61736820000000BB
:103E800053796E7461783A2065203C506167653ED5
:103E900020776865726520706167652069732031DD
:103EA0002C20322C2033206F7220340020000000A0
:103EB0000D0A000053796E7461783A206A203C6FD5
:103EC00066667365743E203C76616C75653E206560
:103ED0002E672E20276A20307830302032270000CD
:103EE000446F6E6521000000466F726D617420663C
:103EF0006F7220627574746F6E20636F6E6669678F
:103F000075726174696F6E0D0A0D0A0042757474E2
:103F10006F6E20313A0D0A003078303020427574CF
:103F2000746F6E416374696F6E205B425554544FD9
:103F30004E5F414354494F4E5F46504741203D201C
:103F4000302C20425554544F4E5F414354494F4EFC
:103F50005F524547203D20312C20425554544F4E4E
:103F60005F414354494F4E5F53415645203D2032F7
:103F70002C20425554544F4E5F414354494F4E5F9D
:103F80005245534554203D20335D0D0A000000008A
:103F9000307830382053686F7274507265737320B4
:103FA0005B73657420746F203120696620616374CF
:103FB000696F6E2073686F756C6420626520706530
:103FC00072666F726D65642075706F6E2073686FB6
:103FD00072742070726573735D0D0A003078303929
:103FE000204C6F6E675072657373205B736574202D
:103FF000746F203120696620616374696F6E20736D
:10400000686F756C6420626520706572666F726D92
:1040100065642075706F6E206C6F6E6720707265BE
:1040200073735D0D0A0000003078304120436F6EDD
:1040300074696E75654C6F6E675072657373205B43
:1040400073657420746F2031206966206163746920
:104050006F6E2073686F756C642062652072657086
:1040600065617465642075706F6E206C6F6E67207B
:1040700070726573735D0D0A000000004255545460
:104080004F4E5F414354494F4E5F465047410D0AE2
:1040900000000000307830312046504741416374C1
:1040A000696F6E205B465047415F414354494F4E14
:1040B0005F5343524F4C4C5F5249474854203D2078
:1040C000302C20465047415F414354494F4E5F5387
:1040D00043524F4C4C5F4C454654203D20312C20E0
:1040E000465047415F414354494F4E5F5343524FFF
:1040F0004C4C5F5550203D20322C20465047415FAC
:10410000414354494F4E5F5343524F4C4C5F444FD1
:10411000574E203D20335D0D0A0000004255545497
:104120004F4E5F414354494F4E5F5245470D0A0081
:10413000307830312043686970205B414439393828
:104140003441203D20302C20414456373531312038
:104150003D20315D0D0A0000307830322055736902
:104160006E674D5342526567205B6966204D53422E
:104170002072656769737465722069732075736551
:10418000642C207468656E2073657420746F203110
:104190002C206F746865727769736520736574206D
:1041A000746F20305D0D0A0030783033205265671F
:1041B0004D5342205B4D53422072656769737465AD
:1041C000722C20652E672E20307832315D0D0A006A
:1041D00030783034205265674C5342205B4C534258
:1041E0002072656769737465722C20652E672E20B6
:1041F000307832315D0D0A003078303520536967F0
:104200006E205B73686F756C6420746865207265DE
:104210006769737465722076616C756520626520CC
:10422000696E6372656173656420776974682027BD
:1042300053746570272073657420746F20312C20AF
:104240006F74686572776973652073657420746F25
:1042500020305D0D0A000000307830362053746540
:1042600070205B746865207175616E746974792063
:10427000746861742073686F756C64206265206176
:1042800064646564206F7220737562747261637414
:10429000656420746F207468652072656769737443
:1042A00065722076616C75655D0D0A004E6F206544
:1042B0007874726120696E666F726D6174696F6E79
:1042C000206973206E6565646564207768656E207B
:1042D000616374696F6E2069732073657420746FF5
:1042E00020425554544F4E5F414354494F4E5F5303
:1042F000415645206F7220425554544F4E5F414302
:1043000054494F4E5F52455345540D0A000000007A
:10431000427574746F6E20323A0D0A004164642055
:1043200030783130206F666673657420746F206654
:104330006C61736820616464726573730D0A0000B8
:10434000546F2070726F6772616D20627574746F44
:104350006E203420746F206D6F64696679207468F4
:104360006520696E70757420636C6F636B20666F77
:1043700072204144393938344120636869703A0DFC
:104380000A0000002861646472657373206D7573A0
:1043900074206265207772697474656E2061732081
:1043A000342063686172616374657273290D0A0059
:1043B0006A203078343020310D0A00006A203078CD
:1043C000343820310D0A00006A2030783439203129
:1043D0000D0A00006A203078344120310D0A0000B7
:1043E0006A203078343120300D0A00006A2030789D
:1043F000343220310D0A00006A2030783433203006
:104400007830310D0A0000006A20307834342030D2
:104410007830320D0A0000006A20307834352031BF
:104420000D0A00006A203078343620307831300DA3
:104430000A0000005768656E207072657373696EBC
:104440006720627574746F6E203420746865206311
:104450006C6F636B2077696C6C20626520696E639A
:1044600072656173656420776974682030783130D3
:104470000D0A0000436F6D6D616E64733A0D0A00A2
:104480000920723A207265616420726567697374ED
:1044900065720D0A000000000920773A20777269E2
:1044A00074652072656769737465720D0A00000097
:1044B0000920693A20736574206163746976652008
:1044C0007265676973746572202877696C6C2077F0
:1044D0007269746520746F207468697320726567EF
:1044E000290D0A000920733A2073657420616374F2
:1044F000697665206465766963650D0A00000000D1
:1045000009207A3A20726561642066726F6D2066B8
:104510006C6173680D0A00000920783A207772698F
:10452000746520746F20666C6173680D0A0000006A
:104530000920633A2073657420616374697665208D
:1045400061646472657373202877696C6C2077727C
:1045500069746520746F2074686973206164647283
:10456000657373290D0A00000920643A207365748D
:1045700020746F2064656661756C742067656E6574
:1045800072616C20636F6E66696775726174696FC2
:104590006E202863616E6E6F7420626520756E6494
:1045A0006F6E65290D0A00000920623A2073657458
:1045B00020746F2064656661756C74206275747414
:1045C0006F6E20636F6E66696775726174696F6E76
:1045D000202863616E6E6F7420626520756E646F53
:1045E0006E65290D0A0000000920663A2073617685
:1045F000652063757272656E742067656E657261A1
:104600006C20636F6E6669672028696E20666C6136
:104610007368206D656D6F7279290D0A00000000C6
:104620000920653A206572617365206120706167B9
:104630006520696E20666C6173680D0A00000000D9
:104640000920703A207265616420454449440D0A8E
:10465000000000000920713A20536F6674205265F3
:104660007365740D0A0000000920683A20496E73D2
:104670007472756374696F6E7320666F72207072E6
:104680006F6772616D6D696E672061206275747409
:104690006F6E0D0A0000000009206A3A20777269E7
:1046A000746520627574746F6E20636F6E666967DF
:1046B00020696E20666C6173680D0A00400B00086B
:1046C000460A0008A20A0008D80B0008880B000858
:1046D0003C0F0008540D0008A2080008BE0C00089A
:1046E0003C0F00083C0F00083C0F00083C0F00087E
:1046F0003C0F00084A0C0008BA0C00088A070008A2
:104700000C0900083C0F00083C0F00083C0F000893
:104710000E080008C40900083C0F00085A090008E8
:104720000000000010000000200000003000000029
:104730004000000050000000600000004E6F207339
:104740007563682070616765210D0A0045726173A9
:104750006520666C617368206661696C6564210D13
:104760000A000000466C617368206661696C6564CC
:10477000210D0A00466C61736820496E636F6D708D
:104780006C657465210D0A0015161718191A1B1C83
:104790001D1E1F202122232425262728292A2B2CD1
:1047A0002D2E2F303132333435363738393A3B3CC1
:1047B0003D3E3F4041424448494A4B52535455566E
:1047C0005758595A5B5C5D5E5F6061626364656601
:1047D0006768696A6B6C6D6E6F7F8081829293945B
:1047E000959697989A9C9DD0D5D6D7D8D9DADEDB06
:1047F000DCDDA0A1A2A3A4A5A6A7A8A9AAABACADE5
:10480000AEAFB0B1B2B3B4B5B6B7B8B9BABBBCBD50
:10481000BEBFC1C2C3C4C5C6C7C9D0D5D6E0F9FAA8
:10482000FB0000000102030405060708090A0B0C3F
:104830000D0E0F101112131415161718191A1B1C30
:104840001D1E1F2021222328292C2D2E34363C000A
:104850004952512052454349564544204C494E4502
:104860002035210D0A0000004952512073746174F3
:1048700075733A20000000000D0A00004361626C6D
:104880006520696E7365727465642C20696E697445
:1048900069616C697A696E672E2E2E0D0A00000020
:1048A0004361626C652072656D6F766564210D0AE7
:1048B0000000000045444944206973206176616925
:1048C0006C61626C650D0A004952512052454349A2
:1048D000564544204C494E452038210D0A00000021
:1048E0004952512052454349564544204C494E4572
:1048F0002034210D0A00000015161718191A1B1C68
:104900001D1E1F202122232425262728292A2B2C5F
:104910002D2E2F303132333435363738393A3B3C4F
:104920003D3E3F4041424448494A4B5253545556FC
:104930005758595A5B5C5D5E5F606162636465668F
:104940006768696A6B6C6D6E6F7F808182929394E9
:10495000959697989A9C9DD0D5D6D7D8D9DADEDB94
:10496000DCDDA0A1A2A3A4A5A6A7A8A9AAABACAD73
:10497000AEAFB0B1B2B3B4B5B6B7B8B9BABBBCBDDF
:10498000BEBFC1C2C3C4C5C6C7C9D0D5D6E0F9FA37
:10499000FB000000426164205265636569766572C0
:1049A00020424B53560000005269204D69736D61DF
:1049B00074636800506A204D69736D6174636800A8
:1049C000493243204572726F722028757375616C8D
:1049D0006C792061206E6F2D61636B2900000000EF
:1049E00054696D6564204F75742057616974696EF0
:1049F0006720666F7220446F776E73747265616DA5
:104A000020526570656174657220444F4E45000008
:104A10004D61782043617363616465206F66205245
:104A2000657065617465727320457863656564655A
:104A3000640000005348412D3120486173682043D1
:104A40006865636B206F66204B5356204C69737406
:104A5000204661696C656400546F6F204D616E790A
:104A6000204465766963657320436F6E6E65637479
:104A7000656420746F20526570656174657220549E
:104A80007265650041443939383441004144563734
:104A900035313100414456373238300041445637C1
:104AA000333931004544494400000000D223000856
:104AB000D6230008DA230008DE230008E2230008DA
:104AC00015161718191A1B1C1D1E1F20212223241E
:104AD00025262728292A2B2C2D2E2F30313233340E
:104AE00035363738393A3B3C3D3E3F4041424448F9
:104AF000494A4B52535455565758595A5B5C5D5E60
:104B00005F606162636465666768696A6B6C6D6E3D
:104B10006F7F808182929394959697989A9C9DD06E
:104B2000D5D6D7D8D9DADEDBDCDDA0A1A2A3A4A537
:104B3000A6A7A8A9AAABACADAEAFB0B1B2B3B4B59D
:104B4000B6B7B8B9BABBBCBDBEBFC1C2C3C4C5C687
:104B5000C7C9D0D5D6E0F9FAFB0000000102030472
:104B600005060708090A0B0C0D0E0F10111213147D
:104B700015161718191A1B1C1D1E1F202122232869
:104B8000292C2D2E34363C000000000010000000BF
:104B90002000000030000000400000005000000035
:104BA0006000000047656E6572616C20636F6E6621
:104BB000696775726174696F6E20686173206265E0
:104BC000656E207361766564206F6E20666C61731C
:104BD00068210D0A00000000436F756C64206E6F41
:104BE0007420736176652067656E6572616C206301
:104BF0006F6E66696775726174696F6E20746F207D
:104C0000666C617368206D656D6F7279210D0A00A5
:104C1000682E0008742E0008922E00080C2F000841
:104C2000C02E0008303132333435363738394142FE
:084C300043444546000000006A
:104C3800000000000102030401020304060708093A
:104C480094490008A8490008B4490008C049000868
:104C5800E0490008104A0008344A0008584A000889
:104C6800844A00088C4A0008944A00089C4A0008B4
:044C7800A44A000842
:0400000508000000EF
:00000001FF
