:020000040800F2
:10000000001000209D100008E9100008E910000809
:1000100000000000000000000000000000000000E0
:10002000000000000000000000000000E9100008CF
:100030000000000000000000E9100008E9100008BE
:10004000E9100008E9100008E9100008E9100008AC
:10005000E9100008E9100008E9100008DD170008A1
:10006000E9100008E9100008E9100008E91000088C
:10007000E9100008E9100008E9100008E91000087C
:10008000E9100008E910000800000000E91000086D
:10009000E9100008E9100008E9100008E91000085C
:1000A000E9100008E9100008E9100008F11800083C
:1000B000E910000800000000E9100008000000003E
:1000C0005FF808F180B586B000AF8023DB01181C13
:1000D000012100F08DFB03F00FFC01F09FFC184A9A
:1000E000184B101C191C012202F0CCF83B1CE12219
:1000F00052021A603B1C00225A603B1C00229A608C
:100100003B1C0022DA603B1C00225A613B1C0C2283
:100110001A610B4A3B1C101C191C01F0C5FF084B4F
:10012000181C012102F070F8074B181C0021202236
:1001300003F088FB054B00221A70BD4606B080BD57
:1001400000380140050105007800002098000020DB
:1001500080B582B000AF021CFB1D1A70C046094B6F
:10016000181C802102F0D0F8031C002BF7D0FB1DD7
:100170001B789BB2034A101C191C02F063F8BD46A1
:1001800002B080BD0038014080B582B000AF786019
:1001900012E0C0460C4B181C802102F0B5F8031C7D
:1001A000002BF7D07B681B78074A101C191C02F043
:1001B00049F87B6801337B607B681B78002BE8D1B2
:1001C000BD4602B080BDC0460038014080B500AFDA
:1001D000044A054B101C191C02F0B4F8031C181C2F
:1001E000BD4680BD003801400501050080B500AF67
:1001F000044B181C02F038F8031CDBB2181CBD4677
:1002000080BDC0460038014080B586B000AF0023F5
:100210007B6103F035FBFFF755FFD84B181CFFF748
:10022000B3FF03F093FB03F0F1FB02F0FFF801F0E2
:10023000ABFB00F08FFF02F0C9FD9023DA058023AD
:100240005B00101C191C01F0EFFC00237B6102E035
:100250007B6901337B617A69C94B9A42F8D9C94BF2
:10026000181CFFF791FFC84B181CFFF78DFF01F01A
:100270001DFE002001F034FDC24B181CFFF784FF67
:10028000C24B181CFFF780FF01F01CFEBD4B181C71
:10029000FFF77AFF02F006FF031C002B49D03B1C3E
:1002A000133300221A70BA4B181CFFF76DFFB94BBD
:1002B000181CFFF769FF002000F050FF031C191CF9
:1002C0003B1C13333A1C133212780A431A70012074
:1002D00000F044FF031C191C3B1C13333A1C13325F
:1002E00012780A431A70022000F038FF031C191C10
:1002F0003B1C13333A1C133212780A431A70032042
:1003000000F02CFF031C191C3B1C13333A1C133246
:1003100012780A431A703B1C13331B78002B04D14C
:10032000984B181CFFF730FF03E09B4B181CFFF79E
:100330002BFF00F0AFFF031C002B45D0974B181C80
:10034000FFF722FF964B181CFFF71EFF00237B616F
:1003500033E0381C1230391C11313A1C10327B69E1
:1003600000F0A8FF3B1C12331B78002B02D0012B9E
:100370000ED01BE0002002F0A5F93B1C11331A78C7
:100380003B1C10331B78101C191C02F085F811E07F
:10039000012002F097F93B1C11331A783B1C1033F3
:1003A0001B78101C191C02F077F803E07D4B181C19
:1003B000FFF7EAFE7B6901337B617B69C32BC8D9F8
:1003C000704B181CFFF7E0FE00237B61B2E0764B18
:1003D0007A699200D358181C00F046FF031C002BCA
:1003E00000D1A4E0714B181CFFF7CEFE7B690133EE
:1003F000181C03F047F9031C181CFFF7C5FE6C4BD3
:10040000181CFFF7C1FE684B7A699200D358181C7C
:1004100000F0E4FF031CDAB23B1D1A703B1D1B7891
:10042000012B0FD057DC002B56D15F4B7A6992001D
:10043000D3580133181C00F0D1FF031CDAB23B1D66
:100440005A7049E0584B7A699200D3580133181C0E
:1004500000F0C4FF031CDAB23B1D9A70524B7A695C
:100460009200D3580233181C00F0B8FF031CDAB214
:100470003B1DDA704C4B7A699200D3580333181C39
:1004800000F0ACFF031CDAB23B1D1A71464B7A69CF
:100490009200D3580433181C00F0A0FF031CDAB2FA
:1004A0003B1D5A71404B7A699200D3580533181C92
:1004B00000F094FF031CDAB23B1DDA713A4B7A6903
:1004C0009200D3580633181C00F088FF031CDAB2E0
:1004D0003B1D9A7100E0C046334B7A699200D358B5
:1004E0000833181C00F07AFF031CDAB23B1D5A7265
:1004F0002D4B7A699200D3580933181C00F06EFF17
:10050000031CDAB23B1D1A72274B7A699200D3584A
:100510000A33181C00F062FF031CDAB23B1D9A720A
:100520007B69DBB23A1D101C191C02F009FD7B69C6
:1005300001337B617B69062B00D848E702F03CF968
:1005400009E000237B6102E07B6901337B617A690A
:10055000184B9A42F8D901F099FC031C002BF0D0FB
:10056000154B181CFFF710FE02F004F9054B181C80
:10057000FFF70AFE02F0EAFDFCE7C046BC3D0008BA
:100580003F420F00D03D0008D83D0008F03D000874
:100590000C3E0008283E00084C3E0008683E00085B
:1005A000903E0008B43E0008A03D0008FC3E000854
:1005B0002C3F00083F0D0300303F000880B582B09B
:1005C00000AF7860074B074A126B10218A431A6309
:1005D000044B044A116B7A680A431A63BD4602B0A1
:1005E00080BDC0460010024080B588B000AF786082
:1005F0000023FB610023BB6100237B6100233B617F
:100600000023FB60654B5A680C231340FB61FB69B8
:10061000042B07D0082B09D0002B30D17B68604A0F
:100620001A6030E07B685E4A1A602CE05B4B5A68C7
:10063000F0239B031340BB61584B5A6880235B0235
:1006400013407B61BB699B0C0233BB617B69002B50
:1006500005D1BB69534A5A437B681A6013E04F4B7C
:10066000DA6A0F23134001333B614D48396903F0C7
:1006700041FA031CBA695A437B681A6003E07B683D
:10068000474A1A60C046454B5A68F0231340FB6145
:10069000FB691B09FB61444AFB69D3181B78DBB279
:1006A000FB607B681A68FB68DA407B685A603B4BEA
:1006B0005A68E023DB001340FB61FB691B0AFB6106
:1006C000394AFB69D3181B78DBB2FB607B685A6838
:1006D000FB68DA407B689A60304B1A6B80235B00C2
:1006E000134003D17B68314ADA6010E02B4B5A6823
:1006F0008023DB01134005D17B689B685A087B6827
:10070000DA6004E07B689B689A087B68DA60234BB8
:100710001A6B4023134003D17B68254A1A6103E01A
:100720007B68802212021A611C4B1A6B1023134043
:1007300003D17B681A4A5A6103E07B681A687B68B8
:100740005A61164B1A6B0323134004D17B689A68D5
:100750007B689A611EE0114B1A6B03231340012B37
:1007600004D17B681A687B689A6113E00B4B1A6BA3
:1007700003231340022B04D17B68802212029A616A
:1007800008E0064B1A6B03231340032B02D17B684E
:10079000034A9A61BD4608B080BDC04600100240C1
:1007A00000127A0000093D0000000020809FD50063
:1007B0001280000080B582B000AF78600A1CFB1C7C
:1007C0001A70FB1C1B78002B06D0084B074A516996
:1007D0007A680A435A6106E0044B044A5269796810
:1007E000C9430A405A61BD4602B080BD00100240B4
:1007F00080B582B000AF78600A1CFB1C1A70FB1C2D
:100800001B78002B06D0084B074A91697A680A4387
:100810009A6106E0044B044A92697968C9430A4028
:100820009A61BD4602B080BD0010024080B582B022
:1008300000AF78600A1CFB1C1A70FB1C1B78002B95
:1008400006D0084B074AD1697A680A43DA6106E0A4
:10085000044B044AD2697968C9430A40DA61BD464B
:1008600002B080BD0010024080B500AFBFF34F8FD3
:10087000024B034ADA60BFF34F8FFEE700ED00E062
:100880000400FA0580B582B000AF78607B68013360
:100890001B78782B06D17B680233181C02F09AFF74
:1008A000031C04E07B68181C02F076FF031C181C74
:1008B000BD4602B080BDC04680B594B000AF786040
:1008C0000A1CFB1C1A707B6802337B647B68023352
:1008D000FB6402E0FB6C0133FB64FB6C1B78202B98
:1008E00003D0FB6C1B78002BF4D1FB6C1B78202B06
:1008F00005D1FB6C00221A70FB6C0133FB647B6832
:100900001B78623B182B00D9EDE29A00C54BD31837
:100910001B689F4600233B64FB1C1B78022B26D9D7
:100920007B6C181CFFF7AEFF031CFB63FB6BDBB299
:10093000181C01F029FE031C3B643B6C181C0221AF
:1009400002F0EAFE031CBB63B74B181CFFF71CFC4C
:10095000BB6B181CFFF718FCB44B181CFFF714FCFA
:1009600001F0C0FE031C181CFFF70EFC1BE3B04B8C
:10097000181CFFF709FC16E3FB1C1B78022B31D96E
:100980007B6C181CFFF77EFF021C3B1C37331A7070
:10099000FB6C181CFFF776FF031C3B633B6BDBB261
:1009A0003A1C37321278101C191C01F075FDA14B4E
:1009B000181CFFF7E9FBFB6C181CFFF7E5FB9E4BCF
:1009C000181CFFF7E1FB7B6C181CFFF7DDFB974B56
:1009D000181CFFF7D9FB01F085FE031C181CFFF75C
:1009E000D3FBE0E2954B181CFFF7CEFBDBE2FB1CD0
:1009F0001B78022B1DD97B680233181C02F0CCFE39
:100A0000021C3B1C2F331A703B1C2F331B78181C05
:100A100001F058FE8A4B181CFFF7B6FB01F062FE8E
:100A2000031C181CFFF7B0FB864B181CFFF7ACFB30
:100A3000B9E2854B181CFFF7A7FBB4E20023BB62A9
:100A4000FB1C1B78022B1BD97B6C181CFFF71AFFB1
:100A5000031C7B627B6A181C00F0BCFB031CBB629E
:100A6000BB6A181C082102F057FE031C3B626E4B48
:100A7000181CFFF789FB3B6A181CFFF785FB92E205
:100A8000724B181CFFF780FB8DE2FB1C1B78022BBE
:100A900025D97B6C181CFFF7F5FE031CFB61FB6C72
:100AA000181CFFF7EFFE031CBB61BA69FB69101C41
:100AB000191C00F0A9FB031C002B07D15D4B181C6F
:100AC000FFF762FB7B6C181CFFF75EFB604B181C8A
:100AD000FFF75AFBFB6C181CFFF756FB63E25D4BFC
:100AE000181CFFF751FB5EE2FB1C1B78022B18D988
:100AF0007B6C1B78592B19D17B6C01331B78452BF0
:100B000014D17B6C02331B78532B0FD1002000F0E3
:100B100025FB031C002B09D14F4B181CFFF734FB9E
:100B200041E24E4B181CFFF72FFB3CE23BE2FB1C63
:100B30001B78022B18D97B6C1B78592B19D17B6C35
:100B400001331B78452B14D17B6C02331B78532B5C
:100B50000FD1032000F002FB031C002B09D1404BF6
:100B6000181CFFF711FB1EE23E4B181CFFF70CFB95
:100B700019E218E27B6C1B78592B18D17B6C01337E
:100B80001B78452B13D17B6C02331B78532B0ED172
:100B900002F0CEF9031C002B04D1334B181CFFF7D5
:100BA000F3FA09E0314B181CFFF7EEFA04E0304B82
:100BB000181CFFF7E9FAF6E1F5E1FB1C1B78022BA4
:100BC0001ED97B6C181CFFF75DFE021C3B1C173303
:100BD0001A703B1C17331B78181C00F0BFFA031C5B
:100BE000002B12D1234B181CFFF7CEFA7B6802337F
:100BF000181CFFF7C9FA204B181CFFF7C5FAD2E101
:100C00001E4B181CFFF7C0FACDE1CCE101F010FA41
:100C100001F042FA031C3B613B1C4A3300221A805C
:100C200055E0C046D44A0008044000080C400008C3
:100C300018400008304000083C4000084C400008C4
:100C4000704000087840000884400008C040000858
:100C5000DC400008EC400008144100084041000856
:100C6000504100087C4100088C410008BC4100084C
:100C7000F4410008044200080C4200082042000829
:100C80003B1C4A331B883A69D3181B78181C022175
:100C900002F042FD031CFB60FB68181CFFF774FAAE
:100CA000C24B181CFFF770FA3B1C4A331B880133F8
:100CB0001A1C0F23134003D1BD4B181CFFF764FA15
:100CC0003B1C4A331A883B1C4A3301321A803B1CB6
:100CD0004A331B887F2BD3D965E1B64B181CFFF72D
:100CE00053FAFFF7C1FDFB1C1B78022B21D97B6C4B
:100CF000181CFFF7C7FD021C3B1C0B331A70FB6C62
:100D0000181CFFF7BFFD021C3B1C0A331A703B1C6A
:100D10000B331A783B1C0A331B78101C191C00F08B
:100D200075FB031C002B09D1A34B181CFFF72CFAF1
:100D300039E1A24B181CFFF727FA34E133E1FB1C21
:100D40001B78022B23D97B6C181CFFF79BFD021C20
:100D50003B1C09331A703B1C09331B78002B04D051
:100D60003B1C09331B78072B04D9954B181CFFF744
:100D70000BFA11E03B1C09331B78013BDBB2181C5A
:100D800002F000F98C4B181CFFF7FEF904E08D4BC4
:100D9000181CFFF7F9F906E105E18B4B181CFFF76A
:100DA000F3F98A4B181CFFF7EFF9894B181CFFF772
:100DB000EBF9884B181CFFF7E7F9874B181CFFF776
:100DC000E3F9864B181CFFF7DFF9794B181CFFF786
:100DD000DBF9834B181CFFF7D7F9824B181CFFF780
:100DE000D3F9734B181CFFF7CFF97F4B181CFFF793
:100DF000CBF97E4B181CFFF7C7F97D4B181CFFF78A
:100E0000C3F97C4B181CFFF7BFF97B4B181CFFF78D
:100E1000BBF97A4B181CFFF7B7F9794B181CFFF791
:100E2000B3F9634B181CFFF7AFF9764B181CFFF7AB
:100E3000ABF95F4B181CFFF7A7F9734B181CFFF7B2
:100E4000A3F9724B181CFFF79FF9594B181CFFF7B9
:100E50009BF9574B181CFFF797F96D4B181CFFF7C0
:100E600093F96C4B181CFFF78FF9514B181CFFF7C7
:100E70008BF9694B181CFFF787F9684B181CFFF7B3
:100E800083F9674B181CFFF77FF9664B181CFFF7B7
:100E90007BF9654B181CFFF777F9644B181CFFF7BB
:100EA00073F9634B181CFFF76FF9624B181CFFF7BF
:100EB0006BF9614B181CFFF767F9604B181CFFF7C3
:100EC00063F95F4B181CFFF75FF9394B181CFFF7EC
:100ED0005BF95C4B181CFFF757F964E05A4B181C80
:100EE000FFF752F95FE0594B181CFFF74DF9584BCB
:100EF000181CFFF749F9574B181CFFF745F9564BDB
:100F0000181CFFF741F92A4B181CFFF73DF9534B0A
:100F1000181CFFF739F9524B181CFFF735F9514BE4
:100F2000181CFFF731F9504B181CFFF72DF9204B17
:100F3000181CFFF729F94D4B181CFFF725F94C4BEE
:100F4000181CFFF721F94B4B181CFFF71DF9184B24
:100F5000181CFFF719F9484B181CFFF715F9474BF8
:100F6000181CFFF711F9464B181CFFF70DF9454BFC
:100F7000181CFFF709F9444B181CFFF705F90C4B37
:100F8000181CFFF701F9414B181CFFF7FDF8404B07
:100F9000181CFFF7F9F83F4B181CFFF7F5F83E4B0C
:100FA000181CFFF7F1F8BD4614B080BD38420008A8
:100FB0003C42000840420008544200085C420008DD
:100FC00098420008C0420008E84200080C430008AC
:100FD0001843000890430008DC4300082844000838
:100FE0007C440008944400081C4500083045000873
:100FF00058450008A8450008D0450008F8450008F5
:1010000058460008AC460008104700081C47000876
:101010004047000884470008B0470008BC47000864
:10102000C8470008D4470008E0470008EC4700081C
:10103000F847000808480008184800082448000835
:101040003448000838480008784800087C48000800
:10105000844800089C480008B4480008D0480008AC
:10106000D8480008F8480008144900083449000826
:101070004849000880490008B8490008C8490008E4
:10108000EC490008244A0008604A00088C4A00081D
:10109000944A0008A84A0008BC4A00080C48854643
:1010A000002103E00B4B5B58435004310A480B4BC3
:1010B00042189A42F6D30A4A02E00023136004322F
:1010C000084B9A42F9D300F0D3FAFFF79DF8FEE7F8
:1010D00000100020245000080000002044000020E0
:1010E0004400002008050020FEE7000080B584B021
:1010F00000AF021CFB1D1A700023FB60FB1D1B7858
:10110000012B0BD002DC002B05D010E0022B08D005
:10111000032B09D00BE00A4BFB600CE0094BFB6092
:1011200009E0094BFB6006E0084BFB6003E0084B5D
:10113000181CFFF729F8FB68181CBD4604B080BDD9
:10114000007000080074000800780008007C0008A7
:10115000544B000880B500AFBD4680BD80B584B05B
:1011600000AF021CFB1D1A703B1C0F3300221A70CB
:1011700002F06EF8342002F023F9FB1D1B78181CD6
:10118000FFF7B4FF031C002B14D0FB1D1B78181CA9
:10119000FFF7ACFF031C181C02F07CF8031C042BA7
:1011A0000CD00B4B181CFEF7EFFF3B1C0F3301223A
:1011B0001A7003E03B1C0F3301221A7002F05EF834
:1011C0003B1C0F331B78181CBD4604B080BDC046C5
:1011D000644B000880B582B000AF78607A68074B36
:1011E0009A4201D9064B04E07B68064A9B189B0093
:1011F0001B68181CBD4602B080BDC046FF0300003E
:10120000EFBEADDE001C000280B584B000AF786098
:1012100039603B1C0F3300221A7002F019F8342099
:1012200002F0CEF87B680E4A9B189A003B68101CAF
:10123000191C02F06DF8031C042B07D0094B181C75
:10124000FEF7A2FF3B1C0F3301221A7002F016F8C2
:101250003B1C0F331B78181CBD4604B080BDC04634
:10126000001C00027C4B000890B583B000AF786092
:101270007B689C000320FFF739FF031CE3181B6801
:10128000013301D0012300E00023181CBD4603B048
:1012900090BDC04680B500AF0020FFF727FF031CBC
:1012A0001B68013301D0012300E00023181CBD4658
:1012B00080BDC04690B587B000AFF860B9607A6075
:1012C0003B603B68FF2B00D916E03B689C00002088
:1012D000FFF70CFF031CE3181B687B617B691B0E87
:1012E000DAB2FB681A707B691B0CDAB2BB681A7041
:1012F0007B69DAB27B681A70BD4607B090BDC04604
:1013000080B584B000AF786039600023FB603B1C7F
:101310000B3300221A7001F09BFF342002F050F8CA
:101320000020FFF7E3FE031CFB60FB68181C01F0C4
:10133000B1FF031C042B08D0224B181CFEF724FF1E
:101340003B1C0B3301221A701FE01EE03B681E4A53
:101350009B189B007A68D3181B68FA68101C191C2C
:1013600001F0D6FF031C042B06D1FB680433FB609D
:101370003B68013B3B6008E0144B181CFEF704FF80
:101380003B1C0B3301221A7006E0FA68104B9A429C
:1013900002D83B68002BD9D1FA680E4B9A4207D18C
:1013A0000D4B181CFEF7F0FE3B1C0B3301221A708C
:1013B00001F064FF3B1C0B331B78181CBD4604B0C6
:1013C00080BDC046644B0008FFFFFF3F7C4B000818
:1013D000FF7F0008008000088C4B000890B583B0A8
:1013E00000AF78607B68FF2B01D9074B07E07B6873
:1013F0009C000320FFF77AFE031CE3181B68181CEF
:10140000BD4603B090BDC046EFBEADDE90B585B021
:1014100000AF786039603B1C0F3300221A7001F076
:1014200017FF342001F0CCFF7B689C000320FFF7FE
:101430005DFE031CE2183B68101C191C01F068FFDC
:10144000031C042B07D0084B181CFEF79DFE3B1C09
:101450000F3301221A7001F011FF3B1C0F331B7870
:10146000181CBD4605B090BD7C4B000880B584B00B
:1014700000AF786039600023FB607B681B68012245
:10148000191C91430A1C7B681A607B681B68FB600F
:10149000FA68274B1340FB603B685A683B689B68BF
:1014A0001B021343FA681343FB607B68FA681A60F7
:1014B0003B681A681F4B1A407B681A617B681B687F
:1014C00001221A437B681A600023FB607B68FA687C
:1014D0009A607B68FA68DA603B689A693B681B69C6
:1014E0001343FB607B68FA689A607B689B68802284
:1014F00012021A437B689A603B68DB68FB607B687A
:101500001A68FB681A437B681A607B685B68FB603B
:10151000FA68094B1340FB603B685B69FA68134348
:10152000FB607B68FA685A60BD4604B080BDC04667
:10153000FFE0CF00FFFFFFF0FF7FFF0780B582B025
:1015400000AF78600A1CFB1C1A70FB1C1B78002B78
:1015500006D07B681B6801221A437B681A6007E08B
:101560007B681B680122191C91430A1C7B681A6066
:10157000BD4602B080BDC04680B586B000AFF86001
:101580007B603B1C0A3319803B1C09331A70002313
:101590007B61FB685B687B617A690E4B13407B6102
:1015A0003B1C0A331B889B059A0D3B1C09331B7897
:1015B0001904FF231B040B401A437B681A433B6A40
:1015C00013437A6913437B61FB687A695A60BD46AD
:1015D00006B080BD009800FC80B582B000AF786096
:1015E0000A1CFB1C1A70FB1C1A787B689A62BD46A9
:1015F00002B080BD80B582B000AF78607B685B6A66
:10160000DBB2181CBD4602B080BDC04680B584B0B8
:1016100000AF786039600023BB603B1C0F330022B1
:101620001A707B689B69BB60BB683A681340BB60FB
:10163000BB68002B04D03B1C0F3301221A7003E05F
:101640003B1C0F3300221A703B1C0F331B78181CF5
:10165000BD4604B080BDC04680B582B000AF7860A2
:1016600039607B683A68DA61BD4602B080BDC04629
:1016700080B500AF1B4B1B4A126801210A431A6058
:10168000184B184A5168184A0A405A60154B154AB7
:101690001168164A0A401A60124B124A1168144A1D
:1016A0000A401A600F4B0F4A5168124A0A405A60AA
:1016B0000C4B0C4AD26A0F218A43DA62094B094A61
:1016C000116B0D4A0A401A63064B064A526B012100
:1016D0008A435A63034B00229A6000F00FF8BD461C
:1016E00080BDC046001002400CB8FF08FFFFF6FEA8
:1016F000FFFFFBFFFFFFC0FFACFEFFFF80B582B026
:1017000000AF00237B6000233B60314B304A1268FE
:10171000802149020A431A602D4B1A6880239B02DC
:1017200013403B607B6801337B603B68002B04D136
:101730007A68A023DB019A42EED1254B1A688023F8
:101740009B02134002D001233B6001E000233B6079
:101750003B68012B38D11F4B11221A601C4B1C4ACD
:1017600052685A601A4B1A4A52685A60184B184A03
:101770005168194A0A405A60154B154A5268882127
:1017800049030A435A60124B114A126880214904E6
:101790000A431A60C0460E4B1A6880239B0413400C
:1017A000F9D00B4B0A4A526803218A435A60084B0E
:1017B000074A526802210A435A60C046044B5A68DD
:1017C0000C231340082BF9D1BD4602B080BDC046A2
:1017D0000010024000200240FFFFC0FF90B583B020
:1017E00000AF202001F0BEFE031C002B6DD00120B5
:1017F00000F068FFFC1D962000F0C6FE031C23705D
:10180000FB1D1B78181C022101F086FF031C3B60A6
:101810002F4B181CFEF7B8FC3B68181CFEF7B4FCF5
:101820002C4B181CFEF7B0FCFB1D1B785BB2002B89
:1018300012DA422000F0A8FE031C1A1C40231340B9
:1018400006D0254B181CFEF79FFC00F03BFB03E085
:10185000224B181CFEF798FCFB1D1A7840231340FE
:1018600003D01F4B181CFEF78FFCFB1D1A7820239A
:10187000134003D01B4B181CFEF786FCFB1D1A7887
:101880000423134003D0184B181CFEF77DFCC8201E
:1018900000F07AFE031C1A1CF02313400CD0C82061
:1018A00000F072FE031C1B09DBB21A1C0F4B9200E6
:1018B000D358181CFEF768FCFB1D1B789620191CDA
:1018C00000F0EAFD202001F06DFEBD4603B090BDA2
:1018D000684C0008784C00087C4C0008A04C0008BC
:1018E000B44C0008D04C0008E44C00081000002064
:1018F00098B500AFFEF76AFC031C002B3DD0204BCF
:101900001B781C1CFEF772FC031C1A1C1D4B1A557D
:101910001B4B1B781B4AD35C181CFEF719FC184B99
:101920001B78184AD35C0D2B21D1154B1B78154A17
:101930000021D1540A20FEF70BFC114B1B78114AF1
:10194000101C191CFEF7B8FF0D20FEF701FC0A2041
:10195000FEF7FEFB0A20FEF7FBFB0A4B181C0021DA
:10196000202201F06FFF064B00221A7005E0044BA5
:101970001B780133DAB2024B1A70BD4698BDC046DF
:10198000980000207800002080B586B000AF0120CC
:101990000121FEF72DFF3B1D20221A603B1D002276
:1019A0001A713B1D00229A713B1D0122DA713B1D09
:1019B00000225A719023DA053B1D101C191C00F0FF
:1019C00041F80020052101F0F9FD3B1C10332022D5
:1019D0001A603B1C103300221A713B1C10330C227E
:1019E0005A713B1C103301229A713B1C1033181C96
:1019F00001F04CFD3B1C0C3307221A703B1C0C33CE
:101A000000225A703B1C0C3301229A703B1C0C3391
:101A1000181C02F019F8BD4606B080BD80B582B032
:101A200000AF3B1D1B221A703B1D00225A703B1D4C
:101A300001229A703B1D181C02F006F8BD4602B048
:101A400080BDC04680B586B000AF786039600023A5
:101A50007B6100233B610023FB6000237B6185E009
:101A60007B690122101C9840031C3B613B681B688A
:101A70003A691340FB60FA683B699A4273D13B684C
:101A80001B79012B03D03B681B79022B38D17B6873
:101A90009B687A6952000321081C9040021CD243C3
:101AA0001A407B689A607B689A683B685B79191C6E
:101AB0007B695B00081C9840031C1A437B689A6092
:101AC0007B689B889BB27A6992B20121081C904086
:101AD000021C92B2D24392B213409AB27B689A80AF
:101AE0007B689B889AB23B689B79191C7B699BB287
:101AF000081C9840031C9BB213439AB27B689A80DF
:101B00007B681B687A6952000321081C9040021C04
:101B1000D2431A407B681A607B681A683B681B795D
:101B2000191C7B695B00081C9840031C1A437B68E6
:101B30001A607B68DB687A6992B252000321081C44
:101B40009040021CD2431A407B68DA607B68DA68F6
:101B50003B68DB79191C7B695B00081C9840031CFF
:101B60001A437B68DA607B6901337B617B690F2BE9
:101B700000D875E7BD4606B080BDC04680B584B0CC
:101B800000AF78600A1CBB1C1A803B1C0F3300227C
:101B90001A707B681B8A9BB2BA1C128813409BB2D6
:101BA000002B04D03B1C0F3301221A7003E03B1CB6
:101BB0000F3300221A703B1C0F331B78181CBD46D4
:101BC00004B080BD80B584B000AF78600A1CBB1C37
:101BD0001A803B1C0F3300221A707B689B8A9BB2D1
:101BE000BA1C128813409BB2002B04D03B1C0F334D
:101BF00001221A7003E03B1C0F3300221A703B1CB9
:101C00000F331B78181CBD4604B080BD80B582B070
:101C100000AF78600A1CBB1C1A80BB1C1A887B684A
:101C20009A61BD4602B080BD80B582B000AF7860D9
:101C30000A1CBB1C1A807B68BA1C12881A85BD4618
:101C400002B080BD90B585B000AF7860BB1C198034
:101C50007B1C1A700023FB600023BB607B1C1A787E
:101C6000BB1C198807230B409B00111C99400B1CBF
:101C7000FB60BB1C1B88DB089BB21A1CBB1C1B88AF
:101C8000DB089BB2191C7B6808318900CB58B91C52
:101C900008880721014089000F20041C8C40211C6A
:101CA000C94319407B6808329200D150BB1C1B8885
:101CB000DB089BB21A1C7B6808329200D258FB6882
:101CC0001343BB60BB1C1B88DB089BB21A1C7B68E0
:101CD00008329200B968D150BD4605B090BDC046EB
:101CE00080B582B000AF021CFB1D1A70002000F00E
:101CF000E9FCFB1D1B78002B00D0C4E00020012173
:101D000000F0CAFB0120382100F0C6FB0220C021F0
:101D100000F0C2FB0320182100F0BEFB0420782154
:101D200000F0BAFB0520002100F0B6FB0620802160
:101D300000F0B2FB0720002100F0AEFB082080215C
:101D400000F0AAFB0920002100F0A6FB0A20802158
:101D500000F0A2FB0B20002100F09EFB0C20802154
:101D600000F09AFB0D20002100F096FB0E20802150
:101D700000F092FB0F20002100F08EFB102080214C
:101D800000F08AFB1120202100F086FB12200021A8
:101D900000F082FB1320202100F07EFB14200421A0
:101DA00000F07AFB15200A2100F076FB16200621B0
:101DB00000F072FB1720062100F06EFB18200021B6
:101DC00000F06AFB1920082100F066FB1A200021B0
:101DD00000F062FB1B20FF2100F05EFB1C20FF21B6
:101DE00000F05AFB1D20782100F056FB1E20342104
:101DF00000F052FB1F20902100F04EFB2020072115
:101E000000F04AFB2120202100F046FB2220322155
:101E100000F042FB2320142100F03EFB2420082187
:101E200000F03AFB25207F2100F036FB2620102110
:101E300000F032FB2720702100F02EFB2820BF216C
:101E400000F02AFB2920022100F026FB2A20002195
:101E500000F022FB2B20002100F01EFB2C20002193
:101E600000F01AFB2D20082100F016FB2E20202167
:101E700000F012FB3620012100F00EFB3C200E2169
:101E800000F00AFBC046BD4602B080BD80B500AF81
:101E9000002000F017FC242000F076FB031C7F22BA
:101EA0009343DBB2181CBD4680BDC04680B500AF71
:101EB000012000F007FC9620FF2100F0EDFABD465E
:101EC00080BDC04680B500AF012000F0FBFB0120C3
:101ED000002100F0E1FA0220182100F0DDFA0320D1
:101EE000002100F0D9FA1520002100F0D5FA1620C3
:101EF000002100F0D1FA1820082100F0CDFA30209E
:101F0000042100F0C9FA3120032100F0C5FA322083
:101F1000E02100F0C1FA3320242100F0BDFA342082
:101F2000062100F0B9FA3520402100F0B5FA36203C
:101F3000D92100F0B1FA37200A2100F0ADFA38209B
:101F4000002100F0A9FA39202D2100F0A5FA3A204D
:101F5000002100F0A1FA3B20402100F09DFA3C2036
:101F6000042100F099FA4020802100F095FA4120E8
:101F7000102100F091FA4920A82100F08DFA552097
:101F8000002100F089FA5620082100F085FA9620F9
:101F9000202100F081FA9820032100F07DFA992099
:101FA000022100F079FA9C20302100F075FA9D2082
:101FB000612100F071FAA220A42100F06DFAA320A3
:101FC000A42100F069FAA520442100F065FAAB20B5
:101FD000402100F061FAAF20142100F05DFABA2030
:101FE000A02100F059FADE209C2100F055FAE420EF
:101FF000602100F051FAFA207D2100F04DFA4820CE
:10200000002100F049FA5520102100F045FA562031
:10201000002100F041FA16203021302200F02EFB82
:1020200017200021012200F029FBBD4680BDC046DB
:1020300090B583B000AF022000F044FBBB1D00222E
:102040001A801EE0BB1D1C88BB1D1B88DBB2181C40
:1020500000F09AFA031C1A1C0D4B1A55BB1D0022E6
:102060001A8004E0BB1D1A88BB1D01321A80BB1DFB
:102070001A88084B9A42F5D9BB1D1A88BB1D01323C
:102080001A80BB1D1B887F2BDCD9BD4603B090BDD9
:102090009C0000200F27000080B500AF014B181CEA
:1020A000BD4680BD9C00002080B58CB000AF78603C
:1020B00039600023FB620023BB6200237B627B68E4
:1020C0001B680122191C91430A1C7B681A607B68FB
:1020D0005B687B627A6A474B13407B623B689B6814
:1020E0007A6A13437B627B687A6A5A607B681B68F2
:1020F0007B627A6A404B13407B623B685A683B685C
:10210000DB681A433B681B6913437A6A13437B629B
:102110007B687A6A1A607B689B687B627A6A374B55
:1021200013407B623B685B697A6A13437B627B681E
:102130007A6A9A603B1C0833181CFEF755FA7A68D5
:102140002F4B9A4204D13B1C08339B69BB6203E0CE
:102150003B1C08339B68BB627B681A6880231B02A8
:10216000134014D0BB6A5A003B681B68101C191C32
:1021700001F0C0FC031CFB62BB6A5A003B681B6891
:10218000101C191C01F0FAFC0B1C7B6210E03B6870
:102190001B68B86A191C01F0ADFC031CFB623B68AC
:1021A0001B68BA6A101C191C01F0E8FC0B1C7B624E
:1021B0003B681B685A087B6A9A4202D8FB6A013363
:1021C000FB627B681A6880231B0213400AD0FA6AFC
:1021D0000F2313405B087B62FA6A0A4B1A407B6A42
:1021E0001343FB62FB6A9AB27B689A81BD460CB0CE
:1021F00080BDC046FFCFFFFFF3E9FFFFFFFCFFFFFD
:1022000000380140F0FF000080B582B000AF786078
:102210000A1CFB1C1A70FB1C1B78002B06D07B6869
:102220001B6801221A437B681A6007E07B681B6801
:102230000122191C91430A1C7B681A60BD4602B03A
:1022400080BDC04680B582B000AF78600A1CBB1C60
:102250001A80BB1C1B88DB05DB0D9AB27B681A85D4
:10226000BD4602B080BDC04680B582B000AF786088
:102270007B689B8C9BB2DB05DB0D9BB2181CBD46BB
:1022800002B080BD80B588B000AFF860B960FB1DBA
:102290001A700023BB6100237B6100233B61002394
:1022A000FB61FB68FB61BB689BB21B0A9BB2BB6115
:1022B000BA68FF2313407B617B690122111C99409E
:1022C0000B1C3B61BB69022B03D1FB690433FB612F
:1022D00005E0BB69032B02D1FB690833FB61FB1DE1
:1022E0001B78002B06D0FB69FA6911683A690A432A
:1022F0001A6006E0FB69FA6912683969C9430A4045
:102300001A60BD4608B080BD80B584B000AF78606B
:1023100039603B1C0F3300221A707B68DB693A6816
:10232000134004D03B1C0F3301221A7003E03B1C06
:102330000F3300221A703B1C0F331B78181CBD464C
:1023400004B080BD80B586B000AF786039600023EE
:10235000FB6000237B610023BB603B1C1333002226
:102360001A703B689BB21B0A9BB2BB603A68FF23A2
:1023700013407B617B690122111C99400B1C7B611E
:10238000BB68012B05D17B681A687B6913407B61B0
:102390000DE0BB68022B05D17B685A687B6913404E
:1023A0007B6104E07B689A687B6913407B613B68D2
:1023B0001B0CFB60FB680122111C99400B1CFB608D
:1023C0007B68DA69FB681340FB607B69002B07D0F0
:1023D000FB68002B04D03B1C133301221A7003E06E
:1023E0003B1C133300221A703B1C13331B78181C40
:1023F000BD4606B080BDC04680B582B000AF021CAD
:10240000FB1D1A70FB1D1B78012B05D0022B05D07C
:10241000002B05D1982304E0722302E07E2300E024
:102420009823181CBD4602B080BDC04680B588B058
:1024300000AF80239B03181C0121FEF7F7F9002051
:10244000FEF7BCF801F02CFA3B1D00225A603B1D40
:1024500000229A603B1D10221A613B1D0022DA60A7
:102460003B1D00225A613B1D094A1A603B1D002298
:102470009A61084A3B1D101C191CFEF7F7FF054B1B
:10248000181C0121FFF75AF8BD4608B080BDC046B0
:10249000090332100054004080B584B002AF0A1C1A
:1024A000FB1D011C1970BB1D1A70C046344A8023E5
:1024B0001B02101C191CFFF7A9F8031C012BF5D0F7
:1024C000304B1B78181CFFF797FF031C01339AB29F
:1024D0002B4980235B04802080010090081C111C84
:1024E0000122FFF749F8C046254B181C0221FFF7CF
:1024F0008DF8031C002BF7D0214AFB1D1B78101C04
:10250000191CFFF769F8C0461D4B181C8021FFF706
:102510007DF8031C002BF7D01A4B1B78181CFFF713
:102520006BFF031C01339AB2154980239B040020E2
:102530000090081C111C0122FFF71EF8C046104B2A
:10254000181C0221FFF762F8031C002BF7D00C4A7D
:10255000BB1D1B78101C191CFFF73EF8C046084B2A
:10256000181C2021FFF752F8031C002BF7D0044B56
:10257000181C2021FFF770F8BD4602B080BDC04690
:10258000005400404400002090B587B002AF021C08
:10259000FB1D1A703B1C0F3300221A70C046354ACF
:1025A00080231B02101C191CFFF730F8031C012BA1
:1025B000F5D0314B1B78181CFFF71EFF031C2D4A6A
:1025C000802189010091101C191C01220023FEF7B3
:1025D000D3FFC046274B181C0221FFF717F8031C36
:1025E000002BF7D0234AFB1D1B78101C191CFEF78B
:1025F000F3FFC0461F4B181C4021FFF707F8031CD0
:10260000002BF7D01C4B1B78181CFFF7F5FE031CA2
:102610001A1C184980239B04902080010090081CFC
:10262000111C0122FEF7A8FFC046124B181C042102
:10263000FEF7ECFF031C002BF7D03C1C0F340D4BB6
:10264000181CFEF7D7FF031C2370C046094B181C4B
:102650002021FEF7DBFF031C002BF7D0054B181CD5
:102660002021FEF7F9FF3B1C0F331B78181CBD46D9
:1026700005B090BD005400404400002080B582B0F9
:1026800000AFFB1D1870BB1D19707B1D1A70FB1D60
:102690001B78181CFFF778FF031CDBB2BA1D1278F9
:1026A000D243D2B21340DAB27B1D1B781343DBB2A4
:1026B000DBB2FA1D1278101C191CFFF7EDFEBD46A7
:1026C00002B080BD80B582B000AF021CFB1D1A7045
:1026D000034BFA1D12781A70BD4602B080BDC04689
:1026E0004400002080B500AF044B1B781A1C044B3B
:1026F0009200D358181CBD4680BDC046440000203F
:102700003000002080B582B000AF184B181C20218B
:10271000FFF77CFA00237B6002E07B6801337B607B
:102720007A68134B9A42F8D9104B181C2021FFF7F6
:102730007BFA00237B6002E07B6801337B607A6870
:102740000B4B9A42F8D9094B181C2021FFF75EFA6F
:1027500000237B6002E07B6801337B607A68044B76
:102760009A42F8D9BD4602B080BDC0460004004878
:10277000E703000080B500AF9023DA0580231B0239
:10278000101C191CFFF742FA0A4B181C0821FFF70E
:102790003DFA084B181C1021FFF738FAFFF7B2FF7B
:1027A0009023DA0580235B00101C191CFFF72EFA1A
:1027B000BD4680BD0004004880B500AF9023DA0517
:1027C00080231B02101C191CFFF72EFA064B181C45
:1027D0000821FFF729FA044B181C1021FFF724FAEF
:1027E000FFF790FFBD4680BD0004004880B500AFF4
:1027F0009023DA0580231B02101C191CFFF714FA22
:10280000064B181C0821FFF70FFA044B181C102167
:10281000FFF7FCF9FFF776FFBD4680BD00040048D6
:1028200080B500AF9023DA0580231B02101C191C11
:10283000FFF7FAF9064B181C0821FFF7E7F9044BDC
:10284000181C1021FFF7E2F9FFF75CFFBD4680BDC1
:102850000004004880B500AF9023DA0580231B02F6
:10286000101C191CFFF7E0F9064B181C0821FFF794
:10287000CDF9044B181C1021FFF7D6F9FFF742FFE2
:10288000BD4680BD0004004880B500AF9023DA0546
:1028900080231B02101C191CFFF7B8F9064B181CEB
:1028A0000821FFF7B3F9044B181C1021FFF7BCF9FE
:1028B000FFF728FFBD4680BD0004004880B500AF8B
:1028C000BFF34F8F024B034ADA60BFF34F8FFEE72F
:1028D00000ED00E00400FA0590B585B000AF0023DC
:1028E000FB600023BB6000237B60FB1C00221A708E
:1028F0000020FFF7E7FEBB1C00221A700023FB60DC
:102900002BE000237B607B1C3949FA688A18127817
:102910001A703C1C7B1C1B78181CFFF735FE031C2F
:102920002370BB1C1B781B067A6813437B607B1CDF
:102930001B781B047A6813437B603B1C1B787A6806
:1029400013437B602B4BBA6892007968D150BB6807
:102950000133BB60FB680133FB60FB682A2BD0D9D5
:102960000120FFF7AFFEBB1C01221A700023FB60A1
:102970002BE000237B607B1C1F49FA688A181278C1
:102980001A703C1C7B1C1B78181CFFF7FDFD031CF8
:102990002370BB1C1B781B067A6813437B607B1C6F
:1029A0001B781B047A6813437B603B1C1B787A6896
:1029B00013437B600F4BBA6892007968D150BB68B3
:1029C0000133BB60FB680133FB60FB68982BD0D9F7
:1029D000FC1C084ABB68101C191CFEF791FC031C68
:1029E0002370FB1C1B78181CBD4605B090BDC0466B
:1029F000484F0008F0010020AC4E000880B582B0BE
:102A000000AF021CFB1D1A70FB1D1B78012B0BD0A5
:102A100002DC002B05D010E0022B08D0032B09D0DC
:102A20000BE0FFF7E3FE08E0FFF7FAFE05E0FFF733
:102A300011FF02E0FFF728FFC046BD4602B080BD8F
:102A400080B584B000AF9A4B1B781A1C9949131CAF
:102A50009B009B185B009B185B5C012B19D002DC70
:102A6000002B07D0E0E0022B00D1CBE0032B00D1FC
:102A7000D7E0D9E08E4B1B781A1C8E49131C9B00A3
:102A80009B185B009B18CB185B78181CFFF7B6FFF0
:102A9000CAE03B1C0E3300221A80854B1B781A1C9F
:102AA0008449131C9B009B185B009B18CB189B78D8
:102AB000181CFFF707FE7E4B1B781A1C7D49131C60
:102AC0009B009B185B009B18CB18DB78002B18D061
:102AD000774B1B781A1C7749131C9B009B185B00D3
:102AE0009B18CB181B79181CFFF74EFD031C1B020B
:102AF0009AB23B1C0E331B8813439AB23B1C0E3315
:102B00001A806B4B1B781A1C6A49131C9B009B187C
:102B10005B009B18CB185B79181CFFF735FD031C75
:102B2000191C3B1C0E333A1C0E3212880A431A80C1
:102B30005F4B1B781A1C5F49131C9B009B185B00A2
:102B40009B18CB18DB79002B13D0594B1B781A1C20
:102B50005849131C9B009B185B009B18CB189B7952
:102B6000191C3B1C0E333A1C0E3212888A181A802C
:102B700012E04F4B1B781A1C4E49131C9B009B18EC
:102B80005B009B18CB189B791A1C3B1C0E33391C1D
:102B90000E3109888A1A1A80454B1B781A1C454940
:102BA000131C9B009B185B009B18CB18DB78002B39
:102BB00014D03F4B1B781A1C3E49131C9B009B18DA
:102BC0005B009B18CB181A793B1C0E331B881B0A21
:102BD0009BB2DBB2101C191CFFF75EFC344B1B7858
:102BE0001A1C3449131C9B009B185B009B18CB18C4
:102BF0005A793B1C0E331B88DBB2101C191CFFF7E3
:102C00004BFC11E000F094F9031C002B04D12A4B7B
:102C1000181CFDF7B9FA07E0284B181CFDF7B4FAA9
:102C200002E0FFF74BFEC0469023DA0580235B00ED
:102C3000101C191CFEF7C6FF031C002B1AD0902392
:102C4000DA0580235B00101C191CFEF7EDFF002342
:102C5000BB6002E0BB680133BB60BA68184B9A42A4
:102C6000F8D99023DA0580235B00101C191CFEF7AD
:102C7000CDFF19E09023DA0580235B00101C191C9E
:102C8000FEF7C4FF00237B6002E07B6801337B60BA
:102C90007A680B4B9A42F8D99023DA0580235B00BF
:102CA000101C191CFEF7C0FFBD4604B080BDC04615
:102CB00001050020A0010020904F0008C44F00082B
:102CC0003F9C000080B500AF084B1B781A1C0849D8
:102CD000131C9B009B185B009B18CB1808335B7878
:102CE000002B01D0FFF7ACFEBD4680BD01050020E2
:102CF000A001002080B500AF084B1B781A1C0849C2
:102D0000131C9B009B185B009B18CB1808331B7887
:102D1000002B01D0FFF794FEBD4680BD01050020C9
:102D2000A001002080B500AF9023DB05181C012115
:102D3000FEF724FF031C002B01D1002341E0902368
:102D4000DB05181C0221FEF719FF031C002B01D123
:102D5000012336E09023DB05181C0421FEF70EFF4B
:102D6000031C002B01D102232BE09023DB05181C50
:102D70000821FEF703FF031C002B01D1032320E0F1
:102D80009023DB05181C4021FEF7F8FE031C002BE6
:102D900001D1042315E09023DB05181C8021FEF7E8
:102DA000EDFE031C002B01D105230AE0064B181C85
:102DB0000121FEF7E3FE031C002B01D1062300E0F6
:102DC0000723181CBD4680BD0004004880B500AF35
:102DD000544B00221A70544B00221A60534B0022AD
:102DE0001A70524B00225A70504B01221A724F4BEC
:102DF00001225A724D4B01229A724C4B0022DA7218
:102E00004A4B01221A73494B0122DA74474B0122C3
:102E10001A75464B01225A75444B00229A75434B52
:102E20000222DA75414B01229A77404B0122DA7770
:102E30003E4A20230121D1543C4A21230021D15470
:102E40003A4A22230321D154384A29230121D1545B
:102E5000364A2A230121D154344A2B230121D1544B
:102E6000324A2C230121D154304A2E230121D1543E
:102E70002E4A2F230121D1542C4A30233721D154FB
:102E80002A4A31233821D154284A32230821D154E7
:102E9000264A33230121D154244A34230121D15419
:102EA000224A35230121D154204A36230121D1540D
:102EB0001E4A37230121D1541C4A39230121D15400
:102EC0001A4A3A230121D154184A3B233721D154BD
:102ED000164A3C233821D154144A3D230821D154A9
:102EE000124A3E230021D154104A3F230121D154DC
:102EF0000E4A40230121D1540C4A41230121D154CF
:102F00000A4A42230221D154084A4A230121D154BA
:102F1000064A4B230021D154044A4C230021D154AA
:102F2000BD4680BD0005002004050020A001002052
:102F300080B500AFFFF7D0FC031C181CBD4680BD58
:102F400080B582B000AF78600A1CFB1C1A70FB1CB5
:102F50001B78062B00D90FE0FB1C1A780849131CBC
:102F60009B009B185B009B187A68C9180B23081CF0
:102F7000111C1A1C00F06EFEBD4602B080BDC0469A
:102F8000A001002080B5424FBD4400AF021C414B60
:102F90008220C000C019C3181A7000233E49C91905
:102FA0000B6017E03C4AD2191368181CFEF716FA9A
:102FB000011C3A4B8220C000C019C3183648C01902
:102FC00002689200D1503449C9190B680133324A62
:102FD000D21913603048C0190368FF2BE2D90320CF
:102FE000FEF7BCF800232C49C9190B6018E0294BE7
:102FF0008222D200D219D3181A78294B9200D258C3
:10300000264B8220C000C019C318920001214942FA
:10301000D1502149C9190B6801331F4AD2191360D5
:103020001D48C01903680F2BE1D900231A49C9199B
:103030000B6023E0194B8222D200D219D318164814
:10304000C01902689200D358013310D0134B82216B
:10305000C900C919CB181048C01902689200D3588A
:103060000D49C9190A68101C191CFEF7CFF90A4A44
:10307000D219136801330848C01903600649C919F9
:103080000B68FF2BD6D9BD468223DB009D4480BD53
:10309000F0FBFFFFF7FBFFFF0C040000FCFBFFFF52
:1030A000744F000880B500AF9023DB05181C012188
:1030B000FEF764FD031C012B01D1002341E09023A6
:1030C000DB05181C0221FEF759FD031C012B01D161
:1030D000002336E09023DB05181C0421FEF74EFD8B
:1030E000031C012B01D100232BE09023DB05181CCE
:1030F0000821FEF743FD031C012B01D1002320E032
:103100009023DB05181C4021FEF738FD031C012B22
:1031100001D1002315E09023DB05181C8021FEF768
:103120002DFD031C012B01D100230AE0064B181CC6
:103130000121FEF723FD031C012B01D1002300E038
:103140000123181CBD4680BD0004004880B582B034
:1031500000AF00237B60374B1B78042B67D89A00A5
:10316000354BD3181B689F46324B01221A705EE024
:10317000FFF7D8FD031C1A1C304B1A702F4B1B781D
:10318000072B03D02B4B02221A7050E04FE02C4B40
:103190001B685A1C2A4B1A60294B1A68294B9A4201
:1031A00002D9244B04221A70FFF7BCFD031C072B25
:1031B00003D1204B03221A7039E038E0FFF79AFD63
:1031C000FFF7B0FD031C072B0DD01C4B1B781A1CFE
:1031D0001D49131C9B009B185B009B18CB180833E0
:1031E0009B78002B05D1134B01221A70144B00223F
:1031F0001A6000237B6002E07B6801337B607A68A1
:10320000124B9A42F8D912E00D4B1A68FA239B0030
:103210009A4203D8074B01221A7004E0FFF752FDCF
:10322000044B01221A70064B00221A60C046BD46AC
:1032300002B080BD00050020FC4F00080105002001
:10324000040500202F750000A00100201F4E000083
:1032500080B500AF064B1A698023134005D0044B9C
:10326000044A5A60024B044A5A60BD4680BDC046BB
:103270000020024023016745AB89EFCD80B500AF48
:10328000034B034A126980210A431A61BD4680BD7F
:103290000020024090B585B000AF78603B1C0F3332
:1032A00004221A703C1C0F34B0231B03181C00F0BE
:1032B000BFF8031C23703B1C0F331B78042B1DD15C
:1032C000124B124A126902210A431A610F4B7A68A3
:1032D0005A610E4B0D4A126940210A431A613C1C87
:1032E0000F34B0231B03181C00F0A2F8031C23703A
:1032F000064B064A126902218A431A613B1C0F33AE
:103300001B78181CBD4605B090BDC0460020024089
:1033100090B585B000AF786039603B1C0F33042254
:103320001A700023BB603C1C0F34B0231B03181C15
:1033300000F07EF8031C23703B1C0F331B78042B1A
:1033400035D11E4B1D4A126901210A431A617B685F
:103350003A6892B21A803C1C0F34B0231B03181C2D
:1033600000F066F8031C23703B1C0F331B78042B02
:1033700017D17B680233BB60BB683A68120C92B20B
:103380001A803C1C0F34B0231B03181C00F050F8AB
:10339000031C2370094B094A126901218A431A61EF
:1033A00005E0064B054A126901218A431A613B1C5C
:1033B0000F331B78181CBD4605B090BD002002409D
:1033C00080B582B000AF7860024B7A68DA60BD46A3
:1033D00002B080BD0020024080B582B000AFFB1D6E
:1033E00004221A70114BDA680123134003D0FB1D2D
:1033F00001221A7014E00D4BDA681023134003D039
:10340000FB1D02221A700BE0084BDA6804231340FC
:1034100003D0FB1D03221A7002E0FB1D04221A7068
:10342000FB1D1B78181CBD4602B080BD0020024069
:1034300090B585B000AF78603B1C0F3304221A7042
:103440003C1C0F34FFF7C8FF031C237008E03C1C32
:103450000F34FFF7C1FF031C23707B68013B7B60C7
:103460003B1C0F331B78012B02D17B68002BEED164
:103470007B68002B03D13B1C0F3305221A703B1CC9
:103480000F331B78181CBD4605B090BD80B584B0C5
:1034900000AF78600023FB60314BFB607B689B7959
:1034A000002B4DD02E4B2E4A11687A681268D243F9
:1034B0000A401A602A4B2A4A51687A681268D24335
:1034C0000A405A607B681B79FA68D318FB60FB6876
:1034D000FA6811687A6812680A431A60204B204A19
:1034E00091687A681268D2430A409A601C4B1C4A61
:1034F000D1687A681268D2430A40DA607B685B79E7
:10350000102B0ED1164B164A91687A6812680A433E
:103510009A60134B124AD1687A6812680A43DA60DB
:103520001BE00F4BFB607B685B79FA68D318FB608C
:10353000FB68FA6811687A6812680A431A600CE03E
:103540007B681B79FA68D318FB60FB68FA6811681E
:103550007A681268D2430A401A60BD4604B080BD42
:103560000004014080B584B000AF78603B1C0F338D
:1035700000221A700A4B5B697A68134004D03B1C26
:103580000F3301221A7003E03B1C0F3300221A7024
:103590003B1C0F331B78181CBD4604B080BDC046D1
:1035A0000004014080B582B000AF7860024B7A68B9
:1035B0005A61BD4602B080BD00040140B0B584B080
:1035C00000AF0A1CFB1D011C1970BB1D1A700023E3
:1035D000FB60BB1D1A78032313409B000F22111CB4
:1035E00099400B1CFB60184BBA1D12789208D2B29E
:1035F0001549B81D00788008C0B2023080004158DB
:10360000F868C043014002329200D1500E4BBA1DFF
:1036100012789208D2B20C49B81D00788008C0B266
:10362000023080004058F91D0C78B91D0D78032137
:1036300029408900251C8D40291C0143023292003B
:10364000D150BD4604B0B0BD0000014080B584B08B
:1036500000AF78600A1CFB1C1A700023FB6005E0B9
:10366000FB680133FB607B6801337B607B681B7800
:10367000FA1C12789A42F3D1FB68181CBD4604B0BC
:1036800080BDC04680B584B000AF7860214BFB6040
:103690007B68002B19DBFB68013BFB607B68181C17
:1036A0000A2100F0CBFA0B1CDBB23033DAB2FB6834
:1036B0001A707B68181C0A2100F06AFA031C7B60F0
:1036C0007B68002BE7D1FB681FE0FB68013BFB60D8
:1036D0007B68181C0A2100F0B1FA0B1CDBB2302207
:1036E000D31ADAB2FB681A707B68181C0A2100F042
:1036F0004FFA031C7B607B68002BE6D1FB68013B23
:10370000FB60FB682D221A70FB68181CBD4604B0D4
:1037100080BDC0465C00002080B584B000AF7860FA
:1037200039601B4BBB60BB680433BB60BB680022C5
:103730001A703B1C0F333A681A7013E0BB68013BE8
:10374000BB607A680F231340124AD25CBB681A70C0
:103750007B681B117B603B1C0F333A1C0F321278C5
:10376000013A1A703B1C0F331B78002BE6D1BB6863
:10377000013BBB60BB6878221A70BB68013BBB6031
:10378000BB6830221A70BB68181CBD4604B080BDEF
:10379000740000201050000880B584B000AF78603D
:1037A0000023FB600CE0FB68DA00FB685B00D218CA
:1037B0007B681B78D318303BFB607B6801337B60F0
:1037C0007B681B78002BEED1FB68181CBD4604B04B
:1037D00080BDC04680B586B000AF786001237B61B4
:1037E0000023BB607B68181C0021FFF72FFF031C20
:1037F000013BFB601DE0FB687A68D3181B78303B07
:103800003B613B69092B08DD3B69302B01DD272338
:1038100000E007233A69D31A3B613B697A69534355
:10382000BA68D318BB607B691B017B61FB68013BF5
:10383000FB60FB68002BDEDABB68181CBD4606B0D7
:1038400080BDC04680B586B000AFF8607A603B1C92
:103850000B330A1C1A7000237B6109E0FB685A1CB9
:10386000FA603A1C0B3212781A707B6901337B6163
:103870007A697B689A42F1D3BD4606B080BDC046E6
:1038800080B500AF80239B02181C0121FCF792FF3A
:103890008023DB02181C0121FCF78CFFBD4680BD94
:1038A00080B582B000AF9023DB05181C09210422EB
:1038B000FEF7C8F99023DB05181C0A210422FEF745
:1038C000C1F93B1CC022D2001A603B1C00225A7175
:1038D0003B1C02221A713B1C0122DA713B1C0122A3
:1038E0009A719023DA053B1C101C191CFEF7AAF8EC
:1038F000BD4602B080BDC04680B582B000AF124B5D
:10390000181C06210022FEF79DF90F4B181C0721F9
:103910000022FEF797F93B1CC0221A603B1C0322D1
:103920005A713B1C02221A713B1C00229A713B1CEB
:103930000122DA71044A3B1C101C191CFEF782F8A4
:10394000BD4602B080BDC0460004004880B582B0CC
:1039500000AF3B1C01221A603B1C00221A713B1C69
:1039600000229A713B1C0122DA713B1C01225A7120
:10397000254A3B1C101C191CFEF764F83B1CCF2287
:103980001A603B1C00221A713B1C00229A713B1CDE
:103990000122DA713B1C01225A719023DA053B1C8B
:1039A000101C191CFEF74EF83B1C38221A603B1CF9
:1039B00001221A713B1C00229A713B1C0122DA7110
:1039C0003B1C01225A71104A3B1C101C191CFEF7AB
:1039D00039F83B1C802212021A603B1C01221A712A
:1039E0003B1C00229A713B1C0122DA713B1C012214
:1039F0005A719023DA053B1C101C191CFEF722F8A3
:103A0000BD4602B080BDC0460004004880B582B00B
:103A100000AF3B1C802252001A603B1C01221A712D
:103A20003B1C00229A713B1C0122DA713B1C0122D3
:103A30005A719023DA053B1C101C191CFEF702F882
:103A4000BD4602B080BDC04680B584B000AF78608E
:103A50000023FB607B689B78002B3CD0244B7A686A
:103A600012789208D2B2C0329200D358FB607B68C1
:103A70001B781A1C03231340DB00FF22101C984004
:103A8000031CDA43FB681340FB607B685B789A0198
:103A9000FF231A407B681B78191C03230B40DB00B3
:103AA000111C99400B1CFA681343FB60104B7A6899
:103AB00012789208D2B2C0329200F968D1500C4B01
:103AC0007A681278111C1F220A400121081C9040BC
:103AD000021C1A6009E0064A7B681B78191C1F2328
:103AE0000B40012199408023D150BD4604B080BDD8
:103AF00000E100E0002934D00123002210B4884204
:103B00002CD301242407A14204D2814202D209010C
:103B10001B01F8E7E400A14204D2814202D249002D
:103B20005B00F8E7884201D3401A1A434C08A042D0
:103B300002D3001B5C0822438C08A04202D3001B66
:103B40009C082243CC08A04202D3001BDC0822437D
:103B5000002803D01B0901D00909E3E7101C10BCA1
:103B60007047002801D00020C04307B4024802A1DA
:103B70004018029003BDC046D90000000029F0D0D3
:103B800003B5FFF7B9FF0EBC4243891A1847C04678
:103B9000002941D010B4041C4C40A446012300224B
:103BA000002900D54942002800D5404288422CD344
:103BB00001242407A14204D2814202D209011B013F
:103BC000F8E7E400A14204D2814202D249005B003E
:103BD000F8E7884201D3401A1A434C08A04202D3A6
:103BE000001B5C0822438C08A04202D3001B9C08E7
:103BF0002243CC08A04202D3001BDC082243002849
:103C000003D01B0901D00909E3E7101C6446002C0E
:103C100000D5404210BC7047002806D003DB0020CE
:103C2000C043400801E08020000607B4024802A11A
:103C30004018029003BDC046190000000029EBD0D7
:103C400003B5FFF7A7FF0EBC4243891A1847C046C9
:103C50007047C046F0B50F2A35D9031C0B439C07AB
:103C600035D1161C103E36093501451910350C1C8E
:103C7000031C27681F6067685F60A7689F60E7682C
:103C80001034DF601033AB42F3D1731C1B01C51835
:103C9000C9180F231340032B1BD91C1FA408013480
:103CA000A4000023CE58EE500433A342FAD1ED18FD
:103CB000C91803231A4005D00023CC5CEC5401330F
:103CC0009342FAD1F0BD051C002AF5D1FAE7051C94
:103CD000F2E71A1CF8E7C04615161718191A1B1C2C
:103CE0001D1E1F202122232425262728292A2B2C8C
:103CF0002D2E2F303132333435363738393A3B3C7C
:103D00003D3E3F4041424448494A4B525354555628
:103D10005758595A5B5C5D5E5F60616263646566BB
:103D20006768696A6B6C6D6E6F7F80818292939415
:103D3000959697989A9C9DD0D5D6D7D8D9DADEDBC0
:103D4000DCDDA0A1A2A3A4A5A6A7A8A9AAABACAD9F
:103D5000AEAFB0B1B2B3B4B5B6B7B8B9BABBBCBD0B
:103D6000BEBFC1C2C3C4C5C6C7C9D0D5D6E0F9FA63
:103D7000FB0000000102030405060708090A0B0CFA
:103D80000D0E0F101112131415161718191A1B1CEB
:103D90001D1E1F2021222328292C2D2E34363C00C5
:103DA00000000000100000002000000030000000B3
:103DB000400000005000000060000000496E69747F
:103DC000696174696E67204D43552E2E2E0D0A00D1
:103DD000446F6E65210D0A00496E697469617469EA
:103DE0006E6720646576696365732E2E2E0D0A005A
:103DF000506F776572696E672075702064657669AB
:103E00006365732E2E2E0D0A00000000537065634B
:103E100069616C2073746174652064657465637492
:103E20006564210D0A000000526573657474696E43
:103E30006720746F2076656E646F722064656661BA
:103E4000756C742E2E2E0D0A00000000536F6D65E8
:103E50007468696E672077656E742077726F6E671D
:103E600021210D0A00000000466F756E6420676511
:103E70006E6572616C20636F6E66696775726174DE
:103E8000696F6E206F6E20666C617368210D0A0089
:103E90004C6F6164696E672067656E6572616C2046
:103EA000636F6E66696775726174696F6E2E2E2E10
:103EB0000D0A00004E6F2073756368206465766993
:103EC00063652E20506C6561736520657261736552
:103ED00020636F6E66696775726174696F6E2069C1
:103EE0006E20666C617368206D656D6F7279202835
:103EF000636D64202765272921000000466F756ED9
:103F00006420627574746F6E20636F6E6669677586
:103F1000726174696F6E206F6E20666C61736820C9
:103F2000666F7220627574746F6E20000D0A000057
:103F30005374617274696E67206F75747075742044
:103F400066726F6D20465047410D0A000000000068
:103F500010000000200000003000000040000000C1
:103F6000500000006000000015161718191A1B1CDD
:103F70001D1E1F202122232425262728292A2B2CF9
:103F80002D2E2F303132333435363738393A3B3CE9
:103F90003D3E3F4041424448494A4B525354555696
:103FA0005758595A5B5C5D5E5F6061626364656629
:103FB0006768696A6B6C6D6E6F7F80818292939483
:103FC000959697989A9C9DD0D5D6D7D8D9DADEDB2E
:103FD000DCDDA0A1A2A3A4A5A6A7A8A9AAABACAD0D
:103FE000AEAFB0B1B2B3B4B5B6B7B8B9BABBBCBD79
:103FF000BEBFC1C2C3C4C5C6C7C9D0D5D6E0F9FAD1
:10400000FB0000005265616420000000206F6E20FC
:10401000646576696365200053796E7461783A202F
:1040200072203C38626974207265673E00000000AF
:104030005772697474656E200000000020746F2050
:1040400072656769737465722000000053796E743D
:1040500061783A2077203C38626974207265673E47
:10406000203C386269742076616C75653E00000002
:104070004465766963652000206973206163746913
:104080007665000053796E7461783A2073203C7332
:104090006C6176653E20776865726520736C617629
:1040A000652069732030284144393938344129204A
:1040B0006F7220312841445637353131290D0A00BD
:1040C00053796E7461783A207A203C313062697499
:1040D000206F66667365743E0000000020617420E6
:1040E00061646472657373200000000053796E741C
:1040F00061783A2078203C3130626974206F6666BE
:104100007365743E203C33326269742076616C754D
:10411000653E000044656661756C742067656E6578
:1041200072616C20636F6E66696775726174696F26
:104130006E206973206E6F772075736564210000AF
:1041400053796E7461783A20642059455300000019
:1041500044656661756C7420627574746F6E20635B
:104160006F6E66696775726174696F6E206973201E
:104170006E6F7720757365642100000053796E744B
:1041800061783A20622059455300000047656E650A
:1041900072616C20636F6E66696775726174696FB6
:1041A0006E20686173206265656E20736176656458
:1041B000206F6E20666C617368210000436F756C20
:1041C00064206E6F7420736176652067656E65721A
:1041D000616C20636F6E66696775726174696F6E7A
:1041E00020746F20666C617368206D656D6F7279E5
:1041F0002100000053796E7461783A206620594599
:104200005300000050616765200000002065726166
:10421000736564206F6E20666C6173682000000017
:1042200053796E7461783A2065203C32626974205B
:10423000506167653E000000200000000D0A00008C
:10424000526573657474696E672E2E2E0D0A0D0A01
:1042500000000000446F6E652100000053796E7409
:1042600061783A206A203C6F66667365743E203C34
:104270006174747269627574653E20757365202778
:10428000682720636D6420666F7220696E73747294
:10429000756374696F6E730053796E7461783A2038
:1042A00065203C427574746F6E3E20776865726558
:1042B00020627574746F6E20697320312D37000091
:1042C00053796E7461783A2079203C427574746F2A
:1042D0006E3E20776865726520627574746F6E201B
:1042E000697320312D370000466F726D617420664E
:1042F0006F7220627574746F6E20636F6E6669678B
:1043000075726174696F6E0D0A0D0A0042757474DE
:104310006F6E20313A0D0A003078303020427574CB
:10432000746F6E416374696F6E205B425554544FD5
:104330004E5F414354494F4E5F46504741203D2018
:10434000302C20425554544F4E5F414354494F4EF8
:104350005F524547203D20312C20425554544F4E4A
:104360005F414354494F4E5F53415645203D2032F3
:104370002C20425554544F4E5F414354494F4E5F99
:104380005245534554203D20335D0D0A0000000086
:10439000307830382053686F7274507265737320B0
:1043A0005B73657420746F203120696620616374CB
:1043B000696F6E2073686F756C642062652070652C
:1043C00072666F726D65642075706F6E2073686FB2
:1043D00072742070726573735D0D0A003078303925
:1043E000204C6F6E675072657373205B7365742029
:1043F000746F203120696620616374696F6E207369
:10440000686F756C6420626520706572666F726D8E
:1044100065642075706F6E206C6F6E6720707265BA
:1044200073735D0D0A0000003078304120436F6ED9
:1044300074696E75654C6F6E675072657373205B3F
:1044400073657420746F203120696620616374691C
:104450006F6E2073686F756C642062652072657082
:1044600065617465642075706F6E206C6F6E672077
:1044700070726573735D0D0A00000000425554545C
:104480004F4E5F414354494F4E5F465047410D0ADE
:1044900000000000307830312046504741416374BD
:1044A000696F6E205B465047415F414354494F4E10
:1044B0005F5343524F4C4C5F5249474854203D2074
:1044C000302C20465047415F414354494F4E5F5383
:1044D00043524F4C4C5F4C454654203D20312C20DC
:1044E000465047415F414354494F4E5F5343524FFB
:1044F0004C4C5F5550203D20322C20465047415FA8
:10450000414354494F4E5F5343524F4C4C5F444FCD
:10451000574E203D20335D0D0A0000004255545493
:104520004F4E5F414354494F4E5F5245470D0A007D
:10453000307830312043686970205B414439393824
:104540003441203D20302C20414456373531312034
:104550003D20315D0D0A00003078303220557369FE
:104560006E674D5342526567205B6966204D53422A
:10457000207265676973746572206973207573654D
:10458000642C207468656E2073657420746F20310C
:104590002C206F7468657277697365207365742069
:1045A000746F20305D0D0A0030783033205265671B
:1045B0004D5342205B4D53422072656769737465A9
:1045C000722C20652E672E20307832315D0D0A0066
:1045D00030783034205265674C5342205B4C534254
:1045E0002072656769737465722C20652E672E20B2
:1045F000307832315D0D0A003078303520536967EC
:104600006E205B73686F756C6420746865207265DA
:104610006769737465722076616C756520626520C8
:10462000696E6372656173656420776974682027B9
:1046300053746570272073657420746F20312C20AB
:104640006F74686572776973652073657420746F21
:1046500020305D0D0A00000030783036205374653C
:1046600070205B746865207175616E74697479205F
:10467000746861742073686F756C64206265206172
:1046800064646564206F7220737562747261637410
:10469000656420746F20746865207265676973743F
:1046A00065722076616C75655D0D0A004E6F206540
:1046B0007874726120696E666F726D6174696F6E75
:1046C000206973206E6565646564207768656E2077
:1046D000616374696F6E2069732073657420746FF1
:1046E00020425554544F4E5F414354494F4E5F53FF
:1046F000415645206F7220425554544F4E5F4143FE
:1047000054494F4E5F52455345540D0A0000000076
:10471000427574746F6E20323A0D0A004164642051
:1047200030783130206F666673657420746F206650
:104730006C61736820616464726573730D0A0000B4
:10474000546F2070726F6772616D20627574746F40
:104750006E203520746F206D6F64696679207468EF
:104760006520696E70757420636C6F636B20666F73
:1047700072204144393938344120636869703A0DF8
:104780000A0000002861646472657373206D75739C
:1047900074206265207772697474656E206173207D
:1047A000342063686172616374657273290D0A0055
:1047B0006A203078343020310D0A00006A203078C9
:1047C000343820310D0A00006A2030783439203125
:1047D0000D0A00006A203078344120310D0A0000B3
:1047E0006A203078343120300D0A00006A20307899
:1047F000343220310D0A00006A2030783433203002
:104800007830310D0A0000006A20307834342030CE
:104810007830320D0A0000006A20307834352031BB
:104820000D0A00006A203078343620307831300D9F
:104830000A000000710D0A005768656E20707265ED
:104840007373696E6720627574746F6E20342074A0
:10485000686520636C6F636B2077696C6C206265A0
:1048600020696E637265617365642077697468207E
:10487000307831300D0A0000312E30004932430DBE
:104880000A0000000920723A207265616420726596
:104890006769737465720D0A000000000920773A99
:1048A0002077726974652072656769737465720D2B
:1048B0000A0000000920733A207365742061637454
:1048C000697665206465766963650D0A00000000FD
:1048D000464C4153480D0A0009207A3A207265611E
:1048E000642033326269742066726F6D20666C6179
:1048F00073680D0A000000000920783A2077726979
:10490000746520333262697420746F20666C617341
:10491000680D0A000920653A20657261736520619F
:10492000207061676520696E20666C6173680D0A8E
:104930000000000047454E4552414C20434F4E4633
:1049400049470D0A000000000920663A207361768D
:10495000652063757272656E742067656E6572613D
:104960006C20636F6E6669672028696E20666C61D3
:104970007368206D656D6F7279290D0A0000000063
:104980000920643A2064656661756C742067656E01
:104990006572616C20636F6E6669677572617469B8
:1049A0006F6E202863616E6E6F7420626520756E75
:1049B000646F6E65290D0A00425554544F4E2043D2
:1049C0004F4E4649470D0A0009206A3A207772691E
:1049D000746520627574746F6E20636F6E666967AC
:1049E00020696E20666C6173680D0A000920623AC6
:1049F0002064656661756C7420627574746F6E20D6
:104A0000636F6E66696775726174696F6E20286383
:104A1000616E6E6F7420626520756E646F6E6529BD
:104A20000D0A00000920793A2072656D6F766520C5
:104A30006F6E6520627574746F6E20636F6E666949
:104A40006775726174696F6E202863616E6E6F7432
:104A500020626520756E646F6E65290D0A00000086
:104A60000920683A20496E737472756374696F6EB9
:104A70007320666F722070726F6772616D6D696E00
:104A80006720627574746F6E0D0A00004D495343C0
:104A90000D0A00000920703A2072656164204544C7
:104AA00049440D0A000000000920713A20736F6626
:104AB000742072657365740D0A0000000920763A4F
:104AC000207072696E742076657273696F6E0D0A5C
:104AD000000000002E0B0008E60E0008E80A00089F
:104AE000BA0B0008740B0008E60E00089A0D0008C7
:104AF000E60E0008E60C0008E60E0008E60E0008C8
:104B0000E60E0008E60E0008E60E00080C0C000891
:104B1000DA0C000814090008EE090008E60E000887
:104B2000E60E0008DC0E0008780900088A0A000872
:104B30003E0D00083C0A00080000000010000000C4
:104B40002000000030000000400000005000000085
:104B5000600000004E6F20737563682070616765A8
:104B6000210D0A00457261736520666C61736820CF
:104B70006661696C6564210D0A000000466C617312
:104B800068206661696C6564210D0A00466C61737A
:104B90006820496E636F6D706C657465210D0A0045
:104BA00015161718191A1B1C1D1E1F20212223243D
:104BB00025262728292A2B2C2D2E2F30313233342D
:104BC00035363738393A3B3C3D3E3F404142444818
:104BD000494A4B52535455565758595A5B5C5D5E7F
:104BE0005F606162636465666768696A6B6C6D6E5D
:104BF0006F7F808182929394959697989A9C9DD08E
:104C0000D5D6D7D8D9DADEDBDCDDA0A1A2A3A4A556
:104C1000A6A7A8A9AAABACADAEAFB0B1B2B3B4B5BC
:104C2000B6B7B8B9BABBBCBDBEBFC1C2C3C4C5C6A6
:104C3000C7C9D0D5D6E0F9FAFB0000000102030491
:104C400005060708090A0B0C0D0E0F10111213149C
:104C500015161718191A1B1C1D1E1F202122232888
:104C6000292C2D2E34363C00495251207374617426
:104C700075733A20000000000D0A00004361626C69
:104C80006520696E7365727465642C20696E697441
:104C900069616C697A696E672E2E2E0D0A0000001C
:104CA0004361626C652072656D6F766564210D0AE3
:104CB000000000004D6F6E69746F722073656E7333
:104CC000652064657465637465640D0A0000000006
:104CD0005673796E632064657465637465640D0A48
:104CE00000000000454449442069732061766169F1
:104CF0006C61626C650D0A0015161718191A1B1CD9
:104D00001D1E1F202122232425262728292A2B2C5B
:104D10002D2E2F303132333435363738393A3B3C4B
:104D20003D3E3F4041424448494A4B5253545556F8
:104D30005758595A5B5C5D5E5F606162636465668B
:104D40006768696A6B6C6D6E6F7F808182929394E5
:104D5000959697989A9C9DD0D5D6D7D8D9DADEDB90
:104D6000DCDDA0A1A2A3A4A5A6A7A8A9AAABACAD6F
:104D7000AEAFB0B1B2B3B4B5B6B7B8B9BABBBCBDDB
:104D8000BEBFC1C2C3C4C5C6C7C9D0D5D6E0F9FA33
:104D9000FB000000426164205265636569766572BC
:104DA00020424B53560000005269204D69736D61DB
:104DB00074636800506A204D69736D6174636800A4
:104DC000493243204572726F722028757375616C89
:104DD0006C792061206E6F2D61636B2900000000EB
:104DE00054696D6564204F75742057616974696EEC
:104DF0006720666F7220446F776E73747265616DA1
:104E000020526570656174657220444F4E45000004
:104E10004D61782043617363616465206F66205241
:104E20006570656174657273204578636565646556
:104E3000640000005348412D3120486173682043CD
:104E40006865636B206F66204B5356204C69737402
:104E5000204661696C656400546F6F204D616E7906
:104E6000204465766963657320436F6E6E65637475
:104E7000656420746F20526570656174657220549A
:104E80007265650041443939383441004144563730
:104E900035313100414456373238300041445637BD
:104EA00033393100454449440000000015161718F5
:104EB000191A1B1C1D1E1F202122232425262728EA
:104EC000292A2B2C2D2E2F303132333435363738DA
:104ED000393A3B3C3D3E3F4041424448494A4B52AF
:104EE000535455565758595A5B5C5D5E5F6061621A
:104EF000636465666768696A6B6C6D6E6F7F8081DD
:104F000082929394959697989A9C9DD0D5D6D7D80F
:104F1000D9DADEDBDCDDA0A1A2A3A4A5A6A7A8A9FF
:104F2000AAABACADAEAFB0B1B2B3B4B5B6B7B8B969
:104F3000BABBBCBDBEBFC1C2C3C4C5C6C7C9D0D53C
:104F4000D6E0F9FAFB000000010203040506070899
:104F5000090A0B0C0D0E0F10111213141516171849
:104F6000191A1B1C1D1E1F2021222328292C2D2E1F
:104F700034363C000000000010000000200000005B
:104F80003000000040000000500000006000000001
:104F900047656E6572616C20636F6E6669677572D6
:104FA0006174696F6E20686173206265656E20733D
:104FB00061766564206F6E20666C617368210D0AEE
:104FC00000000000436F756C64206E6F7420736185
:104FD00076652067656E6572616C20636F6E6669C9
:104FE0006775726174696F6E20746F20666C61738F
:104FF00068206D656D6F7279210D0A0068310008B7
:10500000703100088E31000808320008BC310008F9
:1050100030313233343536373839414243444546EE
:04502000000000008C
:10502400000000000102030401020304060708094A
:10503400944D0008A84D0008B44D0008C04D000868
:10504400E04D0008104E0008344E0008584E000889
:10505400844E00088C4E0008944E00089C4E0008B4
:04506400A44E00084E
:0400000508000000EF
:00000001FF
