:020000040800F2
:1000000000100020050A0008510A0008510A0008E3
:1000100000000000000000000000000000000000E0
:10002000000000000000000000000000510A00086D
:100030000000000000000000510A0008510A0008FA
:10004000510A0008510A0008510A0008510A000824
:10005000510A0008510A0008510A0008C50D00089D
:10006000510A0008510A0008510A0008510A000804
:10007000510A0008510A0008510A0008510A0008F4
:10008000510A0008510A000800000000510A000847
:10009000510A0008510A0008510A0008510A0008D4
:1000A000510A0008510A0008510A0008290F0008E7
:1000B000510A000800000000510A0008000000007A
:1000C0005FF808F180B586B000AF8023DB01181C13
:1000D000012100F02BFB02F03DFA00F0F1FF184A7D
:1000E000184B101C191C012201F0DCFE3B1CE12204
:1000F00052021A603B1C00225A603B1C00229A608C
:100100003B1C0022DA603B1C00225A613B1C0C2283
:100110001A610B4A3B1C101C191C01F0D5FD084B41
:10012000181C012101F080FE074B181C0021202221
:1001300002F06AFB054B00221A70BD4606B080BD76
:1001400000380140050105007C0000209C000020D3
:1001500080B582B000AF021CFB1D1A70C046094B6F
:10016000181C802101F0E0FE031C002BF7D0FB1DC2
:100170001B789BB2034A101C191C01F073FEBD468C
:1001800002B080BD0038014080B582B000AF786019
:1001900012E0C0460C4B181C802101F0C5FE031C68
:1001A000002BF7D07B681B78074A101C191C01F044
:1001B00059FE7B6801337B607B681B78002BE8D19C
:1001C000BD4602B080BDC0460038014080B500AFDA
:1001D000044A054B101C191C01F0C4FE031C181C1A
:1001E000BD4680BD003801400501050080B500AF67
:1001F000044B181C01F048FE031CDBB2181CBD4662
:1002000080BDC0460038014080B584B000AF0023F7
:10021000FB600023BB60FB1D00221A70BB1D002287
:100220001A7080239B02181C012100F061FA8023C0
:10023000DB02181C012100F05BFA02F0B5F902F0B4
:1002400013FA02F055F9FFF73DFF01F005FF00F04A
:10025000B7FE0023FB6002E0FB680133FB60FA6835
:100260009D4B9A42F8D901F04DFC042001F066F84C
:1002700001F054FC00E0C046FB1D1B78042BFAD8AB
:100280009A00964BD3181B689F469023DA0580236B
:100290001B02101C191C00F0F5FF0023FB6002E09C
:1002A000FB680133FB60FA688D4B9A42F8D98D4B9D
:1002B000181C102100F0D8FF0023FB6002E0FB684F
:1002C0000133FB60FA68864B9A42F8D9854B181CBB
:1002D000102100F0D7FF0023FB6002E0FB68013330
:1002E000FB60FA687E4B9A42F8D97E4B181C20219D
:1002F00000F0BAFF0023FB6002E0FB680133FB6003
:10030000FA68774B9A42F8D9764B181C202100F0F6
:10031000B9FF0023FB6002E0FB680133FB60FA6871
:100320006F4B9A42F8D99023DA0580231B02101CE8
:10033000191C00F099FFFB1D01221A70CAE09023DE
:10034000DB05181C012100F06BFF031C002B03D1FF
:10035000FB1D02221A70BDE0BCE0BB680133BB602C
:10036000BA68614B9A4202D9FB1D04221A7090238D
:10037000DB05181C012100F053FF031C012B03D1E6
:10038000FB1D03221A70A5E0A4E0BB1D1B78012B06
:1003900032D0022B5ED0002B00D09BE0514B181CBA
:1003A000202100F061FF0023FB6002E0FB680133C5
:1003B000FB60FA684D4B9A42F8D94A4B181C202131
:1003C00000F060FF0023FB6002E0FB680133FB608C
:1003D000FA68464B9A42F8D99023DB05181C012194
:1003E00000F01EFF031C012B05D1FB1D01221A701A
:1003F0000023BB604BE04AE03A4B181C102100F090
:1004000033FF0023FB6002E0FB680133FB60FA6806
:10041000364B9A42F8D9334B181C102100F032FFAA
:100420000023FB6002E0FB680133FB60FA682F4B9E
:100430009A42F8D99023DB05181C012100F0F0FE48
:10044000031C012B05D1FB1D01221A700023BB6088
:100450001DE01CE0202001F017FC0023FB6002E0FF
:10046000FB680133FB60FA68214B9A42F8D990236C
:10047000DB05181C012100F0D3FE031C012B05D164
:10048000FB1D01221A700023BB60FFE7C04621E07C
:10049000BA68184B9A4203D8FB1D01221A7016E065
:1004A000BB1D1B78002B03D1BB1D01221A700EE06F
:1004B000BB1D1B78012B03D1BB1D02221A7006E065
:1004C000BB1D1B78022B02D1BB1D00221A7000231A
:1004D000BB60C046CFE6C0463F420F0090290008EF
:1004E000E7030000000400482F7500005FEA0000E9
:1004F0009FBB0D008813000080B582B000AF78600C
:10050000074B074A126B10218A431A63044B044AB3
:10051000116B7A680A431A63BD4602B080BDC046BB
:100520000010024080B588B000AF78600023FB6106
:100530000023BB6100237B6100233B610023FB6040
:10054000654B5A680C231340FB61FB69042B07D0F1
:10055000082B09D0002B30D17B68604A1A6030E04C
:100560007B685E4A1A602CE05B4B5A68F0239B0361
:100570001340BB61584B5A6880235B0213407B6178
:10058000BB699B0C0233BB617B69002B05D1BB6946
:10059000534A5A437B681A6013E04F4BDA6A0F23C1
:1005A000134001333B614D48396902F0A1F9031C46
:1005B000BA695A437B681A6003E07B68474A1A604D
:1005C000C046454B5A68F0231340FB61FB691B0989
:1005D000FB61444AFB69D3181B78DBB2FB607B6884
:1005E0001A68FB68DA407B685A603B4B5A68E02324
:1005F000DB001340FB61FB691B0AFB61394AFB69A5
:10060000D3181B78DBB2FB607B685A68FB68DA4062
:100610007B689A60304B1A6B80235B00134003D1D8
:100620007B68314ADA6010E02B4B5A688023DB018B
:10063000134005D17B689B685A087B68DA6004E048
:100640007B689B689A087B68DA60234B1A6B4023AF
:10065000134003D17B68254A1A6103E07B6880223E
:1006600012021A611C4B1A6B1023134003D17B68D2
:100670001A4A5A6103E07B681A687B685A61164B14
:100680001A6B0323134004D17B689A687B689A61D4
:100690001EE0114B1A6B03231340012B04D17B681E
:1006A0001A687B689A6113E00B4B1A6B03231340A3
:1006B000022B04D17B68802212029A6108E0064B6B
:1006C0001A6B03231340032B02D17B68034A9A6100
:1006D000BD4608B080BDC0460010024000127A003E
:1006E00000093D0000000020809FD500128000001E
:1006F00080B582B000AF78600A1CFB1C1A70FB1C2E
:100700001B78002B06D0084B074A51697A680A43C8
:100710005A6106E0044B044A52697968C9430A40A9
:100720005A61BD4602B080BD0010024080B582B063
:1007300000AF78600A1CFB1C1A70FB1C1B78002B96
:1007400006D0084B074A91697A680A439A6106E025
:10075000044B044A92697968C9430A409A61BD46CC
:1007600002B080BD0010024080B582B000AF78605A
:100770000A1CFB1C1A70FB1C1B78002B06D0084BB4
:10078000074AD1697A680A43DA6106E0044B044AF1
:10079000D2697968C9430A40DA61BD4602B080BDBA
:1007A0000010024080B58AB000AF78600A1CFB1CC4
:1007B0001A707B681B78722B0AD003DC692B00D17E
:1007C0008DE0E8E0732B00D1BEE0772B3FD0E2E074
:1007D0000023BB61FB1C1B78022B33D97B680333DE
:1007E0001B78782B07D17B680433181C01F0D4FFE9
:1007F000031C7B6206E07B680233181C01F0AEFF2D
:10080000031C7B627B6ADBB2181C01F0D3FC031C67
:10081000BB61BB69181C01F061FF031C7B61694B64
:10082000181CFFF7B1FC7B69181CFFF7ADFC664B89
:10083000181CFFF7A9FC01F06BFD031C181CFFF747
:10084000A3FCBCE0614B181CFFF79EFCB7E0FB1C4F
:100850001B78022B3ED97B6803331B78782B07D19A
:100860007B680433181C01F097FF031C3B6206E011
:100870007B680233181C01F071FF031C3B62544B70
:100880001B78181C01F02AFF031C3B61504B1A789F
:100890003B6ADBB2101C191C01F014FC4D4B181CF8
:1008A000FFF772FC7B680233181CFFF76DFC4A4BA4
:1008B000181CFFF769FC3B69181CFFF765FC424BED
:1008C000181CFFF761FC01F023FD031C181CFFF747
:1008D0005BFC74E03D4B181CFFF756FC6FE0FB1C03
:1008E0001B78022B2BD97B6803331B78782B07D11D
:1008F0007B680433181C01F04FFF031CFB6106E00A
:100900007B680233181C01F029FF031CFB61FB69A3
:10091000DAB22F4B1A70314B181CFFF735FC7B688D
:100920000233181CFFF730FC274B181CFFF72CFC78
:1009300001F0EEFC031C181CFFF726FC3FE0284BDF
:10094000181CFFF721FC3AE0FB1C1B78022B1DD979
:100950007B680233181C01F001FF021C3B1C0F33A3
:100960001A703B1C0F331B78181C01F0C1FC1D4B87
:10097000181CFFF709FC01F0CBFC031C181CFFF747
:1009800003FC194B181CFFF7FFFB18E0174B181C52
:10099000FFF7FAFB13E0164B181CFFF7F5FB154B9E
:1009A000181CFFF7F1FB144B181CFFF7EDFB134B62
:1009B000181CFFF7E9FB124B181CFFF7E5FBBD46BF
:1009C0000AB080BDA4290008AC290008B829000895
:1009D00044000020C8290008D4290008E4290008A0
:1009E000F8290008082A0008102A00081C2A000814
:1009F000642A0008702A0008882A0008A02A000833
:100A0000C42A00080C488546002103E00B4B5B58C4
:100A1000435004310A480B4B42189A42F6D30A4A13
:100A200002E0002313600432084B9A42F9D300F02D
:100A300013F9FFF7E9FBFEE700100020D42C0008B3
:100A4000000000204400002044000020A0000020FE
:100A5000FEE7000080B584B000AF78603960002305
:100A6000FB607B681B680122191C91430A1C7B6890
:100A70001A607B681B68FB60FA68274B1340FB60B9
:100A80003B685A683B689B681B021343FA68134330
:100A9000FB607B68FA681A603B681A681F4B1A4053
:100AA0007B681A617B681B6801221A437B681A60A5
:100AB0000023FB607B68FA689A607B68FA68DA60FA
:100AC0003B689A693B681B691343FB607B68FA6863
:100AD0009A607B689B68802212021A437B689A6046
:100AE0003B68DB68FB607B681A68FB681A437B68BD
:100AF0001A607B685B68FB60FA68094B1340FB6017
:100B00003B685B69FA681343FB607B68FA685A606C
:100B1000BD4604B080BDC046FFE0CF00FFFFFFF040
:100B2000FF7FFF0780B582B000AF78600A1CFB1C16
:100B30001A70FB1C1B78002B06D07B681B680122F7
:100B40001A437B681A6007E07B681B680122191C46
:100B500091430A1C7B681A60BD4602B080BDC04646
:100B600080B586B000AFF8607B603B1C0A3319800B
:100B70003B1C09331A7000237B61FB685B687B6157
:100B80007A690E4B13407B613B1C0A331B889B0523
:100B90009A0D3B1C09331B781904FF231B040B40DF
:100BA0001A437B681A433B6A13437A6913437B6198
:100BB000FB687A695A60BD4606B080BD009800FCAB
:100BC00080B582B000AF78600A1CFB1C1A70FB1C59
:100BD0001A787B689A62BD4602B080BD80B582B04B
:100BE00000AF78607B685B6ADBB2181CBD4602B060
:100BF00080BDC04680B584B000AF78603960002306
:100C0000BB603B1C0F3300221A707B689B69BB6082
:100C1000BB683A681340BB60BB68002B04D03B1C28
:100C20000F3301221A7003E03B1C0F3300221A70AD
:100C30003B1C0F331B78181CBD4604B080BDC0465A
:100C400080B582B000AF786039607B683A68DA615D
:100C5000BD4602B080BDC04680B500AF1B4B1B4AED
:100C6000126801210A431A60184B184A5168184A41
:100C70000A405A60154B154A1168164A0A401A6014
:100C8000124B124A1168144A0A401A600F4B0F4A5D
:100C90005168124A0A405A600C4B0C4AD26A0F2122
:100CA0008A43DA62094B094A116B0D4A0A401A63FA
:100CB000064B064A526B01218A435A63034B0022BA
:100CC0009A6000F00FF8BD4680BDC046001002409B
:100CD0000CB8FF08FFFFF6FEFFFFFBFFFFFFC0FFA2
:100CE000ACFEFFFF80B582B000AF00237B60002325
:100CF0003B60314B304A1268802149020A431A6036
:100D00002D4B1A6880239B0213403B607B680133A4
:100D10007B603B68002B04D17A68A023DB019A42F8
:100D2000EED1254B1A6880239B02134002D0012389
:100D30003B6001E000233B603B68012B38D11F4B37
:100D400011221A601C4B1C4A52685A601A4B1A4AEC
:100D500052685A60184B184A5168194A0A405A603A
:100D6000154B154A5268882149030A435A60124BB1
:100D7000114A1268802149040A431A60C0460E4B8A
:100D80001A6880239B041340F9D00B4B0A4A52681F
:100D900003218A435A60084B074A526802210A43DA
:100DA0005A60C046044B5A680C231340082BF9D1F3
:100DB000BD4602B080BDC046001002400020024087
:100DC000FFFFC0FF90B585B000AF202001F01CFBF5
:100DD000031C002B00D170E0494B181CFFF7D4F91D
:100DE000012001F085FA0023FB6002E0FB6801337B
:100DF000FB60FA68434B9A42F8D93C1C0B349620AE
:100E000001F0D8F9031C23703B1C0B331B78181C12
:100E100001F064FC031C7B603B4B181CFFF7B4F92A
:100E20007B68181CFFF7B0F9384B181CFFF7ACF9BA
:100E30003B1C0B331B785BB2002B13DA422001F012
:100E4000B9F9031C1A1C4023134006D0304B181C60
:100E5000FFF79AF900F062FE24E02E4B181CFFF712
:100E600093F91FE0C82001F0A5F9031C1A1CF02318
:100E700013400DD0C82001F09DF9031C1B09DBB203
:100E80001A1C254B9200D358181CFFF77DF909E076
:100E90003B1C0B331A780423134003D01F4B181C40
:100EA000FFF772F93B1C0B331B789620191C01F0DD
:100EB00009F9202001F0C8FA1EE080235B00181C0D
:100EC00001F0A2FA031C002B09D0154B181CFFF7E8
:100ED0005BF980235B00181C01F0B6FA0CE01020CF
:100EE00001F092FA031C002B06D00E4B181CFFF7E2
:100EF0004BF9102001F0A8FABD4605B090BDC046E0
:100F0000E02A00080F270000F82A0008082B000834
:100F10000C2B0008302B000810000020402B00088C
:100F2000502B0008682B000898B500AFFFF74EF96A
:100F3000031C002B3DD0204B1B781C1CFFF756F9DF
:100F4000031C1A1C1D4B1A551B4B1B781B4AD35CE8
:100F5000181CFFF7FDF8184B1B78184AD35C0D2BB3
:100F600021D1154B1B78154A0021D1540A20FFF7D7
:100F7000EFF8114B1B78114A101C191CFFF712FCDB
:100F80000D20FFF7E5F80A20FFF7E2F80A20FFF747
:100F9000DFF80A4B181C0021202201F035FC064B1B
:100FA00000221A7005E0044B1B780133DAB2024BC1
:100FB0001A70BD4698BDC0469C0000207C000020F1
:100FC00080B586B000AF01200121FFF7AFFB3B1DCC
:100FD00020221A603B1D00221A713B1D00229A71CB
:100FE0003B1D0122DA713B1D00225A719023DA0564
:100FF0003B1D101C191C00F077F83B1D802252008D
:101000001A603B1D00221A713B1D00229A713B1D84
:101010000122DA713B1D00225A719023DA053B1D33
:10102000101C191C00F060F83B1D10221A603B1DBB
:1010300000221A713B1D00229A713B1D0122DA71B8
:101040003B1D00225A719023DA053B1D101C191C10
:1010500000F04AF80020052101F002FA00200821E2
:1010600001F0FEF90020042101F0FAF93B1C1033D5
:10107000982252001A603B1C103300221A713B1C4C
:1010800010330C225A713B1C103301229A713B1C05
:101090001033181C01F04CF93B1C0C3307221A705A
:1010A0003B1C0C3300225A703B1C0C3301229A70FB
:1010B0003B1C0C33181C01F0C5FBBD4606B080BDBF
:1010C00080B582B000AF3B1D1B221A703B1D002271
:1010D0005A703B1D01229A703B1D181C01F0B2FB97
:1010E000BD4602B080BDC04680B586B000AF786016
:1010F000396000237B6100233B610023FB600023F8
:101100007B6185E07B690122101C9840031C3B61D8
:101110003B681B683A691340FB60FA683B699A4276
:1011200073D13B681B79012B03D03B681B79022BE1
:1011300038D17B689B687A6952000321081C904073
:10114000021CD2431A407B689A607B689A683B68AD
:101150005B79191C7B695B00081C9840031C1A43CF
:101160007B689A607B689B889BB27A6992B2012106
:10117000081C9040021C92B2D24392B213409AB221
:101180007B689A807B689B889AB23B689B79191C24
:101190007B699BB2081C9840031C9BB213439AB214
:1011A0007B689A807B681B687A6952000321081C5F
:1011B0009040021CD2431A407B681A607B681A6810
:1011C0003B681B79191C7B695B00081C9840031C59
:1011D0001A437B681A607B68DB687A6992B25200B6
:1011E0000321081C9040021CD2431A407B68DA603D
:1011F0007B68DA683B68DB79191C7B695B00081C3B
:101200009840031C1A437B68DA607B6901337B6179
:101210007B690F2B00D875E7BD4606B080BDC04680
:1012200080B584B000AF78600A1CBB1C1A803B1CE0
:101230000F3300221A707B681B8A9BB2BA1C12887B
:1012400013409BB2002B04D03B1C0F3301221A70B9
:1012500003E03B1C0F3300221A703B1C0F331B783A
:10126000181CBD4604B080BD80B582B000AF786068
:101270000A1CBB1C1A80BB1C1A887B689A61BD467D
:1012800002B080BD80B582B000AF78600A1CBB1C84
:101290001A807B68BA1C12881A85BD4602B080BDD0
:1012A00090B585B000AF7860BB1C19807B1C1A70AC
:1012B0000023FB600023BB607B1C1A78BB1C1988D1
:1012C00007230B409B00111C99400B1CFB60BB1CAF
:1012D0001B88DB089BB21A1CBB1C1B88DB089BB25B
:1012E000191C7B6808318900CB58B91C0888072174
:1012F000014089000F20041C8C40211CC943194067
:101300007B6808329200D150BB1C1B88DB089BB263
:101310001A1C7B6808329200D258FB681343BB60EA
:10132000BB1C1B88DB089BB21A1C7B68083292002E
:10133000B968D150BD4605B090BDC04680B582B0F9
:1013400000AF021CFB1D1A70002000F0D1FFFB1D36
:101350001B78042B00D9D0E39A00C34BD3181B6829
:101360009F460020112100F0ADFE0120672100F012
:10137000A9FE0220202100F0A5FE0320A82100F0F4
:10138000A1FE0420802100F09DFE0520002100F038
:1013900099FE0620802100F095FE0720002100F034
:1013A00091FE0820802100F08DFE0920002100F030
:1013B00089FE0A20802100F085FE0B20002100F02C
:1013C00081FE0C20802100F07DFE0D20002100F028
:1013D00079FE0E20802100F075FE0F20002100F024
:1013E00071FE1020802100F06DFE1120202100F000
:1013F00069FE1220082100F065FE1320202100F074
:1014000061FE1420042100F05DFE15200A2100F089
:1014100059FE1620042100F055FE1720042100F08B
:1014200051FE1820002100F04DFE1920402100F04F
:1014300049FE1A20242100F045FE1B20332100F034
:1014400041FE1C20FF2100F03DFE1D20782100F010
:1014500039FE1E20342100F035FE1F20922100F0BD
:1014600031FE2020072100F02DFE2120202100F058
:1014700029FE2220322100F025FE2320142100F035
:1014800021FE2420082100F01DFE25206F2100F000
:1014900019FE26202E2100F015FE2720E02100F065
:1014A00011FE28208F2100F00DFE2920022100F0DE
:1014B00009FE2A20002100F005FE2B20002100F06B
:1014C00001FE2C20002100F0FDFD2D20082100F060
:1014D000F9FD2E20202100F0F5FD3C200E2100F02A
:1014E000F1FD0BE30020012100F0ECFD0120422181
:1014F00000F0E8FD0220002100F0E4FD032060215F
:1015000000F0E0FD0420702100F0DCFD052000214A
:1015100000F0D8FD0620802100F0D4FD0720002136
:1015200000F0D0FD0820802100F0CCFD0920002132
:1015300000F0C8FD0A20802100F0C4FD0B2000212E
:1015400000F0C0FD0C20802100F0BCFD0D2000212A
:1015500000F0B8FD0E20802100F0B4FD0F20002126
:1015600000F0B0FD1020802100F0ACFD1120202102
:1015700000F0A8FD1220002100F0A4FD132020217E
:1015800000F0A0FD1420042100F09CFD15200A218C
:1015900000F098FD1620042100F094FD172004218E
:1015A00000F090FD1820002100F08CFD192008218A
:1015B00000F088FD1A20142100F084FD1B20332147
:1015C00000F080FD1C20FF2100F07CFD1D20782113
:1015D00000F078FD1E20342100F074FD1F209221C0
:1015E00000F070FD2020072100F06CFD212020215B
:1015F00000F068FD2220322100F064FD2320142138
:1016000000F060FD2420A82100F05CFD2520FD21D4
:1016100000F058FD2620272100F054FD272040210E
:1016200000F050FD28208F2100F04CFD29200221E0
:1016300000F048FD2A20002100F044FD2B2000216D
:1016400000F040FD2C20002100F03CFD2D20082161
:1016500000F038FD2E20202100F034FD3C200E212A
:1016600000F030FD4AE2C046802B00080020012136
:1016700000F028FD0120352100F024FD0220A021EA
:1016800000F020FD0320102100F01CFD042030217B
:1016900000F018FD0520002100F014FD0620802137
:1016A00000F010FD0720002100F00CFD0820802133
:1016B00000F008FD0920002100F004FD0A2080212F
:1016C00000F000FD0B20002100F0FCFC0C2080212C
:1016D00000F0F8FC0D20002100F0F4FC0E20802129
:1016E00000F0F0FC0F20002100F0ECFC1020802125
:1016F00000F0E8FC1120202100F0E4FC1220002181
:1017000000F0E0FC1320202100F0DCFC1420042178
:1017100000F0D8FC15200A2100F0D4FC1620062188
:1017200000F0D0FC1720062100F0CCFC182000218E
:1017300000F0C8FC1920082100F0C4FC1A20202168
:1017400000F0C0FC1B20332100F0BCFC1C20FF215A
:1017500000F0B8FC1D20782100F0B4FC1E203421DC
:1017600000F0B0FC1F20922100F0ACFC20200721EB
:1017700000F0A8FC2120202100F0A4FC222032212E
:1017800000F0A0FC2320142100F09CFC2420082160
:1017900000F098FC25207F2100F094FC26201021E9
:1017A00000F090FC2720702100F08CFC28208F2175
:1017B00000F088FC2920022100F084FC2A2000216E
:1017C00000F080FC2B20002100F07CFC2C2000216C
:1017D00000F078FC2D20082100F074FC2E20202140
:1017E00000F070FC3C200E2100F06CFC86E1002033
:1017F000012100F067FC0120352100F063FC02208C
:10180000A02100F05FFC0320602100F05BFC0420BD
:10181000902100F057FC0520002100F053FC062029
:10182000802100F04FFC0720002100F04BFC082035
:10183000802100F047FC0920002100F043FC0A2031
:10184000802100F03FFC0B20002100F03BFC0C202D
:10185000802100F037FC0D20002100F033FC0E2029
:10186000802100F02FFC0F20002100F02BFC102025
:10187000802100F027FC1120202100F023FC122001
:10188000002100F01FFC1320202100F01BFC14207D
:10189000042100F017FC15200A2100F013FC16208B
:1018A000042100F00FFC1720042100F00BFC18208D
:1018B000002100F007FC1920142100F003FC1A207D
:1018C000142100F0FFFB1B20332100F0FBFB1C2048
:1018D000FF2100F0F7FB1D20782100F0F3FB1E2014
:1018E000142100F0EFFB1F20922100F0EBFB2020E1
:1018F000072100F0E7FB2120202100F0E3FB22205C
:10190000322100F0DFFB2320142100F0DBFB242038
:10191000042100F0D7FB2520DD2100F0D3FB262099
:10192000202100F0CFFB2720D02100F0CBFB282086
:101930008F2100F0C7FB2920022100F0C3FB2A20E1
:10194000002100F0BFFB2B20002100F0BBFB2C206E
:10195000002100F0B7FB2D20082100F0B3FB2E2062
:10196000202100F0AFFB3C200E2100F0ABFBC5E0D6
:101970000020012100F0A6FB0120302100F0A2FB95
:101980000220402100F09EFB0320182100F09AFB6A
:101990000420FF2100F096FB0520002100F092FBBF
:1019A0000620802100F08EFB0720002100F08AFB3A
:1019B0000820802100F086FB0920002100F082FB36
:1019C0000A20802100F07EFB0B20002100F07AFB32
:1019D0000C20802100F076FB0D20002100F072FB2E
:1019E0000E20802100F06EFB0F20002100F06AFB2A
:1019F0001020802100F066FB1120202100F062FB06
:101A00001220002100F05EFB1320202100F05AFB81
:101A10001420042100F056FB15200A2100F052FB8F
:101A20001620062100F04EFB1720062100F04AFB8D
:101A30001820002100F046FB1920082100F042FB8D
:101A40001A20002100F03EFB1B20FF2100F03AFB92
:101A50001C20FF2100F036FB1D20782100F032FB16
:101A60001E20342100F02EFB1F20902100F02AFBC5
:101A70002020072100F026FB2120202100F022FB5E
:101A80002220322100F01EFB2320142100F01AFB3B
:101A90002420082100F016FB25207F2100F012FBF6
:101AA0002620102100F00EFB2720702100F00AFBF9
:101AB0002820BF2100F006FB2920022100F002FBB4
:101AC0002A20002100F0FEFA2B20002100F0FAFA73
:101AD0002C20002100F0F6FA2D20082100F0F2FA67
:101AE0002E20202100F0EEFA3620012100F0EAFA43
:101AF0003C200E2100F0E6FA00E0C046BD4602B0F0
:101B000080BDC04680B500AF012000F0F1FB9620FB
:101B1000FF2100F0D7FABD4680BDC04680B500AFBA
:101B2000012000F0E5FB0120002100F0CBFA0220AB
:101B3000182100F0C7FA0320002100F0C3FA152095
:101B4000002100F0BFFA1620002100F0BBFA182097
:101B5000082100F0B7FA3020042100F0B3FA312058
:101B6000032100F0AFFA3220E02100F0ABFA33207D
:101B7000242100F0A7FA3420062100F0A3FA352032
:101B8000402100F09FFA3620D92100F09BFA37203F
:101B90000A2100F097FA3820002100F093FA39204A
:101BA0002D2100F08FFA3A20002100F08BFA3B2023
:101BB000402100F087FA3C20042100F083FA402005
:101BC000802100F07FFA4120102100F07BFA4920AB
:101BD000A82100F077FA5520002100F073FA562072
:101BE000082100F06FFA9620202100F06BFA98206F
:101BF000032100F067FA9920022100F063FA9C208B
:101C0000302100F05FFA9D20612100F05BFAA220F4
:101C1000A42100F057FAA320A42100F053FAA52034
:101C2000442100F04FFAAB20402100F04BFAAF20E6
:101C3000142100F047FABA20A02100F043FADE2078
:101C40009C2100F03FFAE420602100F03BFAFA20EA
:101C50007D2100F037FA4820002100F033FA5520AA
:101C6000102100F02FFA5620002100F02BFA162048
:101C70003021302200F018FB17200021012200F053
:101C800013FBBD4680BDC04680B582B000AF786012
:101C90000C4B1B88D02B03D90A4B00221A8007E07B
:101CA0007B689AB2074B1B88D3189AB2054B1A80EF
:101CB000044B1B88DBB23820191C00F003FABD4628
:101CC00002B080BD4600002080B58CB000AF7860C7
:101CD00039600023FB620023BB6200237B627B68C8
:101CE0001B680122191C91430A1C7B681A607B68DF
:101CF0005B687B627A6A474B13407B623B689B68F8
:101D00007A6A13437B627B687A6A5A607B681B68D5
:101D10007B627A6A404B13407B623B685A683B683F
:101D2000DB681A433B681B6913437A6A13437B627F
:101D30007B687A6A1A607B689B687B627A6A374B39
:101D400013407B623B685B697A6A13437B627B6802
:101D50007A6A9A603B1C0833181CFEF7E3FB7A682A
:101D60002F4B9A4204D13B1C08339B69BB6203E0B2
:101D70003B1C08339B68BB627B681A6880231B028C
:101D8000134014D0BB6A5A003B681B68101C191C16
:101D900000F0AEFD031CFB62BB6A5A003B681B6887
:101DA000101C191C00F0E8FD0B1C7B6210E03B6866
:101DB0001B68B86A191C00F09BFD031CFB623B68A2
:101DC0001B68BA6A101C191C00F0D6FD0B1C7B6244
:101DD0003B681B685A087B6A9A4202D8FB6A013347
:101DE000FB627B681A6880231B0213400AD0FA6AE0
:101DF0000F2313405B087B62FA6A0A4B1A407B6A26
:101E00001343FB62FB6A9AB27B689A81BD460CB0B1
:101E100080BDC046FFCFFFFFF3E9FFFFFFFCFFFFE0
:101E200000380140F0FF000080B582B000AF78605C
:101E30000A1CFB1C1A70FB1C1B78002B06D07B684D
:101E40001B6801221A437B681A6007E07B681B68E5
:101E50000122191C91430A1C7B681A60BD4602B01E
:101E600080BDC04680B582B000AF78600A1CBB1C44
:101E70001A80BB1C1B88DB05DB0D9AB27B681A85B8
:101E8000BD4602B080BDC04680B582B000AF78606C
:101E90007B689B8C9BB2DB05DB0D9BB2181CBD469F
:101EA00002B080BD80B588B000AFF860B960FB1D9E
:101EB0001A700023BB6100237B6100233B61002378
:101EC000FB61FB68FB61BB689BB21B0A9BB2BB61F9
:101ED000BA68FF2313407B617B690122111C994082
:101EE0000B1C3B61BB69022B03D1FB690433FB6113
:101EF00005E0BB69032B02D1FB690833FB61FB1DC5
:101F00001B78002B06D0FB69FA6911683A690A430D
:101F10001A6006E0FB69FA6912683969C9430A4028
:101F20001A60BD4608B080BD80B584B000AF78604F
:101F300039603B1C0F3300221A707B68DB693A68FA
:101F4000134004D03B1C0F3301221A7003E03B1CEA
:101F50000F3300221A703B1C0F331B78181CBD4630
:101F600004B080BD80B586B000AF786039600023D2
:101F7000FB6000237B610023BB603B1C133300220A
:101F80001A703B689BB21B0A9BB2BB603A68FF2386
:101F900013407B617B690122111C99400B1C7B6102
:101FA000BB68012B05D17B681A687B6913407B6194
:101FB0000DE0BB68022B05D17B685A687B69134032
:101FC0007B6104E07B689A687B6913407B613B68B6
:101FD0001B0CFB60FB680122111C99400B1CFB6071
:101FE0007B68DA69FB681340FB607B69002B07D0D4
:101FF000FB68002B04D03B1C133301221A7003E052
:102000003B1C133300221A703B1C13331B78181C23
:10201000BD4606B080BDC04680B582B000AF021C90
:10202000FB1D1A70FB1D1B78042B0ED89A00094B60
:10203000D3181B689F46982308E0722306E04023CC
:1020400004E0562302E07E2300E09823181CBD46DE
:1020500002B080BDAC2C000880B588B000AF8023F2
:102060009B03181C0121FEF77FFB0020FEF744FABA
:1020700000F044FA3B1D00225A603B1D00229A608A
:102080003B1D10221A613B1D0022DA603B1D00221D
:102090005A613B1D094A1A603B1D00229A61084A99
:1020A0003B1D101C191CFEF7D5FC054B181C01210B
:1020B000FEF738FDBD4608B080BDC04609033210AA
:1020C0000054004080B584B002AF0A1CFB1D011C07
:1020D0001970BB1D1A70C046344A80231B02101CA5
:1020E000191CFEF787FD031C012BF5D0304B1B7824
:1020F000181CFFF791FF031C01339AB22B49802370
:102100005B04802080010090081C111C0122FEF756
:1021100027FDC046254B181C0221FEF76BFD031C52
:10212000002BF7D0214AFB1D1B78101C191CFEF751
:1021300047FDC0461D4B181C8021FEF75BFD031CAC
:10214000002BF7D01A4B1B78181CFFF765FF031CF8
:1021500001339AB2154980239B0400200090081C8B
:10216000111C0122FEF7FCFCC046104B181C02217A
:10217000FEF740FD031C002BF7D00C4ABB1D1B785B
:10218000101C191CFEF71CFDC046084B181C202112
:10219000FEF730FD031C002BF7D0044B181C202148
:1021A000FEF74EFDBD4602B080BDC0460054004063
:1021B0004800002090B587B002AF021CFB1D1A70CA
:1021C0003B1C0F3300221A70C046354A80231B0285
:1021D000101C191CFEF70EFD031C012BF5D0314B12
:1021E0001B78181CFFF718FF031C2D4A802189015A
:1021F0000091101C191C01220023FEF7B1FCC046FF
:10220000274B181C0221FEF7F5FC031C002BF7D00E
:10221000234AFB1D1B78101C191CFEF7D1FCC0467D
:102220001F4B181C4021FEF7E5FC031C002BF7D0C8
:102230001C4B1B78181CFFF7EFFE031C1A1C1849D7
:1022400080239B04902080010090081C111C012217
:10225000FEF786FCC046124B181C0421FEF7CAFC90
:10226000031C002BF7D03C1C0F340D4B181CFEF741
:10227000B5FC031C2370C046094B181C2021FEF737
:10228000B9FC031C002BF7D0054B181C2021FEF7CE
:10229000D7FC3B1C0F331B78181CBD4605B090BD06
:1022A000005400404800002080B582B000AFFB1D04
:1022B0001870BB1D19707B1D1A70FB1D1B78181C34
:1022C000FFF778FF031CDBB2BA1D1278D243D2B2FB
:1022D0001340DAB27B1D1B781343DBB2DBB2FA1D6D
:1022E0001278101C191CFFF7EDFEBD4602B080BD30
:1022F00080B582B000AF021CFB1D1A70034BFA1DA3
:1023000012781A70BD4602B080BDC0464800002059
:1023100080B500AF044B1B781A1C044B9200D358B5
:10232000181CBD4680BDC04648000020300000207B
:1023300080B584B000AF78600023FB60314BFB6058
:102340007B689B79002B4DD02E4B2E4A11687A6802
:102350001268D2430A401A602A4B2A4A51687A68A6
:102360001268D2430A405A607B681B79FA68D31816
:10237000FB60FB68FA6811687A6812680A431A60A1
:10238000204B204A91687A681268D2430A409A60CA
:102390001C4B1C4AD1687A681268D2430A40DA6042
:1023A0007B685B79102B0ED1164B164A91687A68C0
:1023B00012680A439A60134B124AD1687A6812680D
:1023C0000A43DA601BE00F4BFB607B685B79FA68BD
:1023D000D318FB60FB68FA6811687A6812680A43D0
:1023E0001A600CE07B681B79FA68D318FB60FB6805
:1023F000FA6811687A681268D2430A401A60BD46CA
:1024000004B080BD0004014080B584B000AF7860A6
:102410003B1C0F3300221A700A4B5B697A68134029
:1024200004D03B1C0F3301221A7003E03B1C0F3316
:1024300000221A703B1C0F331B78181CBD4604B0D9
:1024400080BDC0460004014080B582B000AF786016
:10245000024B7A685A61BD4602B080BD000401405B
:10246000B0B584B000AF0A1CFB1D011C1970BB1D68
:102470001A700023FB60BB1D1A78032313409B00D6
:102480000F22111C99400B1CFB60184BBA1D1278CF
:102490009208D2B21549B81D00788008C0B2023047
:1024A00080004158F868C043014002329200D15088
:1024B0000E4BBA1D12789208D2B20C49B81D0078A2
:1024C0008008C0B2023080004058F91D0C78B91D58
:1024D0000D78032129408900251C8D40291C0143CA
:1024E00002329200D150BD4604B0B0BD00000140A0
:1024F00080B582B000AFBD4602B080BD80B582B06D
:1025000000AF9023DB05181C09210422FEF7C8FE4A
:102510009023DB05181C0A210422FEF7C1FE3B1C98
:10252000C022D2001A603B1C00225A713B1C0222BE
:102530001A713B1C0122DA713B1C01229A71902313
:10254000DA053B1C101C191CFEF7CEFDBD4602B07F
:1025500080BDC04680B582B000AF124B181C06216A
:102560000022FEF79DFE0F4B181C07210022FEF7EC
:1025700097FE3B1CC0221A603B1C03225A713B1C75
:1025800002221A713B1C00229A713B1C0122DA7153
:10259000044A3B1C101C191CFEF7A6FDBD4602B0E8
:1025A00080BDC0460004004880B582B000AF3B1C2F
:1025B00003221A603B1C00221A713B1C00229A71F4
:1025C0003B1C0122DA713B1C01225A71254A3B1C3B
:1025D000101C191CFEF788FD3B1CCF221A603B1C07
:1025E00000221A713B1C00229A713B1C0122DA71F5
:1025F0003B1C01225A719023DA053B1C101C191C4C
:10260000FEF772FD3B1C38221A603B1C01221A7136
:102610003B1C00229A713B1C0122DA713B1C0122F7
:102620005A71104A3B1C101C191CFEF75DFD3B1C27
:10263000802212021A603B1C01221A713B1C0022EC
:102640009A713B1C0122DA713B1C01225A719023C2
:10265000DA053B1C101C191CFEF746FDBD4602B0F6
:1026600080BDC0460004004880B582B000AF3B1C6E
:10267000802252001A603B1C01221A713B1C00226E
:102680009A713B1C0122DA713B1C01225A71902382
:10269000DA053B1C101C191CFEF726FDBD4602B0D6
:1026A00080BDC04680B584B000AF78600A1CFB1CBA
:1026B0001A700023FB6005E0FB680133FB607B6858
:1026C00001337B607B681B78FA1C12789A42F3D145
:1026D000FB68181CBD4604B080BDC04680B584B000
:1026E00000AF78601B4BBB60BB680433BB60BB684A
:1026F00000221A703B1C0F3302221A7013E0BB68D1
:10270000013BBB607A680F231340134AD25CBB685D
:102710001A707B681B117B603B1C0F333A1C0F3215
:102720001278013A1A703B1C0F331B78002BE6D14C
:10273000BB68013BBB60BB6878221A70BB68013B79
:10274000BB60BB6830221A70BB68181CBD4604B061
:1027500080BDC04678000020C02C000880B584B041
:1027600000AF78600023FB600CE0FB68DA00FB68D8
:102770005B00D2187B681B78D318303BFB607B680A
:1027800001337B607B681B78002BEED1FB68181C43
:10279000BD4604B080BDC04680B586B000AF78604D
:1027A00001237B610023BB607B68181C0021FFF7BD
:1027B00079FF031C013BFB601DE0FB687A68D318BE
:1027C0001B78303B3B613B69092B08DD3B69302BB3
:1027D00001DD272300E007233A69D31A3B613B69F7
:1027E0007A695343BA68D318BB607B691B017B616C
:1027F000FB68013BFB60FB68002BDEDABB68181C42
:10280000BD4606B080BDC04680B586B000AFF8605A
:102810007A603B1C0B330A1C1A7000237B6109E0B1
:10282000FB685A1CFA603A1C0B3212781A707B69EA
:1028300001337B617A697B689A42F1D3BD4606B069
:1028400080BDC04680B584B000AF78600023FB60D7
:102850007B689B78002B3CD0244B7A6812789208D6
:10286000D2B2C0329200D358FB607B681B781A1C2E
:1028700003231340DB00FF22101C9840031CDA43A3
:10288000FB681340FB607B685B789A01FF231A406A
:102890007B681B78191C03230B40DB00111C99403B
:1028A0000B1CFA681343FB60104B7A68127892088D
:1028B000D2B2C0329200F968D1500C4B7A681278CB
:1028C000111C1F220A400121081C9040021C1A60A2
:1028D00009E0064A7B681B78191C1F230B40012165
:1028E00099408023D150BD4604B080BD00E100E096
:1028F000002934D00123002210B488422CD30124B3
:102900002407A14204D2814202D209011B01F8E747
:10291000E400A14204D2814202D249005B00F8E700
:10292000884201D3401A1A434C08A04202D3001B2C
:102930005C0822438C08A04202D3001B9C0822435F
:10294000CC08A04202D3001BDC082243002803D09D
:102950001B0901D00909E3E7101C10BC70470028CF
:1029600001D00020C04307B4024802A140180290E1
:1029700003BDC046190000000029F0D003B5FFF7E1
:10298000B9FF0EBC4243891A1847C0467047C0467B
:102990008A0200083E0300085A0300089004000859
:1029A0008A0300085265616420000000206F6E20D9
:1029B000646576696365200053796E7461783A20A6
:1029C00072203C7265673E005772697474656E20B0
:1029D0000000000020746F2072656769737465726F
:1029E000200000005265676973746572206163742A
:1029F000697665206973200053796E7461783A2096
:102A000069203C7265673E00446576696365200015
:102A100020697320616374697665000053796E7470
:102A200061783A2073203C736C6176653E0D0A092B
:102A3000303A20414439393834410D0A09313A20BD
:102A4000414456373531310D0A09323A2041445656
:102A5000373238300D0A09333A204144563733397A
:102A600031000000436F6D6D616E64733A0D0A00B2
:102A70000920723A20726561642072656769737417
:102A800065720D0A000000000920773A207772690C
:102A900074652072656769737465720D0A000000C1
:102AA0000920693A20736574206163746976652032
:102AB0007265676973746572202877726974652915
:102AC0000D0A00000920733A207365742061637455
:102AD000697665206465766963650D0A000000000B
:102AE0004952512052454349564544204C494E4590
:102AF0002035210D0A000000495251207374617481
:102B000075733A20000000000D0A00004361626CFA
:102B10006520696E7365727465642C20696E6974D2
:102B200069616C697A696E672E2E2E0D0A000000AD
:102B30004361626C652072656D6F7665640D0A0095
:102B400052656164696E6720454449443A0D0A0044
:102B50004952512052454349564544204C494E451F
:102B60002038210D0A0000004952512052454349A6
:102B7000564544204C494E452034210D0A000000A2
:102B800062130008E41400086C160008EE17000831
:102B90007019000842616420526563656976657248
:102BA00020424B53560000005269204D69736D61FD
:102BB00074636800506A204D69736D6174636800C6
:102BC000493243204572726F722028757375616CAB
:102BD0006C792061206E6F2D61636B29000000000D
:102BE00054696D6564204F75742057616974696E0E
:102BF0006720666F7220446F776E73747265616DC3
:102C000020526570656174657220444F4E45000026
:102C10004D61782043617363616465206F66205263
:102C20006570656174657273204578636565646578
:102C3000640000005348412D3120486173682043EF
:102C40006865636B206F66204B5356204C69737424
:102C5000204661696C656400546F6F204D616E7928
:102C6000204465766963657320436F6E6E65637497
:102C7000656420746F2052657065617465722054BC
:102C80007265650041443939383441004144563752
:102C900035313100414456373238300041445637DF
:102CA0003339310045444944000000003620000813
:102CB0003A2000083E200008422000084620000874
:102CC0003031323334353637383941424344454662
:042CD0000000000000
:102CD40000000000010203040102030406070809BE
:102CE400942B0008A82B0008B42B0008C02B000864
:102CF400E02B0008102C0008342C0008582C000885
:102D0400842C00088C2C0008942C00089C2C0008AF
:042D1400A42C0008E3
:0400000508000000EF
:00000001FF
