:020000040800F2
:1000000000100020A5100008F1100008F1100008F1
:1000100000000000000000000000000000000000E0
:10002000000000000000000000000000F1100008C7
:100030000000000000000000F1100008F1100008AE
:10004000F1100008F1100008F1100008F11000088C
:10005000F1100008F1100008F1100008E517000881
:10006000F1100008F1100008F1100008F11000086C
:10007000F1100008F1100008F1100008F11000085C
:10008000F1100008F110000800000000F110000855
:10009000F1100008F1100008F1100008F11000083C
:1000A000F1100008F1100008F1100008F91800081C
:1000B000F110000800000000F1100008000000002E
:1000C0005FF808F180B586B000AF8023DB01181C13
:1000D000012100F091FB03F0C5FB01F0D9FC184AA7
:1000E000184B101C191C012202F0E2F83B1CE12203
:1000F00052021A603B1C00225A603B1C00229A608C
:100100003B1C0022DA603B1C00225A613B1C0C2283
:100110001A610B4A3B1C101C191C01F0DBFF084B39
:10012000181C012102F086F8074B181C0021202220
:1001300003F04AFB054B00221A70BD4606B080BD95
:1001400000380140050105007800002098000020DB
:1001500080B582B000AF021CFB1D1A70C046094B6F
:10016000181C802102F0E6F8031C002BF7D0FB1DC1
:100170001B789BB2034A101C191C02F079F8BD468B
:1001800002B080BD0038014080B582B000AF786019
:1001900012E0C0460C4B181C802102F0CBF8031C67
:1001A000002BF7D07B681B78074A101C191C02F043
:1001B0005FF87B6801337B607B681B78002BE8D19C
:1001C000BD4602B080BDC0460038014080B500AFDA
:1001D000044A054B101C191C02F0CAF8031C181C19
:1001E000BD4680BD003801400501050080B500AF67
:1001F000044B181C02F04EF8031CDBB2181CBD4661
:1002000080BDC0460038014080B586B000AF0023F5
:100210007B6180239B02181C012100F0CFFA802310
:10022000DB02181C012100F0C9FAFFF74BFFD54B88
:10023000181CFFF7A9FF03F0E5FA03F03DFB03F0FC
:100240009BFB02F009F901F0A3FB00F087FF02F02D
:100250007DFD00237B6102E07B6901337B617A696C
:10026000C94B9A42F8D9C94B181CFFF78DFFC84BF0
:10027000181CFFF789FF01F02FFE002001F046FD5A
:10028000C24B181CFFF780FFC24B181CFFF77CFF06
:1002900001F02EFEBD4B181CFFF776FF02F0C2FEE8
:1002A000031C002B49D03B1C133300221A70BA4B9D
:1002B000181CFFF769FFB94B181CFFF765FF0020FA
:1002C00000F050FF031C191C3B1C13333A1C133263
:1002D00012780A431A70012000F044FF031C191C15
:1002E0003B1C13333A1C133212780A431A70022053
:1002F00000F038FF031C191C3B1C13333A1C13324B
:1003000012780A431A70032000F02CFF031C191CFA
:100310003B1C13333A1C133212780A431A703B1CED
:1003200013331B78002B04D1984B181CFFF72CFFBC
:1003300003E09B4B181CFFF727FF00F0AFFF031CE7
:10034000002B45D0974B181CFFF71EFF964B181C2F
:10035000FFF71AFF00237B6133E0381C1230391C91
:1003600011313A1C10327B6900F0A8FF3B1C12339C
:100370001B78002B02D0012B0ED01BE0002002F0D6
:10038000B7F93B1C11331A783B1C10331B78101C37
:10039000191C02F097F811E0012002F0A9F93B1CAA
:1003A00011331A783B1C10331B78101C191C02F0F7
:1003B00089F803E07D4B181CFFF7E6FE7B690133EB
:1003C0007B617B69C32BC8D9704B181CFFF7DCFE1F
:1003D00000237B61B2E0764B7A699200D358181CF7
:1003E00000F046FF031C002B00D1A4E0714B181C49
:1003F000FFF7CAFE7B690133181C03F005F9031CE3
:10040000181CFFF7C1FE6C4B181CFFF7BDFE684BB4
:100410007A699200D358181C00F0E4FF031CDAB28A
:100420003B1D1A703B1D1B78012B0FD057DC002B96
:1004300056D15F4B7A699200D3580133181C00F0F3
:10044000D1FF031CDAB23B1D5A7049E0584B7A6960
:100450009200D3580133181C00F0C4FF031CDAB219
:100460003B1D9A70524B7A699200D3580233181C84
:1004700000F0B8FF031CDAB23B1DDA704C4B7A690E
:100480009200D3580333181C00F0ACFF031CDAB2FF
:100490003B1D1A71464B7A699200D3580433181CDD
:1004A00000F0A0FF031CDAB23B1D5A71404B7A6981
:1004B0009200D3580533181C00F094FF031CDAB2E5
:1004C0003B1DDA713A4B7A699200D3580633181CF7
:1004D00000F088FF031CDAB23B1D9A7100E0C046B1
:1004E000334B7A699200D3580833181C00F07AFF16
:1004F000031CDAB23B1D5A722D4B7A699200D35815
:100500000933181C00F06EFF031CDAB23B1D1A728F
:10051000274B7A699200D3580A33181C00F062FF07
:10052000031CDAB23B1D9A727B69DBB23A1D101CC8
:10053000191C02F0C5FC7B6901337B617B69062BCA
:1005400000D848E702F046F909E000237B6102E0A9
:100550007B6901337B617A69184B9A42F8D901F0C3
:10056000ABFC031C002BF0D0154B181CFFF70CFE46
:1005700002F016F9054B181CFFF706FE02F0A6FD67
:10058000FCE7C046283D00083F420F003C3D000804
:10059000443D00085C3D0008783D0008943D00089B
:1005A000B83D0008D43D0008FC3D0008203E00088E
:1005B0000C3D0008683E0008983E00083F0D03000F
:1005C0009C3E000880B582B000AF7860074B074AB8
:1005D000126B10218A431A63044B044A116B7A6828
:1005E0000A431A63BD4602B080BDC04600100240F7
:1005F00080B588B000AF78600023FB610023BB6149
:1006000000237B6100233B610023FB60654B5A683C
:100610000C231340FB61FB69042B07D0082B09D086
:10062000002B30D17B68604A1A6030E07B685E4AFC
:100630001A602CE05B4B5A68F0239B031340BB61AC
:10064000584B5A6880235B0213407B61BB699B0C4B
:100650000233BB617B69002B05D1BB69534A5A4306
:100660007B681A6013E04F4BDA6A0F2313400133A3
:100670003B614D48396903F0F3F9031CBA695A43E9
:100680007B681A6003E07B68474A1A60C046454BA6
:100690005A68F0231340FB61FB691B09FB61444A64
:1006A000FB69D3181B78DBB2FB607B681A68FB68B8
:1006B000DA407B685A603B4B5A68E023DB0013400A
:1006C000FB61FB691B0AFB61394AFB69D3181B7884
:1006D000DBB2FB607B685A68FB68DA407B689A6033
:1006E000304B1A6B80235B00134003D17B68314A87
:1006F000DA6010E02B4B5A688023DB01134005D1F0
:100700007B689B685A087B68DA6004E07B689B68BA
:100710009A087B68DA60234B1A6B4023134003D19D
:100720007B68254A1A6103E07B68802212021A6105
:100730001C4B1A6B1023134003D17B681A4A5A6171
:1007400003E07B681A687B685A61164B1A6B0323B7
:10075000134004D17B689A687B689A611EE0114B54
:100760001A6B03231340012B04D17B681A687B6842
:100770009A6113E00B4B1A6B03231340022B04D135
:100780007B68802212029A6108E0064B1A6B0323F1
:100790001340032B02D17B68034A9A61BD4608B01F
:1007A00080BDC0460010024000127A0000093D00E2
:1007B00000000020809FD5001280000080B582B02C
:1007C00000AF78600A1CFB1C1A70FB1C1B78002B06
:1007D00006D0084B074A51697A680A435A6106E015
:1007E000044B044A52697968C9430A405A61BD46BC
:1007F00002B080BD0010024080B582B000AF7860CA
:100800000A1CFB1C1A70FB1C1B78002B06D0084B23
:10081000074A91697A680A439A6106E0044B044AE0
:1008200092697968C9430A409A61BD4602B080BDA9
:100830000010024080B582B000AF78600A1CFB1C3B
:100840001A70FB1C1B78002B06D0084B074AD16995
:100850007A680A43DA6106E0044B044AD26979688F
:10086000C9430A40DA61BD4602B080BD00100240B3
:1008700080B500AFBFF34F8F024B034ADA60BFF37E
:100880004F8FFEE700ED00E00400FA0580B582B06E
:1008900000AF78607B6801331B78782B06D17B68CA
:1008A0000233181C02F058FF031C04E07B68181C7C
:1008B00002F034FF031C181CBD4602B080BDC046C8
:1008C00080B594B000AF78600A1CFB1C1A707B687E
:1008D00002337B647B680233FB6402E0FB6C013310
:1008E000FB64FB6C1B78202B03D0FB6C1B78002B6C
:1008F000F4D1FB6C1B78202B05D1FB6C00221A7005
:10090000FB6C0133FB647B681B78623B182B00D9BE
:10091000EDE29A00C54BD3181B689F4600233B6449
:10092000FB1C1B78022B26D97B6C181CFFF7AEFF33
:10093000031CFB63FB6BDBB2181C01F03BFE031CCA
:100940003B643B6C181C022102F0A8FE031CBB6335
:10095000B74B181CFFF718FCBB6B181CFFF714FCF7
:10096000B44B181CFFF710FC01F0D2FE031C181C3E
:10097000FFF70AFC1BE3B04B181CFFF705FC16E35E
:10098000FB1C1B78022B31D97B6C181CFFF77EFFF8
:10099000021C3B1C37331A70FB6C181CFFF776FFE8
:1009A000031C3B633B6BDBB23A1C37321278101CE2
:1009B000191C01F087FDA14B181CFFF7E5FBFB6C30
:1009C000181CFFF7E1FB9E4B181CFFF7DDFB7B6C4F
:1009D000181CFFF7D9FB974B181CFFF7D5FB01F04C
:1009E00097FE031C181CFFF7CFFBE0E2954B181C89
:1009F000FFF7CAFBDBE2FB1C1B78022B1DD97B68CF
:100A00000233181C02F08AFE021C3B1C2F331A70A2
:100A10003B1C2F331B78181C01F06AFE8A4B181CF4
:100A2000FFF7B2FB01F074FE031C181CFFF7ACFBD0
:100A3000864B181CFFF7A8FBB9E2854B181CFFF783
:100A4000A3FBB4E20023BB62FB1C1B78022B1BD967
:100A50007B6C181CFFF71AFF031C7B627B6A181C57
:100A600000F0BCFB031CBB62BB6A181C082102F02F
:100A700015FE031C3B626E4B181CFFF785FB3B6A9F
:100A8000181CFFF781FB92E2724B181CFFF77CFBEE
:100A90008DE2FB1C1B78022B25D97B6C181CFFF701
:100AA000F5FE031CFB61FB6C181CFFF7EFFE031C3B
:100AB000BB61BA69FB69101C191C00F0A9FB031C7F
:100AC000002B07D15D4B181CFFF75EFB7B6C181CDD
:100AD000FFF75AFB604B181CFFF756FBFB6C181C0A
:100AE000FFF752FB63E25D4B181CFFF74DFB5EE224
:100AF000FB1C1B78022B18D97B6C1B78592B19D146
:100B00007B6C01331B78452B14D17B6C02331B7833
:100B1000532B0FD1002000F025FB031C002B09D123
:100B20004F4B181CFFF730FB41E24E4B181CFFF7F0
:100B30002BFB3CE23BE2FB1C1B78022B18D97B6CA5
:100B40001B78592B19D17B6C01331B78452B14D1A1
:100B50007B6C02331B78532B0FD1032000F002FB78
:100B6000031C002B09D1404B181CFFF70DFB1EE2A4
:100B70003E4B181CFFF708FB19E218E27B6C1B7850
:100B8000592B18D17B6C01331B78452B13D17B6C0F
:100B900002331B78532B0ED102F08AF9031C002B71
:100BA00004D1334B181CFFF7EFFA09E0314B181C46
:100BB000FFF7EAFA04E0304B181CFFF7E5FAF6E11C
:100BC000F5E1FB1C1B78022B1ED97B6C181CFFF770
:100BD0005DFE021C3B1C17331A703B1C17331B783D
:100BE000181C00F0BFFA031C002B12D1234B181C59
:100BF000FFF7CAFA7B680233181CFFF7C5FA204BCF
:100C0000181CFFF7C1FAD2E11E4B181CFFF7BCFA03
:100C1000CDE1CCE101F022FA01F054FA031C3B6172
:100C20003B1C4A3300221A8055E0C046404A000867
:100C3000703F0008783F0008843F00089C3F000890
:100C4000A83F0008B83F0008DC3F0008E43F000868
:100C5000F03F00082C4000084840000858400008B9
:100C600080400008AC400008BC400008E840000894
:100C7000F840000828410008604100087041000861
:100C8000784100088C4100083B1C4A331B883A69B4
:100C9000D3181B78181C022102F000FD031CFB6016
:100CA000FB68181CFFF770FAC24B181CFFF76CFAB0
:100CB0003B1C4A331B8801331A1C0F23134003D1FA
:100CC000BD4B181CFFF760FA3B1C4A331A883B1CCB
:100CD0004A3301321A803B1C4A331B887F2BD3D9FD
:100CE00065E1B64B181CFFF74FFAFFF7C1FDFB1C7F
:100CF0001B78022B21D97B6C181CFFF7C7FD021C47
:100D00003B1C0B331A70FB6C181CFFF7BFFD021C59
:100D10003B1C0A331A703B1C0B331A783B1C0A33FA
:100D20001B78101C191C00F075FB031C002B09D14B
:100D3000A34B181CFFF728FA39E1A24B181CFFF748
:100D400023FA34E133E1FB1C1B78022B23D97B6CA3
:100D5000181CFFF79BFD021C3B1C09331A703B1C3F
:100D600009331B78002B04D03B1C09331B78072B5D
:100D700004D9954B181CFFF707FA11E03B1C093307
:100D80001B78013BDBB2181C02F0BCF88C4B181C22
:100D9000FFF7FAF904E08D4B181CFFF7F5F906E1AF
:100DA00005E18B4B181CFFF7EFF98A4B181CFFF776
:100DB000EBF9894B181CFFF7E7F9884B181CFFF774
:100DC000E3F9874B181CFFF7DFF9864B181CFFF778
:100DD000DBF9794B181CFFF7D7F9834B181CFFF789
:100DE000D3F9824B181CFFF7CFF9734B181CFFF790
:100DF000CBF97F4B181CFFF7C7F97E4B181CFFF788
:100E0000C3F97D4B181CFFF7BFF97C4B181CFFF78B
:100E1000BBF97B4B181CFFF7B7F97A4B181CFFF78F
:100E2000B3F9794B181CFFF7AFF9634B181CFFF7A8
:100E3000ABF9764B181CFFF7A7F95F4B181CFFF7AF
:100E4000A3F9734B181CFFF79FF9724B181CFFF79F
:100E50009BF9594B181CFFF797F9574B181CFFF7D4
:100E600093F96D4B181CFFF78FF96C4B181CFFF7AB
:100E70008BF9514B181CFFF787F9694B181CFFF7CA
:100E800083F9684B181CFFF77FF9674B181CFFF7B5
:100E90007BF9664B181CFFF777F9654B181CFFF7B9
:100EA00073F9644B181CFFF76FF9634B181CFFF7BD
:100EB0006BF9624B181CFFF767F9614B181CFFF7C1
:100EC00063F9604B181CFFF75FF95F4B181CFFF7C5
:100ED0005BF9394B181CFFF757F95C4B181CFFF7EF
:100EE00053F964E05A4B181CFFF74EF95FE0594B79
:100EF000181CFFF749F9584B181CFFF745F9574BD9
:100F0000181CFFF741F9564B181CFFF73DF92A4B07
:100F1000181CFFF739F9534B181CFFF735F9524BE2
:100F2000181CFFF731F9514B181CFFF72DF9504BE6
:100F3000181CFFF729F9204B181CFFF725F94D4B1A
:100F4000181CFFF721F94C4B181CFFF71DF94B4BF0
:100F5000181CFFF719F9184B181CFFF715F9484B27
:100F6000181CFFF711F9474B181CFFF70DF9464BFA
:100F7000181CFFF709F9454B181CFFF705F9444BFE
:100F8000181CFFF701F90C4B181CFFF7FDF8414B3B
:100F9000181CFFF7F9F8404B181CFFF7F5F83F4B0A
:100FA000181CFFF7F1F83E4B181CFFF7EDF8BD4693
:100FB00014B080BDA4410008A8410008AC4100085D
:100FC000C0410008C8410008044200082C42000843
:100FD000544200087842000884420008FC4200089D
:100FE0004843000894430008E84300080044000810
:100FF000884400089C440008C444000814450008C4
:101000003C45000864450008C4450008184600082F
:101010007C46000888460008AC460008F0460008F8
:101020001C470008284700083447000840470008CC
:101030004C470008584700086447000874470008F8
:101040008447000890470008A0470008A44700080C
:10105000E4470008E8470008F0470008084800088F
:10106000204800083C48000844480008644800083C
:1010700080480008A0480008B4480008EC48000870
:1010800024490008344900085849000890490008DC
:10109000CC490008F8490008004A0008144A000832
:1010A000284A00080C488546002103E00B4B5B589A
:1010B000435004310A480B4B42189A42F6D30A4A6D
:1010C00002E0002313600432084B9A42F9D300F087
:1010D000D3FAFFF799F8FEE700100020904F0008C0
:1010E00000000020440000204400002008050020EB
:1010F000FEE7000080B584B000AF021CFB1D1A7033
:101100000023FB60FB1D1B78012B0BD002DC002BA6
:1011100005D010E0022B08D0032B09D00BE00A4BBE
:10112000FB600CE0094BFB6009E0094BFB6006E04B
:10113000084BFB6003E0084B181CFFF725F8FB6821
:10114000181CBD4604B080BD007000080074000883
:1011500000780008007C0008C04A000880B500AF95
:10116000BD4680BD80B584B000AF021CFB1D1A7067
:101170003B1C0F3300221A7002F02CF8342002F0CE
:10118000E1F8FB1D1B78181CFFF7B4FF031C002BB4
:1011900014D0FB1D1B78181CFFF7ACFF031C181C98
:1011A00002F03AF8031C042B0CD00B4B181CFEF772
:1011B000EBFF3B1C0F3301221A7003E03B1C0F3383
:1011C00001221A7002F01CF83B1C0F331B78181C0C
:1011D000BD4604B080BDC046D04A000880B582B08C
:1011E00000AF78607A68074B9A4201D9064B04E059
:1011F0007B68064A9B189B001B68181CBD4602B002
:1012000080BDC046FF030000EFBEADDE001C000243
:1012100080B584B000AF786039603B1C0F3300228A
:101220001A7001F0D7FF342002F08CF87B680E4A68
:101230009B189A003B68101C191C02F02BF8031C29
:10124000042B07D0094B181CFEF79EFF3B1C0F33E5
:1012500001221A7001F0D4FF3B1C0F331B78181CBD
:10126000BD4604B080BDC046001C0002E84A00082C
:1012700090B583B000AF78607B689C000320FFF7D7
:1012800039FF031CE3181B68013301D0012300E080
:101290000023181CBD4603B090BDC04680B500AF0A
:1012A0000020FFF727FF031C1B68013301D0012337
:1012B00000E00023181CBD4680BDC04690B587B035
:1012C00000AFF860B9607A603B603B68FF2B00D9E3
:1012D00016E03B689C000020FFF70CFF031CE3189E
:1012E0001B687B617B691B0EDAB2FB681A707B6935
:1012F0001B0CDAB2BB681A707B69DAB27B681A70B1
:10130000BD4607B090BDC04680B584B000AF7860E0
:1013100039600023FB603B1C0B3300221A7001F084
:1013200059FF342002F00EF80020FFF7E3FE031C03
:10133000FB60FB68181C01F06FFF031C042B08D036
:10134000224B181CFEF720FF3B1C0B3301221A70A6
:101350001FE01EE03B681E4A9B189B007A68D3186A
:101360001B68FA68101C191C01F094FF031C042B65
:1013700006D1FB680433FB603B68013B3B6008E03F
:10138000144B181CFEF700FF3B1C0B3301221A7094
:1013900006E0FA68104B9A4202D83B68002BD9D17C
:1013A000FA680E4B9A4207D10D4B181CFEF7ECFE63
:1013B0003B1C0B3301221A7001F022FF3B1C0B3344
:1013C0001B78181CBD4604B080BDC046D04A00083A
:1013D000FFFFFF3FE84A0008FF7F00080080000889
:1013E000F84A000890B583B000AF78607B68FF2BA7
:1013F00001D9074B07E07B689C000320FFF77AFECA
:10140000031CE3181B68181CBD4603B090BDC04602
:10141000EFBEADDE90B585B000AF786039603B1CA3
:101420000F3300221A7001F0D5FE342001F08AFF3C
:101430007B689C000320FFF75DFE031CE2183B68FD
:10144000101C191C01F026FF031C042B07D0084BAD
:10145000181CFEF799FE3B1C0F3301221A7001F095
:10146000CFFE3B1C0F331B78181CBD4605B090BD4A
:10147000E84A000880B584B000AF78603960002386
:10148000FB607B681B680122191C91430A1C7B6866
:101490001A607B681B68FB60FA68274B1340FB608F
:1014A0003B685A683B689B681B021343FA68134306
:1014B000FB607B68FA681A603B681A681F4B1A4029
:1014C0007B681A617B681B6801221A437B681A607B
:1014D0000023FB607B68FA689A607B68FA68DA60D0
:1014E0003B689A693B681B691343FB607B68FA6839
:1014F0009A607B689B68802212021A437B689A601C
:101500003B68DB68FB607B681A68FB681A437B6892
:101510001A607B685B68FB60FA68094B1340FB60EC
:101520003B685B69FA681343FB607B68FA685A6042
:10153000BD4604B080BDC046FFE0CF00FFFFFFF016
:10154000FF7FFF0780B582B000AF78600A1CFB1CEC
:101550001A70FB1C1B78002B06D07B681B680122CD
:101560001A437B681A6007E07B681B680122191C1C
:1015700091430A1C7B681A60BD4602B080BDC0461C
:1015800080B586B000AFF8607B603B1C0A331980E1
:101590003B1C09331A7000237B61FB685B687B612D
:1015A0007A690E4B13407B613B1C0A331B889B05F9
:1015B0009A0D3B1C09331B781904FF231B040B40B5
:1015C0001A437B681A433B6A13437A6913437B616E
:1015D000FB687A695A60BD4606B080BD009800FC81
:1015E00080B582B000AF78600A1CFB1C1A70FB1C2F
:1015F0001A787B689A62BD4602B080BD80B582B021
:1016000000AF78607B685B6ADBB2181CBD4602B035
:1016100080BDC04680B584B000AF786039600023DB
:10162000BB603B1C0F3300221A707B689B69BB6058
:10163000BB683A681340BB60BB68002B04D03B1CFE
:101640000F3301221A7003E03B1C0F3300221A7083
:101650003B1C0F331B78181CBD4604B080BDC04630
:1016600080B582B000AF786039607B683A68DA6133
:10167000BD4602B080BDC04680B500AF1B4B1B4AC3
:10168000126801210A431A60184B184A5168184A17
:101690000A405A60154B154A1168164A0A401A60EA
:1016A000124B124A1168144A0A401A600F4B0F4A33
:1016B0005168124A0A405A600C4B0C4AD26A0F21F8
:1016C0008A43DA62094B094A116B0D4A0A401A63D0
:1016D000064B064A526B01218A435A63034B002290
:1016E0009A6000F00FF8BD4680BDC0460010024071
:1016F0000CB8FF08FFFFF6FEFFFFFBFFFFFFC0FF78
:10170000ACFEFFFF80B582B000AF00237B600023FA
:101710003B60314B304A1268802149020A431A600B
:101720002D4B1A6880239B0213403B607B6801337A
:101730007B603B68002B04D17A68A023DB019A42CE
:10174000EED1254B1A6880239B02134002D001235F
:101750003B6001E000233B603B68012B38D11F4B0D
:1017600011221A601C4B1C4A52685A601A4B1A4AC2
:1017700052685A60184B184A5168194A0A405A6010
:10178000154B154A5268882149030A435A60124B87
:10179000114A1268802149040A431A60C0460E4B60
:1017A0001A6880239B041340F9D00B4B0A4A5268F5
:1017B00003218A435A60084B074A526802210A43B0
:1017C0005A60C046044B5A680C231340082BF9D1C9
:1017D000BD4602B080BDC04600100240002002405D
:1017E000FFFFC0FF90B583B000AF202001F07CFE6A
:1017F000031C002B6DD0012000F07AFFFC1D962009
:1018000000F0D8FE031C2370FB1D1B78181C02215E
:1018100001F044FF031C3B602F4B181CFEF7B4FC87
:101820003B68181CFEF7B0FC2C4B181CFEF7ACFCF8
:10183000FB1D1B785BB2002B12DA422000F0BAFECF
:10184000031C1A1C4023134006D0254B181CFEF71E
:101850009BFC00F04DFB03E0224B181CFEF794FCB0
:10186000FB1D1A784023134003D01F4B181CFEF7B2
:101870008BFCFB1D1A782023134003D01B4B181C34
:10188000FEF782FCFB1D1A780423134003D0184B8B
:10189000181CFEF779FCC82000F08CFE031C1A1CF3
:1018A000F02313400CD0C82000F084FE031C1B0959
:1018B000DBB21A1C0F4B9200D358181CFEF764FCC5
:1018C000FB1D1B789620191C00F0FCFD202001F068
:1018D0002BFEBD4603B090BDD44B0008E44B00087E
:1018E000E84B00080C4C0008204C00083C4C000859
:1018F000504C00081000002098B500AFFEF766FCC1
:10190000031C002B3DD0204B1B781C1CFEF76EFCEB
:10191000031C1A1C1D4B1A551B4B1B781B4AD35C0E
:10192000181CFEF715FC184B1B78184AD35C0D2BBE
:1019300021D1154B1B78154A0021D1540A20FEF7FE
:1019400007FC114B1B78114A101C191CFEF7B8FF3D
:101950000D20FEF7FDFB0A20FEF7FAFB0A20FEF73A
:10196000F7FB0A4B181C0021202201F02DFF064B2B
:1019700000221A7005E0044B1B780133DAB2024BE7
:101980001A70BD4698BDC04698000020780000201F
:1019900080B586B000AF01200121FEF72DFF3B1D71
:1019A00020221A603B1D00221A713B1D00229A71F1
:1019B0003B1D0122DA713B1D00225A719023DA058A
:1019C0003B1D101C191C00F077F83B1D80225200B3
:1019D0001A603B1D00221A713B1D00229A713B1DAB
:1019E0000122DA713B1D00225A719023DA053B1D5A
:1019F000101C191C00F060F83B1D10221A603B1DE2
:101A000000221A713B1D00229A713B1D0122DA71DE
:101A10003B1D00225A719023DA053B1D101C191C36
:101A200000F04AF80020052101F08AFD002008217D
:101A300001F086FD0020042101F082FD3B1C1033E3
:101A4000982252001A603B1C103300221A713B1C72
:101A500010330C225A713B1C103301229A713B1C2B
:101A60001033181C01F0D4FC3B1C0C3307221A70F5
:101A70003B1C0C3300225A703B1C0C3301229A7021
:101A80003B1C0C33181C01F095FFBD4606B080BD11
:101A900080B582B000AF3B1D1B221A703B1D002297
:101AA0005A703B1D01229A703B1D181C01F082FFE9
:101AB000BD4602B080BDC04680B586B000AF78603C
:101AC000396000237B6100233B610023FB6000231E
:101AD0007B6185E07B690122101C9840031C3B61FF
:101AE0003B681B683A691340FB60FA683B699A429D
:101AF00073D13B681B79012B03D03B681B79022B08
:101B000038D17B689B687A6952000321081C904099
:101B1000021CD2431A407B689A607B689A683B68D3
:101B20005B79191C7B695B00081C9840031C1A43F5
:101B30007B689A607B689B889BB27A6992B201212C
:101B4000081C9040021C92B2D24392B213409AB247
:101B50007B689A807B689B889AB23B689B79191C4A
:101B60007B699BB2081C9840031C9BB213439AB23A
:101B70007B689A807B681B687A6952000321081C85
:101B80009040021CD2431A407B681A607B681A6836
:101B90003B681B79191C7B695B00081C9840031C7F
:101BA0001A437B681A607B68DB687A6992B25200DC
:101BB0000321081C9040021CD2431A407B68DA6063
:101BC0007B68DA683B68DB79191C7B695B00081C61
:101BD0009840031C1A437B68DA607B6901337B61A0
:101BE0007B690F2B00D875E7BD4606B080BDC046A7
:101BF00080B584B000AF78600A1CBB1C1A803B1C07
:101C00000F3300221A707B681B8A9BB2BA1C1288A1
:101C100013409BB2002B04D03B1C0F3301221A70DF
:101C200003E03B1C0F3300221A703B1C0F331B7860
:101C3000181CBD4604B080BD80B582B000AF78608E
:101C40000A1CBB1C1A80BB1C1A887B689A61BD46A3
:101C500002B080BD80B582B000AF78600A1CBB1CAA
:101C60001A807B68BA1C12881A85BD4602B080BDF6
:101C700090B585B000AF7860BB1C19807B1C1A70D2
:101C80000023FB600023BB607B1C1A78BB1C1988F7
:101C900007230B409B00111C99400B1CFB60BB1CD5
:101CA0001B88DB089BB21A1CBB1C1B88DB089BB281
:101CB000191C7B6808318900CB58B91C088807219A
:101CC000014089000F20041C8C40211CC94319408D
:101CD0007B6808329200D150BB1C1B88DB089BB28A
:101CE0001A1C7B6808329200D258FB681343BB6011
:101CF000BB1C1B88DB089BB21A1C7B680832920055
:101D0000B968D150BD4605B090BDC04680B582B01F
:101D100000AF021CFB1D1A70002000F0E9FCFB1D47
:101D20001B78002B00D0C4E00020012100F0CAFB8A
:101D30000120382100F0C6FB0220C02100F0C2FBC8
:101D40000320182100F0BEFB0420782100F0BAFB2C
:101D50000520002100F0B6FB0620802100F0B2FB38
:101D60000720002100F0AEFB0820802100F0AAFB34
:101D70000920002100F0A6FB0A20802100F0A2FB30
:101D80000B20002100F09EFB0C20802100F09AFB2C
:101D90000D20002100F096FB0E20802100F092FB28
:101DA0000F20002100F08EFB1020802100F08AFB24
:101DB0001120202100F086FB1220002100F082FB80
:101DC0001320202100F07EFB1420042100F07AFB78
:101DD00015200A2100F076FB1620062100F072FB88
:101DE0001720062100F06EFB1820002100F06AFB8E
:101DF0001920082100F066FB1A20002100F062FB88
:101E00001B20FF2100F05EFB1C20FF2100F05AFB8D
:101E10001D20782100F056FB1E20342100F052FBDB
:101E20001F20902100F04EFB2020072100F04AFBEC
:101E30002120202100F046FB2220322100F042FB2D
:101E40002320142100F03EFB2420082100F03AFB5F
:101E500025207F2100F036FB2620102100F032FBE8
:101E60002720702100F02EFB2820BF2100F02AFB44
:101E70002920022100F026FB2A20002100F022FB6D
:101E80002B20002100F01EFB2C20002100F01AFB6B
:101E90002D20082100F016FB2E20202100F012FB3F
:101EA0003620012100F00EFB3C200E2100F00AFB41
:101EB000C046BD4602B080BD80B500AF002000F036
:101EC00017FC242000F076FB031C7F229343DBB237
:101ED000181CBD4680BDC04680B500AF012000F093
:101EE00007FC9620FF2100F0EDFABD4680BDC046FC
:101EF00080B500AF012000F0FBFB0120002100F0C5
:101F0000E1FA0220182100F0DDFA0320002100F0A0
:101F1000D9FA1520002100F0D5FA1620002100F092
:101F2000D1FA1820082100F0CDFA3020042100F069
:101F3000C9FA3120032100F0C5FA3220E02100F077
:101F4000C1FA3320242100F0BDFA3420062100F02C
:101F5000B9FA3520402100F0B5FA3620D92100F039
:101F6000B1FA37200A2100F0ADFA3820002100F044
:101F7000A9FA39202D2100F0A5FA3A20002100F01D
:101F8000A1FA3B20402100F09DFA3C20042100F002
:101F900099FA4020802100F095FA4120102100F0AC
:101FA00091FA4920A82100F08DFA5520002100F077
:101FB00089FA5620082100F085FA9620202100F0A9
:101FC00081FA9820032100F07DFA9920022100F087
:101FD00079FA9C20302100F075FA9D20612100F0F3
:101FE00071FAA220A42100F06DFAA320A42100F030
:101FF00069FAA520442100F065FAAB20402100F0E9
:1020000061FAAF20142100F05DFABA20A02100F09F
:1020100059FADE209C2100F055FAE420602100F0FE
:1020200051FAFA207D2100F04DFA4820002100F0FD
:1020300049FA5520102100F045FA5620002100F001
:1020400041FA16203021302200F02EFB172000210B
:10205000012200F029FBBD4680BDC04690B583B08B
:1020600000AF022000F044FBBB1D00221A801EE0DE
:10207000BB1D1C88BB1D1B88DBB2181C00F09AFA24
:10208000031C1A1C0D4B1A55BB1D00221A8004E0BC
:10209000BB1D1A88BB1D01321A80BB1D1A88084B54
:1020A0009A42F5D9BB1D1A88BB1D01321A80BB1D8F
:1020B0001B887F2BDCD9BD4603B090BD9C0000205F
:1020C0000F27000080B500AF014B181CBD4680BD36
:1020D0009C00002080B58CB000AF78603960002390
:1020E000FB620023BB6200237B627B681B680122CA
:1020F000191C91430A1C7B681A607B685B687B62D1
:102100007A6A474B13407B623B689B687A6A134349
:102110007B627B687A6A5A607B681B687B627A6A3A
:10212000404B13407B623B685A683B68DB681A434C
:102130003B681B6913437A6A13437B627B687A6A44
:102140001A607B689B687B627A6A374B13407B62BC
:102150003B685B697A6A13437B627B687A6A9A6040
:102160003B1C0833181CFEF743FA7A682F4B9A423F
:1021700004D13B1C08339B69BB6203E03B1C083362
:102180009B68BB627B681A6880231B02134014D0D3
:10219000BB6A5A003B681B68101C191C01F060FCEC
:1021A000031CFB62BB6A5A003B681B68101C191CAD
:1021B00001F09AFC0B1C7B6210E03B681B68B86A5C
:1021C000191C01F04DFC031CFB623B681B68BA6ADA
:1021D000101C191C01F088FC0B1C7B623B681B68FF
:1021E0005A087B6A9A4202D8FB6A0133FB627B6819
:1021F0001A6880231B0213400AD0FA6A0F23134087
:102200005B087B62FA6A0A4B1A407B6A1343FB62E3
:10221000FB6A9AB27B689A81BD460CB080BDC0460D
:10222000FFCFFFFFF3E9FFFFFFFCFFFF0038014096
:10223000F0FF000080B582B000AF78600A1CFB1C84
:102240001A70FB1C1B78002B06D07B681B680122D0
:102250001A437B681A6007E07B681B680122191C1F
:1022600091430A1C7B681A60BD4602B080BDC0461F
:1022700080B582B000AF78600A1CBB1C1A80BB1C02
:102280001B88DB05DB0D9AB27B681A85BD4602B060
:1022900080BDC04680B582B000AF78607B689B8C03
:1022A0009BB2DB05DB0D9BB2181CBD4602B080BDA6
:1022B00080B588B000AFF860B960FB1D1A700023CC
:1022C000BB6100237B6100233B610023FB61FB6852
:1022D000FB61BB689BB21B0A9BB2BB61BA68FF2360
:1022E00013407B617B690122111C99400B1C3B61EF
:1022F000BB69022B03D1FB690433FB6105E0BB69B9
:10230000032B02D1FB690833FB61FB1D1B78002BFB
:1023100006D0FB69FA6911683A690A431A6006E057
:10232000FB69FA6912683969C9430A401A60BD46F7
:1023300008B080BD80B584B000AF786039603B1CC8
:102340000F3300221A707B68DB693A68134004D0AF
:102350003B1C0F3301221A7003E03B1C0F33002299
:102360001A703B1C0F331B78181CBD4604B080BD8F
:1023700080B586B000AF786039600023FB60002331
:102380007B610023BB603B1C133300221A703B6847
:102390009BB21B0A9BB2BB603A68FF2313407B6170
:1023A0007B690122111C99400B1C7B61BB68012BCE
:1023B00005D17B681A687B6913407B610DE0BB68BF
:1023C000022B05D17B685A687B6913407B6104E06E
:1023D0007B689A687B6913407B613B681B0CFB60E0
:1023E000FB680122111C99400B1CFB607B68DA69B9
:1023F000FB681340FB607B69002B07D0FB68002B58
:1024000004D03B1C133301221A7003E03B1C13332E
:1024100000221A703B1C13331B78181CBD4606B0F3
:1024200080BDC04680B582B000AF021CFB1D1A7093
:10243000FB1D1B78012B05D0022B05D0002B05D1ED
:10244000982304E0722302E07E2300E09823181C06
:10245000BD4602B080BDC04680B588B000AF8023C5
:102460009B03181C0121FEF7E5F90020FEF7AAF8EE
:1024700001F0CCF93B1D00225A603B1D00229A60FE
:102480003B1D10221A613B1D0022DA603B1D002219
:102490005A613B1D094A1A603B1D00229A61084A95
:1024A0003B1D101C191CFEF7E5FF054B181C0121F4
:1024B000FFF748F8BD4608B080BDC046090332109A
:1024C0000054004080B584B002AF0A1CFB1D011C03
:1024D0001970BB1D1A70C046344A80231B02101CA1
:1024E000191CFFF797F8031C012BF5D0304B1B7814
:1024F000181CFFF797FF031C01339AB22B49802366
:102500005B04802080010090081C111C0122FFF751
:1025100037F8C046254B181C0221FFF77BF8031C37
:10252000002BF7D0214AFB1D1B78101C191CFFF74C
:1025300057F8C0461D4B181C8021FFF76BF8031C91
:10254000002BF7D01A4B1B78181CFFF76BFF031CEE
:1025500001339AB2154980239B0400200090081C87
:10256000111C0122FFF70CF8C046104B181C022169
:10257000FFF750F8031C002BF7D00C4ABB1D1B784B
:10258000101C191CFFF72CF8C046084B181C202102
:10259000FFF740F8031C002BF7D0044B181C202138
:1025A000FFF75EF8BD4602B080BDC0460054004053
:1025B0004400002090B587B002AF021CFB1D1A70CA
:1025C0003B1C0F3300221A70C046354A80231B0281
:1025D000101C191CFFF71EF8031C012BF5D0314B02
:1025E0001B78181CFFF71EFF031C2D4A8021890150
:1025F0000091101C191C01220023FEF7C1FFC046E8
:10260000274B181C0221FFF705F8031C002BF7D0FD
:10261000234AFB1D1B78101C191CFEF7E1FFC04666
:102620001F4B181C4021FEF7F5FF031C002BF7D0B1
:102630001C4B1B78181CFFF7F5FE031C1A1C1849CD
:1026400080239B04902080010090081C111C012213
:10265000FEF796FFC046124B181C0421FEF7DAFF66
:10266000031C002BF7D03C1C0F340D4B181CFEF73D
:10267000C5FF031C2370C046094B181C2021FEF720
:10268000C9FF031C002BF7D0054B181C2021FEF7B7
:10269000E7FF3B1C0F331B78181CBD4605B090BDEF
:1026A000005400404400002080B582B000AFFB1D04
:1026B0001870BB1D19707B1D1A70FB1D1B78181C30
:1026C000FFF778FF031CDBB2BA1D1278D243D2B2F7
:1026D0001340DAB27B1D1B781343DBB2DBB2FA1D69
:1026E0001278101C191CFFF7EDFEBD4602B080BD2C
:1026F00080B582B000AF021CFB1D1A70034BFA1D9F
:1027000012781A70BD4602B080BDC0464400002059
:1027100080B500AF044B1B781A1C044B9200D358B1
:10272000181CBD4680BDC04644000020300000207B
:1027300080B582B000AF184B181C2021FFF77CFA3F
:1027400000237B6002E07B6801337B607A68134B77
:102750009A42F8D9104B181C2021FFF77BFA00236E
:102760007B6002E07B6801337B607A680B4B9A42A6
:10277000F8D9094B181C2021FFF75EFA00237B6073
:1027800002E07B6801337B607A68044B9A42F8D997
:10279000BD4602B080BDC04600040048E70300000B
:1027A00080B500AF9023DA0580231B02101C191C92
:1027B000FFF742FA064B181C0821FFF73DFA044BBD
:1027C000181C1021FFF738FAFFF7B2FFBD4680BD95
:1027D0000004004880B500AF9023DA0580231B0277
:1027E000101C191CFFF736FA064B181C0821FFF7BE
:1027F00031FA044B181C1021FFF72CFAFFF798FF51
:10280000BD4680BD0004004880B500AF9023DA05C6
:1028100080231B02101C191CFFF71CFA064B181C06
:102820000821FFF717FA044B181C1021FFF704FAD0
:10283000FFF77EFFBD4680BD0004004880B500AFB5
:102840009023DA0580231B02101C191CFFF702FAE3
:10285000064B181C0821FFF7EFF9044B181C102138
:10286000FFF7EAF9FFF764FFBD4680BD00040048AA
:1028700080B500AF9023DA0580231B02101C191CC1
:10288000FFF7E8F9064B181C0821FFF7D5F9044BB0
:10289000181C1021FFF7DEF9FFF74AFFBD4680BD87
:1028A0000004004880B500AF9023DA0580231B02A6
:1028B000101C191CFFF7C0F9064B181C0821FFF764
:1028C000BBF9044B181C1021FFF7C4F9FFF730FFC8
:1028D000BD4680BD0004004880B500AFBFF34F8FF8
:1028E000024B034ADA60BFF34F8FFEE700ED00E0D2
:1028F0000400FA0590B585B000AF0023FB6000230B
:10290000BB6000237B60FB1C00221A700020FFF7D5
:10291000EFFEBB1C00221A700023FB602BE000239B
:102920007B607B1C3949FA688A1812781A703C1C43
:102930007B1C1B78181CFFF73DFE031C2370BB1C7F
:102940001B781B067A6813437B607B1C1B781B0477
:102950007A6813437B603B1C1B787A6813437B6067
:102960002B4BBA6892007968D150BB680133BB60C9
:10297000FB680133FB60FB682A2BD0D90120FFF7ED
:10298000B7FEBB1C01221A700023FB602BE0002362
:102990007B607B1C1F49FA688A1812781A703C1CED
:1029A0007B1C1B78181CFFF705FE031C2370BB1C47
:1029B0001B781B067A6813437B607B1C1B781B0407
:1029C0007A6813437B603B1C1B787A6813437B60F7
:1029D0000F4BBA6892007968D150BB680133BB6075
:1029E000FB680133FB60FB68982BD0D9FC1C084ABC
:1029F000BB68101C191CFEF787FC031C2370FB1C12
:102A00001B78181CBD4605B090BDC046B44E0008EA
:102A1000F0010020184E000880B582B000AF021C03
:102A2000FB1D1A70FB1D1B78012B0BD002DC002B49
:102A300005D010E0022B08D0032B09D00BE0FFF7E4
:102A4000E3FE08E0FFF7FAFE05E0FFF711FF02E002
:102A5000FFF728FFC046BD4602B080BD80B582B0FA
:102A600000AF744B1B781A1C7349131C9B009B18F6
:102A70005B009B185B5C012B19D002DC002B07D09C
:102A8000D5E0022B00D1C0E0032B00D1CCE0CEE09A
:102A9000684B1B781A1C6849131C9B009B185B0031
:102AA0009B18CB185B78181CFFF7B6FFBFE0BB1D67
:102AB00000221A805F4B1B781A1C5F49131C9B0075
:102AC0009B185B009B18CB189B78181CFFF710FE17
:102AD000584B1B781A1C5849131C9B009B185B0011
:102AE0009B18CB18DB78002B16D0524B1B781A1C86
:102AF0005149131C9B009B185B009B18CB181B793A
:102B0000181CFFF757FD031C1B029AB2BB1D1B8844
:102B100013439AB2BB1D1A80464B1B781A1C4649B8
:102B2000131C9B009B185B009B18CB185B79181C2F
:102B3000FFF740FD031C191CBB1DBA1D12880A4378
:102B40001A803C4B1B781A1C3B49131C9B009B189A
:102B50005B009B18CB18DB79002B11D0354B1B7811
:102B60001A1C3549131C9B009B185B009B18CB1843
:102B70009B79191CBB1DBA1D12888A181A8010E097
:102B80002C4B1B781A1C2C49131C9B009B185B00B8
:102B90009B18CB189B791A1CBB1DB91D09888A1A72
:102BA0001A80244B1B781A1C2349131C9B009B186A
:102BB0005B009B18CB18DB78002B13D01D4B1B78C8
:102BC0001A1C1D49131C9B009B185B009B18CB18FB
:102BD0001A79BB1D1B881B0A9BB2DBB2101C191C87
:102BE000FFF770FC134B1B781A1C1349131C9B0036
:102BF0009B185B009B18CB185A79BB1D1B88DBB256
:102C0000101C191CFFF75EFC11E000F051F9031CC9
:102C1000002B04D1094B181CFDF7B6FA07E0084B4E
:102C2000181CFDF7B1FA02E0FFF756FEC046BD469C
:102C300002B080BD01050020A0010020FC4E00086C
:102C4000304F000880B500AF084B1B781A1C0849AC
:102C5000131C9B009B185B009B18CB1808335B78F8
:102C6000002B01D0FFF7FAFEBD4680BD0105002014
:102C7000A001002080B500AF084B1B781A1C084942
:102C8000131C9B009B185B009B18CB1808331B7808
:102C9000002B01D0FFF7E2FEBD4680BD01050020FC
:102CA000A001002080B500AF9023DB05181C012196
:102CB000FEF79EFF031C002B01D1002341E090236F
:102CC000DB05181C0221FEF793FF031C002B01D12A
:102CD000012336E09023DB05181C0421FEF788FF52
:102CE000031C002B01D102232BE09023DB05181CD1
:102CF0000821FEF77DFF031C002B01D1032320E0F8
:102D00009023DB05181C4021FEF772FF031C002BEB
:102D100001D1042315E09023DB05181C8021FEF768
:102D200067FF031C002B01D105230AE0064B181C8A
:102D30000121FEF75DFF031C002B01D1062300E0FB
:102D40000723181CBD4680BD0004004880B500AFB5
:102D5000544B00221A70544B00221A60534B00222D
:102D60001A70524B00225A70504B01221A724F4B6C
:102D700001225A724D4B01229A724C4B0022DA7298
:102D80004A4B01221A73494B0122DA74474B012244
:102D90001A75464B01225A75444B00229A75434BD3
:102DA0000222DA75414B01229A77404B0122DA77F1
:102DB0003E4A20230121D1543C4A21230021D154F1
:102DC0003A4A22230321D154384A29230121D154DC
:102DD000364A2A230121D154344A2B230121D154CC
:102DE000324A2C230121D154304A2E230121D154BF
:102DF0002E4A2F230121D1542C4A30233721D1547C
:102E00002A4A31233821D154284A32230821D15467
:102E1000264A33230121D154244A34230121D15499
:102E2000224A35230121D154204A36230121D1548D
:102E30001E4A37230121D1541C4A39230121D15480
:102E40001A4A3A230121D154184A3B233721D1543D
:102E5000164A3C233821D154144A3D230821D15429
:102E6000124A3E230021D154104A3F230121D1545C
:102E70000E4A40230121D1540C4A41230121D1544F
:102E80000A4A42230221D154084A4A230121D1543B
:102E9000064A4B230021D154044A4C230021D1542B
:102EA000BD4680BD0005002004050020A0010020D3
:102EB00080B500AFFFF71EFD031C181CBD4680BD8A
:102EC00080B582B000AF78600A1CFB1C1A70FB1C36
:102ED0001B78062B00D90FE0FB1C1A780849131C3D
:102EE0009B009B185B009B187A68C9180B23081C71
:102EF000111C1A1C00F064FEBD4602B080BDC04625
:102F0000A001002080B5424FBD4400AF021C414BE0
:102F10008220C000C019C3181A7000233E49C91985
:102F20000B6017E03C4AD2191368181CFEF75AFAD6
:102F3000011C3A4B8220C000C019C3183648C01982
:102F400002689200D1503449C9190B680133324AE2
:102F5000D21913603048C0190368FF2BE2D903204F
:102F6000FEF700F900232C49C9190B6018E0294B22
:102F70008222D200D219D3181A78294B9200D25843
:102F8000264B8220C000C019C3189200012149427B
:102F9000D1502149C9190B6801331F4AD219136056
:102FA0001D48C01903680F2BE1D900231A49C9191C
:102FB0000B6023E0194B8222D200D219D318164895
:102FC000C01902689200D358013310D0134B8221EC
:102FD000C900C919CB181048C01902689200D3580B
:102FE0000D49C9190A68101C191CFEF713FA0A4A80
:102FF000D219136801330848C01903600649C9197A
:103000000B68FF2BD6D9BD468223DB009D4480BDD3
:10301000F0FBFFFFF7FBFFFF0C040000FCFBFFFFD2
:10302000E04E000880B500AF9023DB05181C01219D
:10303000FEF7DEFD031C012B01D1002341E09023AC
:10304000DB05181C0221FEF7D3FD031C012B01D167
:10305000002336E09023DB05181C0421FEF7C8FD91
:10306000031C012B01D100232BE09023DB05181C4E
:103070000821FEF7BDFD031C012B01D1002320E038
:103080009023DB05181C4021FEF7B2FD031C012B29
:1030900001D1002315E09023DB05181C8021FEF7E9
:1030A000A7FD031C012B01D100230AE0064B181CCD
:1030B0000121FEF79DFD031C012B01D1002300E03F
:1030C0000123181CBD4680BD0004004880B582B0B5
:1030D00000AF00237B60374B1B78042B66D89A0027
:1030E000354BD3181B689F46324B01221A705DE0A6
:1030F000FFF7D8FD031C1A1C304B1A702F4B1B789E
:10310000072B03D02B4B02221A704FE04EE02C4BC2
:103110001B685A1C2A4B1A60294B1A68294B9A4281
:1031200002D9244B04221A70FFF7BCFD031C072BA5
:1031300003D1204B03221A7038E037E0FFF79AFDE5
:10314000FFF7B0FD031C072B0DD01C4B1B781A1C7E
:103150001D49131C9B009B185B009B18CB18083360
:103160009B78002B05D1134B01221A70144B0022BF
:103170001A6000237B6002E07B6801337B607A6821
:10318000124B9A42F8D911E00D4B1A68104B9A4233
:1031900003D8084B01221A7004E0FFF753FD054BDA
:1031A00001221A70064B00221A60C046BD4602B0CA
:1031B00080BDC04600050020684F000801050020C2
:1031C000040500202F750000A00100205FEA000028
:1031D000B80B000080B500AF064B1A69802313407E
:1031E00005D0044B044A5A60024B044A5A60BD465B
:1031F00080BDC0460020024023016745AB89EFCD6A
:1032000080B500AF034B034A126980210A431A615B
:10321000BD4680BD0020024090B585B000AF78600B
:103220003B1C0F3304221A703C1C0F34B0231B03C9
:10323000181C00F0BFF8031C23703B1C0F331B78D5
:10324000042B1DD1124B124A126902210A431A6142
:103250000F4B7A685A610E4B0D4A126940210A439E
:103260001A613C1C0F34B0231B03181C00F0A2F899
:10327000031C2370064B064A126902218A431A6115
:103280003B1C0F331B78181CBD4605B090BDC046D3
:103290000020024090B585B000AF786039603B1CDB
:1032A0000F3304221A700023BB603C1C0F34B02380
:1032B0001B03181C00F07EF8031C23703B1C0F330B
:1032C0001B78042B35D11E4B1D4A126901210A437C
:1032D0001A617B683A6892B21A803C1C0F34B023A2
:1032E0001B03181C00F066F8031C23703B1C0F33F3
:1032F0001B78042B17D17B680233BB60BB683A682C
:10330000120C92B21A803C1C0F34B0231B03181C01
:1033100000F050F8031C2370094B094A126901217F
:103320008A431A6105E0064B054A126901218A4366
:103330001A613B1C0F331B78181CBD4605B090BDAD
:103340000020024080B582B000AF7860024B7A68FE
:10335000DA60BD4602B080BD0020024080B582B078
:1033600000AFFB1D04221A70114BDA6801231340D1
:1033700003D0FB1D01221A7014E00D4BDA681023F4
:10338000134003D0FB1D02221A700BE0084BDA68D1
:103390000423134003D0FB1D03221A7002E0FB1D1F
:1033A00004221A70FB1D1B78181CBD4602B080BD9C
:1033B0000020024090B585B000AF78603B1C0F3311
:1033C00004221A703C1C0F34FFF7C8FF031C237043
:1033D00008E03C1C0F34FFF7C1FF031C23707B681F
:1033E000013B7B603B1C0F331B78012B02D17B68B8
:1033F000002BEED17B68002B03D13B1C0F33052241
:103400001A703B1C0F331B78181CBD4605B090BDCD
:1034100080B584B000AF78600023FB60314BFB6067
:103420007B689B79002B4DD02E4B2E4A11687A6811
:103430001268D2430A401A602A4B2A4A51687A68B5
:103440001268D2430A405A607B681B79FA68D31825
:10345000FB60FB68FA6811687A6812680A431A60B0
:10346000204B204A91687A681268D2430A409A60D9
:103470001C4B1C4AD1687A681268D2430A40DA6051
:103480007B685B79102B0ED1164B164A91687A68CF
:1034900012680A439A60134B124AD1687A6812681C
:1034A0000A43DA601BE00F4BFB607B685B79FA68CC
:1034B000D318FB60FB68FA6811687A6812680A43DF
:1034C0001A600CE07B681B79FA68D318FB60FB6814
:1034D000FA6811687A681268D2430A401A60BD46D9
:1034E00004B080BD0004014080B584B000AF7860B6
:1034F0003B1C0F3300221A700A4B5B697A68134039
:1035000004D03B1C0F3301221A7003E03B1C0F3325
:1035100000221A703B1C0F331B78181CBD4604B0E8
:1035200080BDC0460004014080B582B000AF786025
:10353000024B7A685A61BD4602B080BD000401406A
:10354000B0B584B000AF0A1CFB1D011C1970BB1D77
:103550001A700023FB60BB1D1A78032313409B00E5
:103560000F22111C99400B1CFB60184BBA1D1278DE
:103570009208D2B21549B81D00788008C0B2023056
:1035800080004158F868C043014002329200D15097
:103590000E4BBA1D12789208D2B20C49B81D0078B1
:1035A0008008C0B2023080004058F91D0C78B91D67
:1035B0000D78032129408900251C8D40291C0143D9
:1035C00002329200D150BD4604B0B0BD00000140AF
:1035D00080B584B000AF78600A1CFB1C1A70002311
:1035E000FB6005E0FB680133FB607B6801337B60B7
:1035F0007B681B78FA1C12789A42F3D1FB68181C7E
:10360000BD4604B080BDC04680B584B000AF7860D0
:10361000214BFB607B68002B19DBFB68013BFB60E7
:103620007B68181C0A2100F0BFFA0B1CDBB2303398
:10363000DAB2FB681A707B68181C0A2100F05EFA87
:10364000031C7B607B68002BE7D1FB681FE0FB68F5
:10365000013BFB607B68181C0A2100F0A5FA0B1CDB
:10366000DBB23022D31ADAB2FB681A707B68181CFE
:103670000A2100F043FA031C7B607B68002BE6D133
:10368000FB68013BFB60FB682D221A70FB68181C6D
:10369000BD4604B080BDC0465C00002080B584B04B
:1036A00000AF786039601B4BBB60BB680433BB6004
:1036B000BB6800221A703B1C0F333A681A7013E083
:1036C000BB68013BBB607A680F231340124AD25C8F
:1036D000BB681A707B681B117B603B1C0F333A1C64
:1036E0000F321278013A1A703B1C0F331B78002BF3
:1036F000E6D1BB68013BBB60BB6878221A70BB682F
:10370000013BBB60BB6830221A70BB68181CBD4609
:1037100004B080BD740000207C4F000880B584B0E8
:1037200000AF78600023FB600CE0FB68DA00FB6808
:103730005B00D2187B681B78D318303BFB607B683A
:1037400001337B607B681B78002BEED1FB68181C73
:10375000BD4604B080BDC04680B586B000AF78607D
:1037600001237B610023BB607B68181C0021FFF7ED
:103770002FFF031C013BFB601DE0FB687A68D31838
:103780001B78303B3B613B69092B08DD3B69302BE3
:1037900001DD272300E007233A69D31A3B613B6927
:1037A0007A695343BA68D318BB607B691B017B619C
:1037B000FB68013BFB60FB68002BDEDABB68181C72
:1037C000BD4606B080BDC04680B586B000AFF8608B
:1037D0007A603B1C0B330A1C1A7000237B6109E0E2
:1037E000FB685A1CFA603A1C0B3212781A707B691B
:1037F00001337B617A697B689A42F1D3BD4606B09A
:1038000080BDC04680B500AFBD4680BD80B582B0EA
:1038100000AF9023DB05181C09210422FEF728FACB
:103820009023DB05181C0A210422FEF721FA3B1C19
:10383000C022D2001A603B1C00225A713B1C02229B
:103840001A713B1C0122DA713B1C01229A719023F0
:10385000DA053B1C101C191CFEF72EF9BD4602B000
:1038600080BDC04680B582B000AF124B181C062147
:103870000022FEF7FDF90F4B181C07210022FEF76E
:10388000F7F93B1CC0221A603B1C03225A713B1CF7
:1038900002221A713B1C00229A713B1C0122DA7130
:1038A000044A3B1C101C191CFEF706F9BD4602B069
:1038B00080BDC0460004004880B582B000AF3B1C0C
:1038C00001221A603B1C00221A713B1C00229A71D3
:1038D0003B1C0122DA713B1C01225A71254A3B1C18
:1038E000101C191CFEF7E8F83B1CCF221A603B1C89
:1038F00000221A713B1C00229A713B1C0122DA71D2
:103900003B1C01225A719023DA053B1C101C191C28
:10391000FEF7D2F83B1C38221A603B1C01221A71B8
:103920003B1C00229A713B1C0122DA713B1C0122D4
:103930005A71104A3B1C101C191CFEF7BDF83B1CA9
:10394000802212021A603B1C01221A713B1C0022C9
:103950009A713B1C0122DA713B1C01225A7190239F
:10396000DA053B1C101C191CFEF7A6F8BD4602B078
:1039700080BDC0460004004880B582B000AF3B1C4B
:10398000802252001A603B1C01221A713B1C00224B
:103990009A713B1C0122DA713B1C01225A7190235F
:1039A000DA053B1C101C191CFEF786F8BD4602B058
:1039B00080BDC04680B584B000AF78600023FB6056
:1039C0007B689B78002B3CD0244B7A681278920855
:1039D000D2B2C0329200D358FB607B681B781A1CAD
:1039E00003231340DB00FF22101C9840031CDA4322
:1039F000FB681340FB607B685B789A01FF231A40E9
:103A00007B681B78191C03230B40DB00111C9940B9
:103A10000B1CFA681343FB60104B7A68127892080B
:103A2000D2B2C0329200F968D1500C4B7A68127849
:103A3000111C1F220A400121081C9040021C1A6020
:103A400009E0064A7B681B78191C1F230B400121E3
:103A500099408023D150BD4604B080BD00E100E014
:103A6000002934D00123002210B488422CD3012431
:103A70002407A14204D2814202D209011B01F8E7C6
:103A8000E400A14204D2814202D249005B00F8E77F
:103A9000884201D3401A1A434C08A04202D3001BAB
:103AA0005C0822438C08A04202D3001B9C082243DE
:103AB000CC08A04202D3001BDC082243002803D01C
:103AC0001B0901D00909E3E7101C10BC704700284E
:103AD00001D00020C04307B4024802A14018029060
:103AE00003BDC046D90000000029F0D003B5FFF7A0
:103AF000B9FF0EBC4243891A1847C046002941D07D
:103B000010B4041C4C40A44601230022002900D517
:103B10004942002800D5404288422CD30124240782
:103B2000A14204D2814202D209011B01F8E7E4005C
:103B3000A14204D2814202D249005B00F8E78842E8
:103B400001D3401A1A434C08A04202D3001B5C0860
:103B500022438C08A04202D3001B9C082243CC08BD
:103B6000A04202D3001BDC082243002803D01B091B
:103B700001D00909E3E7101C6446002C00D540423F
:103B800010BC7047002806D003DB0020C04340086B
:103B900001E08020000607B4024802A1401802900C
:103BA00003BDC046190000000029EBD003B5FFF7A4
:103BB000A7FF0EBC4243891A1847C0467047C0464B
:103BC000F0B50F2A35D9031C0B439C0735D1161CC1
:103BD000103E36093501451910350C1C031C2768A9
:103BE0001F6067685F60A7689F60E7681034DF60E8
:103BF0001033AB42F3D1731C1B01C518C9180F2336
:103C00001340032B1BD91C1FA4080134A40000235C
:103C1000CE58EE500433A342FAD1ED18C91803234D
:103C20001A4005D00023CC5CEC5401339342FAD106
:103C3000F0BD051C002AF5D1FAE7051CF2E71A1CB5
:103C4000F8E7C04615161718191A1B1C1D1E1F2051
:103C50002122232425262728292A2B2C2D2E2F30DC
:103C60003132333435363738393A3B3C3D3E3F40CC
:103C700041424448494A4B52535455565758595A51
:103C80005B5C5D5E5F606162636465666768696A0C
:103C90006B6C6D6E6F7F80818292939495969798EE
:103CA0009A9C9DD0D5D6D7D8D9DADEDBDCDDA0A1B1
:103CB000A2A3A4A5A6A7A8A9AAABACADAEAFB0B16C
:103CC000B2B3B4B5B6B7B8B9BABBBCBDBEBFC1C25A
:103CD000C3C4C5C6C7C9D0D5D6E0F9FAFB000000F9
:103CE0000102030405060708090A0B0C0D0E0F104C
:103CF0001112131415161718191A1B1C1D1E1F203C
:103D000021222328292C2D2E34363C0000000000CF
:103D10001000000020000000300000004000000003
:103D20005000000060000000496E697469617469A8
:103D30006E67204D43552E2E2E0D0A00446F6E6582
:103D4000210D0A00496E6974696174696E672064A7
:103D50006576696365732E2E2E0D0A00506F7765A8
:103D600072696E6720757020646576696365732E6D
:103D70002E2E0D0A000000005370656369616C20EF
:103D80007374617465206465746563746564210D82
:103D90000A000000526573657474696E6720746F61
:103DA0002076656E646F722064656661756C742E32
:103DB0002E2E0D0A00000000536F6D657468696E49
:103DC000672077656E742077726F6E6721210D0A08
:103DD00000000000466F756E642067656E65726155
:103DE0006C20636F6E66696775726174696F6E20AF
:103DF0006F6E20666C617368210D0A004C6F616400
:103E0000696E672067656E6572616C20636F6E66B0
:103E1000696775726174696F6E2E2E2E0D0A00002F
:103E20004E6F2073756368206465766963652E2024
:103E3000506C6561736520657261736520636F6E98
:103E400066696775726174696F6E20696E20666C51
:103E5000617368206D656D6F72792028636D6420D1
:103E60002765272921000000466F756E6420627562
:103E700074746F6E20636F6E6669677572617469C2
:103E80006F6E206F6E20666C61736820666F7220A3
:103E9000627574746F6E20000D0A000053746172B5
:103EA00074696E67206F75747075742066726F6DBB
:103EB00020465047410D0A0000000000100000009D
:103EC0002000000030000000400000005000000012
:103ED0006000000015161718191A1B1C1D1E1F2044
:103EE0002122232425262728292A2B2C2D2E2F304A
:103EF0003132333435363738393A3B3C3D3E3F403A
:103F000041424448494A4B52535455565758595ABE
:103F10005B5C5D5E5F606162636465666768696A79
:103F20006B6C6D6E6F7F808182929394959697985B
:103F30009A9C9DD0D5D6D7D8D9DADEDBDCDDA0A11E
:103F4000A2A3A4A5A6A7A8A9AAABACADAEAFB0B1D9
:103F5000B2B3B4B5B6B7B8B9BABBBCBDBEBFC1C2C7
:103F6000C3C4C5C6C7C9D0D5D6E0F9FAFB00000066
:103F70005265616420000000206F6E2064657669E0
:103F80006365200053796E7461783A2072203C3862
:103F9000626974207265673E0000000057726974A0
:103FA00074656E200000000020746F2072656769E0
:103FB000737465722000000053796E7461783A2042
:103FC00077203C38626974207265673E203C386215
:103FD00069742076616C75653E0000004465766901
:103FE0006365200020697320616374697665000051
:103FF00053796E7461783A2073203C736C617665F6
:104000003E20776865726520736C61766520697300
:104010002030284144393938344129206F72203109
:104020002841445637353131290D0A0053796E74D1
:1040300061783A207A203C3130626974206F66667C
:104040007365743E00000000206174206164647236
:10405000657373200000000053796E7461783A2014
:1040600078203C3130626974206F66667365743EF7
:10407000203C33326269742076616C75653E0000C5
:1040800044656661756C742067656E6572616C204D
:10409000636F6E66696775726174696F6E206973AC
:1040A000206E6F77207573656421000053796E74FC
:1040B00061783A20642059455300000044656661E8
:1040C000756C7420627574746F6E20636F6E6669B0
:1040D0006775726174696F6E206973206E6F7720E7
:1040E000757365642100000053796E7461783A201D
:1040F000622059455300000047656E6572616C206F
:10410000636F6E66696775726174696F6E2068614E
:1041100073206265656E207361766564206F6E2022
:10412000666C617368210000436F756C64206E6F6C
:104130007420736176652067656E6572616C2063BB
:104140006F6E66696775726174696F6E20746F2037
:10415000666C617368206D656D6F72792100000077
:1041600053796E7461783A206620594553000000F7
:1041700050616765200000002065726173656420EE
:104180006F6E20666C6173682000000053796E7456
:1041900061783A2065203C3262697420506167651D
:1041A0003E000000200000000D0A0000526573650B
:1041B0007474696E672E2E2E0D0A0D0A0000000021
:1041C000446F6E652100000053796E7461783A2067
:1041D0006A203C6F66667365743E203C617474723D
:1041E00069627574653E20757365202768272063B2
:1041F0006D6420666F7220696E7374727563746982
:104200006F6E730053796E7461783A2065203C427A
:104210007574746F6E3E2077686572652062757480
:10422000746F6E20697320312D37000053796E74DE
:1042300061783A2079203C427574746F6E3E207725
:104240006865726520627574746F6E2069732031C1
:104250002D370000466F726D617420666F722062A8
:104260007574746F6E20636F6E66696775726174C2
:10427000696F6E0D0A0D0A00427574746F6E2031FD
:104280003A0D0A003078303020427574746F6E41F8
:104290006374696F6E205B425554544F4E5F4143C7
:1042A00054494F4E5F46504741203D20302C20421C
:1042B0005554544F4E5F414354494F4E5F5245470A
:1042C000203D20312C20425554544F4E5F414354E1
:1042D000494F4E5F53415645203D20322C204255D8
:1042E00054544F4E5F414354494F4E5F52455345DE
:1042F00054203D20335D0D0A000000003078303836
:104300002053686F72745072657373205B736574A9
:1043100020746F203120696620616374696F6E209C
:1043200073686F756C6420626520706572666F7269
:104330006D65642075706F6E2073686F7274207085
:10434000726573735D0D0A0030783039204C6F6EE2
:10435000675072657373205B73657420746F2031CE
:1043600020696620616374696F6E2073686F756C75
:104370006420626520706572666F726D6564207579
:10438000706F6E206C6F6E672070726573735D0D59
:104390000A0000003078304120436F6E74696E75FA
:1043A000654C6F6E675072657373205B7365742024
:1043B000746F203120696620616374696F6E2073A9
:1043C000686F756C642062652072657065617465E4
:1043D000642075706F6E206C6F6E672070726573ED
:1043E000735D0D0A00000000425554544F4E5F416A
:1043F0004354494F4E5F465047410D0A00000000AC
:10440000307830312046504741416374696F6E20E7
:104410005B465047415F414354494F4E5F534352BF
:104420004F4C4C5F5249474854203D20302C204689
:104430005047415F414354494F4E5F5343524F4CA5
:104440004C5F4C454654203D20312C20465047417E
:104450005F414354494F4E5F5343524F4C4C5F555D
:1044600050203D20322C20465047415F4143544963
:104470004F4E5F5343524F4C4C5F444F574E203D7D
:1044800020335D0D0A000000425554544F4E5F41E9
:104490004354494F4E5F5245470D0A003078303142
:1044A0002043686970205B41443939383441203DEC
:1044B00020302C2041445637353131203D20315DAC
:1044C0000D0A000030783032205573696E674D5305
:1044D00042526567205B6966204D534220726567D2
:1044E000697374657220697320757365642C207418
:1044F00068656E2073657420746F20312C206F7492
:10450000686572776973652073657420746F2030F5
:104510005D0D0A0030783033205265674D534220DC
:104520005B4D53422072656769737465722C206518
:104530002E672E20307832315D0D0A00307830340D
:10454000205265674C5342205B4C53422072656792
:1045500069737465722C20652E672E203078323195
:104560005D0D0A0030783035205369676E205B732B
:10457000686F756C64207468652072656769737410
:1045800065722076616C756520626520696E637264
:10459000656173656420776974682027537465705A
:1045A000272073657420746F20312C206F74686528
:1045B00072776973652073657420746F20305D0DA8
:1045C0000A000000307830362053746570205B7428
:1045D0006865207175616E7469747920746861749E
:1045E0002073686F756C6420626520616464656423
:1045F000206F7220737562747261637465642074D5
:104600006F207468652072656769737465722076BF
:10461000616C75655D0D0A004E6F2065787472617E
:1046200020696E666F726D6174696F6E20697320A8
:104630006E6565646564207768656E206163746982
:104640006F6E2069732073657420746F2042555417
:10465000544F4E5F414354494F4E5F53415645209E
:104660006F7220425554544F4E5F414354494F4E50
:104670005F52455345540D0A0000000042757474A2
:104680006F6E20323A0D0A00416464203078313078
:10469000206F666673657420746F20666C61736842
:1046A00020616464726573730D0A0000546F20709A
:1046B000726F6772616D20627574746F6E20352041
:1046C000746F206D6F646966792074686520696E07
:1046D00070757420636C6F636B20666F7220414449
:1046E000393938344120636869703A0D0A00000096
:1046F0002861646472657373206D757374206265DC
:10470000207772697474656E206173203420636849
:104710006172616374657273290D0A006A203078D2
:10472000343020310D0A00006A20307834382031CE
:104730000D0A00006A203078343920310D0A00005B
:104740006A203078344120310D0A00006A20307828
:10475000343120300D0A00006A20307834322031A4
:104760000D0A00006A203078343320307830310D63
:104770000A0000006A203078343420307830320D5E
:104780000A0000006A203078343520310D0A00001C
:104790006A203078343620307831300D0A0000003D
:1047A000710D0A005768656E207072657373696ECB
:1047B0006720627574746F6E20342074686520639E
:1047C0006C6F636B2077696C6C20626520696E6327
:1047D0007265617365642077697468203078313060
:1047E0000D0A0000312E30004932430D0A0000004E
:1047F0000920723A2072656164207265676973747A
:1048000065720D0A000000000920773A207772696E
:1048100074652072656769737465720D0A00000023
:104820000920733A2073657420616374697665208A
:104830006465766963650D0A00000000464C4153CB
:10484000480D0A0009207A3A2072656164203332EB
:104850006269742066726F6D20666C6173680D0A00
:10486000000000000920783A2077726974652033CF
:104870003262697420746F20666C6173680D0A007F
:104880000920653A20657261736520612070616757
:104890006520696E20666C6173680D0A0000000077
:1048A00047454E4552414C20434F4E4649470D0A1D
:1048B000000000000920663A207361766520637568
:1048C0007272656E742067656E6572616C20636FCD
:1048D0006E6669672028696E20666C617368206D5A
:1048E000656D6F7279290D0A000000000920643A95
:1048F0002064656661756C742067656E6572616CB5
:1049000020636F6E66696775726174696F6E2028C7
:1049100063616E6E6F7420626520756E646F6E6584
:10492000290D0A00425554544F4E20434F4E4649DC
:10493000470D0A0009206A3A20777269746520627F
:104940007574746F6E20636F6E66696720696E2080
:10495000666C6173680D0A000920623A206465661E
:1049600061756C7420627574746F6E20636F6E660F
:10497000696775726174696F6E202863616E6E6F0E
:104980007420626520756E646F6E65290D0A0000E3
:104990000920793A2072656D6F7665206F6E65200B
:1049A000627574746F6E20636F6E6669677572618D
:1049B00074696F6E202863616E6E6F74206265206B
:1049C000756E646F6E65290D0A0000000920683A53
:1049D00020496E737472756374696F6E7320666FAD
:1049E000722070726F6772616D6D696E672062759B
:1049F00074746F6E0D0A00004D4953430D0A000098
:104A00000920703A207265616420454449440D0ACA
:104A1000000000000920713A20736F6674207265EF
:104A20007365740D0A0000000920763A20707269DF
:104A30006E742076657273696F6E0D0A0000000057
:104A4000360B0008EE0E0008F00A0008C20B000842
:104A50007C0B0008EE0E0008A20D0008EE0E000808
:104A6000EE0C0008EE0E0008EE0E0008EE0E000838
:104A7000EE0E0008EE0E0008140C0008E20C000810
:104A80001C090008F6090008EE0E0008EE0E0008EA
:104A9000E40E000880090008920A0008460D00088C
:104AA000440A000800000000100000002000000080
:104AB00030000000400000005000000060000000D6
:104AC0004E6F20737563682070616765210D0A0061
:104AD000457261736520666C617368206661696CFC
:104AE0006564210D0A000000466C617368206661F0
:104AF000696C6564210D0A00466C61736820496E1B
:104B0000636F6D706C657465210D0A0015161718BA
:104B1000191A1B1C1D1E1F2021222324252627288D
:104B2000292A2B2C2D2E2F3031323334353637387D
:104B3000393A3B3C3D3E3F4041424448494A4B5252
:104B4000535455565758595A5B5C5D5E5F606162BD
:104B5000636465666768696A6B6C6D6E6F7F808180
:104B600082929394959697989A9C9DD0D5D6D7D8B3
:104B7000D9DADEDBDCDDA0A1A2A3A4A5A6A7A8A9A3
:104B8000AAABACADAEAFB0B1B2B3B4B5B6B7B8B90D
:104B9000BABBBCBDBEBFC1C2C3C4C5C6C7C9D0D5E0
:104BA000D6E0F9FAFB00000001020304050607083D
:104BB000090A0B0C0D0E0F101112131415161718ED
:104BC000191A1B1C1D1E1F2021222328292C2D2EC3
:104BD00034363C00495251207374617475733A2025
:104BE000000000000D0A00004361626C6520696EE0
:104BF0007365727465642C20696E697469616C698F
:104C00007A696E672E2E2E0D0A0000004361626CD9
:104C1000652072656D6F766564210D0A00000000E5
:104C20004D6F6E69746F722073656E736520646575
:104C30007465637465640D0A000000005673796E34
:104C4000632064657465637465640D0A0000000088
:104C50004544494420697320617661696C61626CE6
:104C6000650D0A0015161718191A1B1C1D1E1F208A
:104C70002122232425262728292A2B2C2D2E2F30AC
:104C80003132333435363738393A3B3C3D3E3F409C
:104C900041424448494A4B52535455565758595A21
:104CA0005B5C5D5E5F606162636465666768696ADC
:104CB0006B6C6D6E6F7F80818292939495969798BE
:104CC0009A9C9DD0D5D6D7D8D9DADEDBDCDDA0A181
:104CD000A2A3A4A5A6A7A8A9AAABACADAEAFB0B13C
:104CE000B2B3B4B5B6B7B8B9BABBBCBDBEBFC1C22A
:104CF000C3C4C5C6C7C9D0D5D6E0F9FAFB000000C9
:104D000042616420526563656976657220424B5347
:104D1000560000005269204D69736D61746368002C
:104D2000506A204D69736D61746368004932432095
:104D30004572726F722028757375616C6C79206191
:104D4000206E6F2D61636B290000000054696D6552
:104D500064204F75742057616974696E6720666FAF
:104D60007220446F776E73747265616D2052657046
:104D7000656174657220444F4E4500004D61782096
:104D800043617363616465206F662052657065617D
:104D9000746572732045786365656465640000001E
:104DA0005348412D31204861736820436865636B27
:104DB000206F66204B5356204C69737420466169FE
:104DC0006C656400546F6F204D616E792044657688
:104DD0006963657320436F6E6E65637465642074E8
:104DE0006F2052657065617465722054726565004C
:104DF0004144393938344100414456373531310066
:104E00004144563732383000414456373339310047
:104E1000454449440000000015161718191A1B1CB8
:104E20001D1E1F202122232425262728292A2B2C3A
:104E30002D2E2F303132333435363738393A3B3C2A
:104E40003D3E3F4041424448494A4B5253545556D7
:104E50005758595A5B5C5D5E5F606162636465666A
:104E60006768696A6B6C6D6E6F7F808182929394C4
:104E7000959697989A9C9DD0D5D6D7D8D9DADEDB6F
:104E8000DCDDA0A1A2A3A4A5A6A7A8A9AAABACAD4E
:104E9000AEAFB0B1B2B3B4B5B6B7B8B9BABBBCBDBA
:104EA000BEBFC1C2C3C4C5C6C7C9D0D5D6E0F9FA12
:104EB000FB0000000102030405060708090A0B0CA9
:104EC0000D0E0F101112131415161718191A1B1C9A
:104ED0001D1E1F2021222328292C2D2E34363C0074
:104EE0000000000010000000200000003000000062
:104EF00040000000500000006000000047656E6543
:104F000072616C20636F6E66696775726174696F38
:104F10006E20686173206265656E207361766564DA
:104F2000206F6E20666C617368210D0A000000001E
:104F3000436F756C64206E6F7420736176652067B3
:104F4000656E6572616C20636F6E6669677572610C
:104F500074696F6E20746F20666C617368206D6574
:104F60006D6F7279210D0A00E8300008F0300008FA
:104F70000E310008883100083C31000830313233EE
:104F80003435363738394142434445460000000045
:104F900000000000010203040102030406070809DF
:104FA000004D0008144D0008204D00082C4D00084D
:104FB0004C4D00087C4D0008A04D0008C44D000871
:104FC000F04D0008F84D0008004E0008084E00089B
:044FD000104E000877
:0400000508000000EF
:00000001FF
