:020000040800F2
:1000000000100020E10B00082D0C00082D0C00084A
:1000100000000000000000000000000000000000E0
:100020000000000000000000000000002D0C00088F
:1000300000000000000000002D0C00082D0C00083E
:100040002D0C00082D0C00082D0C00082D0C0008AC
:100050002D0C00082D0C00082D0C0008BD10000808
:100060002D0C00082D0C00082D0C00082D0C00088C
:100070002D0C00082D0C00082D0C00082D0C00087C
:100080002D0C00082D0C0008000000002D0C0008AD
:100090002D0C00082D0C00082D0C00082D0C00085C
:1000A0002D0C00082D0C00082D0C00082112000852
:1000B0002D0C0008000000002D0C000800000000BE
:1000C0005FF808F180B586B000AF8023DB01181C13
:1000D000012100F02BFB02F099FA01F06DF9184AAA
:1000E000184B101C191C012201F04AFD3B1CE12297
:1000F00052021A603B1C00225A603B1C00229A608C
:100100003B1C0022DA603B1C00225A613B1C0C2283
:100110001A610B4A3B1C101C191C01F043FC084BD4
:10012000181C012101F0EEFC074B181C00212022B5
:1001300002F01CFA054B00221A70BD4606B080BDC5
:10014000003801400501050080000020A0000020CB
:1001500080B582B000AF021CFB1D1A70C046094B6F
:10016000181C802101F04EFD031C002BF7D0FB1D55
:100170001B789BB2034A101C191C01F0E1FCBD4620
:1001800002B080BD0038014080B582B000AF786019
:1001900012E0C0460C4B181C802101F033FD031CFB
:1001A000002BF7D07B681B78074A101C191C01F044
:1001B000C7FC7B6801337B607B681B78002BE8D130
:1001C000BD4602B080BDC0460038014080B500AFDA
:1001D000044A054B101C191C01F032FD031C181CAD
:1001E000BD4680BD003801400501050080B500AF67
:1001F000044B181C01F0B6FC031CDBB2181CBD46F6
:1002000080BDC0460038014080B584B000AF0023F7
:10021000FB600023BB60FB1D00221A70BB1D002287
:100220001A7080239B02181C012100F061FA8023C0
:10023000DB02181C012100F05BFA02F011FA02F057
:100240006FFA02F0B1F9FFF73DFF01F073FD01F025
:1002500033F80023FB6002E0FB680133FB60FA68BF
:100260009D4B9A42F8D901F0BBFA002001F0E2F967
:1002700001F0C2FA00E0C046FB1D1B78042BFAD83F
:100280009A00964BD3181B689F469023DA0580236B
:100290001B02101C191C01F071F90023FB6002E025
:1002A000FB680133FB60FA688D4B9A42F8D98D4B9D
:1002B000181C102101F054F90023FB6002E0FB68D8
:1002C0000133FB60FA68864B9A42F8D9854B181CBB
:1002D000102101F053F90023FB6002E0FB680133B9
:1002E000FB60FA687E4B9A42F8D97E4B181C20219D
:1002F00001F036F90023FB6002E0FB680133FB608C
:10030000FA68774B9A42F8D9764B181C202101F0F5
:1003100035F90023FB6002E0FB680133FB60FA68FB
:100320006F4B9A42F8D99023DA0580231B02101CE8
:10033000191C01F015F9FB1D01221A70CAE0902367
:10034000DB05181C012101F0E7F8031C002B03D189
:10035000FB1D02221A70BDE0BCE0BB680133BB602C
:10036000BA68614B9A4202D9FB1D04221A7090238D
:10037000DB05181C012101F0CFF8031C012B03D170
:10038000FB1D03221A70A5E0A4E0BB1D1B78012B06
:1003900032D0022B5ED0002B00D09BE0514B181CBA
:1003A000202101F0DDF80023FB6002E0FB6801334F
:1003B000FB60FA684D4B9A42F8D94A4B181C202131
:1003C00001F0DCF80023FB6002E0FB680133FB6016
:1003D000FA68464B9A42F8D99023DB05181C012194
:1003E00001F09AF8031C012B05D1FB1D01221A70A4
:1003F0000023BB604BE04AE03A4B181C102101F08F
:10040000AFF80023FB6002E0FB680133FB60FA6891
:10041000364B9A42F8D9334B181C102101F0AEF834
:100420000023FB6002E0FB680133FB60FA682F4B9E
:100430009A42F8D99023DB05181C012101F06CF8D1
:10044000031C012B05D1FB1D01221A700023BB6088
:100450001DE01CE0202001F085FA0023FB6002E093
:10046000FB680133FB60FA68214B9A42F8D990236C
:10047000DB05181C012101F04FF8031C012B05D1ED
:10048000FB1D01221A700023BB60FFE7C04621E07C
:10049000BA68184B9A4203D8FB1D01221A7016E065
:1004A000BB1D1B78002B03D1BB1D01221A700EE06F
:1004B000BB1D1B78012B03D1BB1D02221A7006E065
:1004C000BB1D1B78022B02D1BB1D00221A7000231A
:1004D000BB60C046CFE6C0463F420F00A8280008D8
:1004E000E7030000000400482F7500005FEA0000E9
:1004F0009FBB0D008813000080B582B000AF78600C
:10050000074B074A126B10218A431A63044B044AB3
:10051000116B7A680A431A63BD4602B080BDC046BB
:100520000010024080B588B000AF78600023FB6106
:100530000023BB6100237B6100233B610023FB6040
:10054000654B5A680C231340FB61FB69042B07D0F1
:10055000082B09D0002B30D17B68604A1A6030E04C
:100560007B685E4A1A602CE05B4B5A68F0239B0361
:100570001340BB61584B5A6880235B0213407B6178
:10058000BB699B0C0233BB617B69002B05D1BB6946
:10059000534A5A437B681A6013E04F4BDA6A0F23C1
:1005A000134001333B614D48396902F02DF9031CBA
:1005B000BA695A437B681A6003E07B68474A1A604D
:1005C000C046454B5A68F0231340FB61FB691B0989
:1005D000FB61444AFB69D3181B78DBB2FB607B6884
:1005E0001A68FB68DA407B685A603B4B5A68E02324
:1005F000DB001340FB61FB691B0AFB61394AFB69A5
:10060000D3181B78DBB2FB607B685A68FB68DA4062
:100610007B689A60304B1A6B80235B00134003D1D8
:100620007B68314ADA6010E02B4B5A688023DB018B
:10063000134005D17B689B685A087B68DA6004E048
:100640007B689B689A087B68DA60234B1A6B4023AF
:10065000134003D17B68254A1A6103E07B6880223E
:1006600012021A611C4B1A6B1023134003D17B68D2
:100670001A4A5A6103E07B681A687B685A61164B14
:100680001A6B0323134004D17B689A687B689A61D4
:100690001EE0114B1A6B03231340012B04D17B681E
:1006A0001A687B689A6113E00B4B1A6B03231340A3
:1006B000022B04D17B68802212029A6108E0064B6B
:1006C0001A6B03231340032B02D17B68034A9A6100
:1006D000BD4608B080BDC0460010024000127A003E
:1006E00000093D0000000020809FD500128000001E
:1006F00080B582B000AF78600A1CFB1C1A70FB1C2E
:100700001B78002B06D0084B074A51697A680A43C8
:100710005A6106E0044B044A52697968C9430A40A9
:100720005A61BD4602B080BD0010024080B582B063
:1007300000AF78600A1CFB1C1A70FB1C1B78002B96
:1007400006D0084B074A91697A680A439A6106E025
:10075000044B044A92697968C9430A409A61BD46CC
:1007600002B080BD0010024080B582B000AF78605A
:100770000A1CFB1C1A70FB1C1B78002B06D0084BB4
:10078000074AD1697A680A43DA6106E0044B044AF1
:10079000D2697968C9430A40DA61BD4602B080BDBA
:1007A0000010024080B590B000AF78600A1CFB1CBE
:1007B0001A707B681B78633B172B00D9D0E19A0035
:1007C000D24BD3181B689F4600237B62FB1C1B780F
:1007D000022B34D97B6803331B78782B07D17B68D5
:1007E0000433181C01F08AFE031CFB6306E07B68DF
:1007F0000233181C01F064FE031CFB63FB6BDBB2CD
:10080000181C01F045FB031C7B627B6A181C02214B
:1008100001F016FE031C3B62BD4B181CFFF7B4FC35
:100820003B6A181CFFF7B0FCBA4B181CFFF7ACFC76
:1008300001F0DCFB031C181CFFF7A6FCB8E1B64B6B
:10084000181CFFF7A1FCB3E1FB1C1B78022B3FD95E
:100850007B6803331B78782B07D17B680433181C23
:1008600001F04CFE031CBB6306E07B680233181CDE
:1008700001F026FE031CBB63A84B1B78181C022149
:1008800001F0DEFD031CFB61A44B1A78BB6BDBB2ED
:10089000101C191C01F084FAA14B181CFFF774FC02
:1008A0007B680233181CFFF76FFC9E4B181CFFF788
:1008B0006BFCFB69181CFFF767FC964B181CFFF7D5
:1008C00063FC01F093FB031C181CFFF75DFC6FE158
:1008D000914B181CFFF758FC6AE1FB1C1B78022B9C
:1008E0002BD97B6803331B78782B07D17B680433C3
:1008F000181C01F003FE031C7B6306E07B680233D7
:10090000181C01F0DDFD031C7B637B6BDAB2834BAB
:100910001A70854B181CFFF737FC7B680233181CD4
:10092000FFF732FC7B4B181CFFF72EFC01F05EFB3F
:10093000031C181CFFF728FC3AE17C4B181CFFF73E
:1009400023FC35E1FB1C1B78022B1DD97B6802338D
:10095000181C01F0B5FD021C3B1C1B331A703B1C1C
:100960001B331B78181C01F031FB714B181CFFF76F
:100970000BFC01F03BFB031C181CFFF705FC6D4B47
:10098000181CFFF701FC13E16B4B181CFFF7FCFB75
:100990000EE100237B61FB1C1B78022B29D97B68AD
:1009A00003331B78782B07D17B680433181C01F0C4
:1009B000A5FD031C3B6306E07B680233181C01F0B5
:1009C0007FFD031C3B633B6B181C00F031F9031CDB
:1009D0007B617B69181C082101F032FD031C3B611F
:1009E0004B4B181CFFF7D0FB3B69181CFFF7CCFBE7
:1009F000DEE0524B181CFFF7C7FBD9E0FB1C1B784D
:100A0000022B37D97B6803331B78782B07D17B689F
:100A10000433181C01F072FD031CFB6206E07B68C6
:100A20000233181C01F04CFD031CFB62444B1B6895
:100A3000181C082101F004FD031CFB60404B1A68E0
:100A4000FB6A101C191C00F001F9031C002B08D1D3
:100A5000334B181CFFF798FB7B680233181CFFF719
:100A600093FB384B181CFFF78FFBFB68181CFFF734
:100A70008BFB9DE0344B181CFFF786FB98E0FB1CBA
:100A80001B78022B24D97B6803331B78782B07D182
:100A90007B680433181C01F031FD031CBB6206E0C7
:100AA0007B680233181C01F00BFD031CBB62244B56
:100AB000BA6A1A60254B181CFFF766FB7B68023385
:100AC000181CFFF761FB224B181CFFF75DFB6FE062
:100AD000204B181CFFF758FB6AE0002000F0E4F8F8
:100AE000031C002B04D11C4B181CFFF74DFB5FE0CF
:100AF0005EE0012000F0D8F8031C002B04D1174B56
:100B0000181CFFF741FB53E052E0C046982B000849
:100B1000BC280008C4280008D02800084400002091
:100B2000E0280008EC280008FC280008102900082C
:100B30002029000828290008342900087C290008F9
:100B40004800002098290008A8290008C0290008AA
:100B5000D4290008E0290008FC290008242A0008FC
:100B6000154B181CFFF710FB144B181CFFF70CFB60
:100B7000134B181CFFF708FB124B181CFFF704FB64
:100B8000114B181CFFF700FB104B181CFFF7FCFA69
:100B90000F4B181CFFF7F8FA0E4B181CFFF7F4FA6E
:100BA0000D4B181CFFF7F0FA0C4B181CFFF7ECFA72
:100BB000BD4610B080BDC046482A0008542A00082F
:100BC0006C2A0008842A0008B42A0008D02A0008E9
:100BD000E82A0008002B0008442B0008682B0008B6
:100BE0000C488546002103E00B4B5B584350043111
:100BF0000A480B4B42189A42F6D30A4A02E00023F5
:100C000013600432084B9A42F9D300F0A1F9FFF7C0
:100C1000FBFAFEE700100020002E00080000002074
:100C20004400002044000020A4000020FEE7000053
:100C300080B582B000AF78607B68034A9B181B6860
:100C4000181CBD4602B080BD0070000880B584B09D
:100C500000AF786039603B1C0F3300221A7001F03E
:100C6000D5F9342001F08AFA7B680D495A183B689F
:100C7000101C191C01F02AFA031C042B07D0094B85
:100C8000181CFFF781FA3B1C0F3301221A7001F088
:100C9000D3F93B1C0F331B78181CBD4604B080BD34
:100CA00000700008F82B000880B584B000AF021C6B
:100CB000FB1D1A703B1C0F3300221A7001F0A6F9BD
:100CC000342001F05BFA1D4B181C01F0C1F9031C24
:100CD000042B03D01A4B181CFFF756FAFB1D1B7888
:100CE000012B11D1154A174B101C191C01F0EEF9FC
:100CF000031C042B18D0144B181CFFF745FA3B1C9F
:100D00000F3301221A700FE00C4B181C002101F068
:100D1000DDF9031C042B07D00B4B181CFFF734FA2A
:100D20003B1C0F3301221A7001F086F93B1C0F3374
:100D30001B78181CBD4604B080BDC046007C00086E
:100D4000082C0008EFBEADDEF82B000880B584B09B
:100D500000AF786039600023FB607B681B6801226C
:100D6000191C91430A1C7B681A607B681B68FB6036
:100D7000FA68274B1340FB603B685A683B689B68E6
:100D80001B021343FA681343FB607B68FA681A601E
:100D90003B681A681F4B1A407B681A617B681B68A6
:100DA00001221A437B681A600023FB607B68FA68A3
:100DB0009A607B68FA68DA603B689A693B681B69ED
:100DC0001343FB607B68FA689A607B689B688022AB
:100DD00012021A437B689A603B68DB68FB607B68A1
:100DE0001A68FB681A437B681A607B685B68FB6063
:100DF000FA68094B1340FB603B685B69FA68134370
:100E0000FB607B68FA685A60BD4604B080BDC0468E
:100E1000FFE0CF00FFFFFFF0FF7FFF0780B582B04C
:100E200000AF78600A1CFB1C1A70FB1C1B78002B9F
:100E300006D07B681B6801221A437B681A6007E0B2
:100E40007B681B680122191C91430A1C7B681A608D
:100E5000BD4602B080BDC04680B586B000AFF86028
:100E60007B603B1C0A3319803B1C09331A7000233A
:100E70007B61FB685B687B617A690E4B13407B6129
:100E80003B1C0A331B889B059A0D3B1C09331B78BE
:100E90001904FF231B040B401A437B681A433B6A67
:100EA00013437A6913437B61FB687A695A60BD46D4
:100EB00006B080BD009800FC80B582B000AF7860BD
:100EC0000A1CFB1C1A70FB1C1A787B689A62BD46D0
:100ED00002B080BD80B582B000AF78607B685B6A8D
:100EE000DBB2181CBD4602B080BDC04680B584B0E0
:100EF00000AF786039600023BB603B1C0F330022D9
:100F00001A707B689B69BB60BB683A681340BB6022
:100F1000BB68002B04D03B1C0F3301221A7003E086
:100F20003B1C0F3300221A703B1C0F331B78181C1C
:100F3000BD4604B080BDC04680B582B000AF7860C9
:100F400039607B683A68DA61BD4602B080BDC04650
:100F500080B500AF1B4B1B4A126801210A431A607F
:100F6000184B184A5168184A0A405A60154B154ADE
:100F70001168164A0A401A60124B124A1168144A44
:100F80000A401A600F4B0F4A5168124A0A405A60D1
:100F90000C4B0C4AD26A0F218A43DA62094B094A88
:100FA000116B0D4A0A401A63064B064A526B012127
:100FB0008A435A63034B00229A6000F00FF8BD4643
:100FC00080BDC046001002400CB8FF08FFFFF6FECF
:100FD000FFFFFBFFFFFFC0FFACFEFFFF80B582B04D
:100FE00000AF00237B6000233B60314B304A126826
:100FF000802149020A431A602D4B1A6880239B0204
:1010000013403B607B6801337B603B68002B04D15D
:101010007A68A023DB019A42EED1254B1A6880231F
:101020009B02134002D001233B6001E000233B60A0
:101030003B68012B38D11F4B11221A601C4B1C4AF4
:1010400052685A601A4B1A4A52685A60184B184A2A
:101050005168194A0A405A60154B154A526888214E
:1010600049030A435A60124B114A1268802149040D
:101070000A431A60C0460E4B1A6880239B04134033
:10108000F9D00B4B0A4A526803218A435A60084B35
:10109000074A526802210A435A60C046044B5A6804
:1010A0000C231340082BF9D1BD4602B080BDC046C9
:1010B0000010024000200240FFFFC0FF90B585B045
:1010C00000AF202001F02CF9031C002B00D171E0AF
:1010D000494B181CFFF758F8012000F077FF002358
:1010E000FB6002E0FB680133FB60FA68434B9A4205
:1010F000F8D93C1C0B34962000F0CAFE031C237068
:101100003B1C0B331B78181C022101F099F9031CBE
:101110007B603B4B181CFFF737F87B68181CFFF708
:1011200033F8384B181CFFF72FF83B1C0B331B7898
:101130005BB2002B13DA422000F0AAFE031C1A1C3B
:101140004023134006D0304B181CFFF71DF800F069
:1011500053FB24E02D4B181CFFF716F81FE0C820A6
:1011600000F096FE031C1A1CF02313400DD0C8207B
:1011700000F08EFE031C1B09DBB21A1C244B9200EC
:10118000D358181CFFF700F809E03B1C0B331A7802
:101190000423134003D01F4B181CFEF7F5FF3B1C24
:1011A0000B331B789620191C00F0FAFD202001F06B
:1011B000D7F81EE080235B00181C01F0B1F8031C77
:1011C000002B09D0144B181CFEF7DEFF80235B00B8
:1011D000181C01F0C5F80CE0102001F0A1F8031C68
:1011E000002B06D00D4B181CFEF7CEFF102001F08F
:1011F000B7F8BD4605B090BD202C00080F270000B1
:10120000382C0008482C00084C2C0008702C0008D2
:1012100010000020802C0008902C0008A82C00084A
:1012200098B500AFFEF7D2FF031C002B3DD0204B3A
:101230001B781C1CFEF7DAFF031C1A1C1D4B1A55E9
:101240001B4B1B781B4AD35C181CFEF781FF184B05
:101250001B78184AD35C0D2B21D1154B1B78154AEE
:101260000021D1540A20FEF773FF114B1B78114A5D
:10127000101C191CFFF796FA0D20FEF769FF0A20D3
:10128000FEF766FF0A20FEF763FF0A4B181C0021D9
:10129000202201F06BF9064B00221A7005E0044B86
:1012A0001B780133DAB2024B1A70BD4698BDC046B6
:1012B000A00000208000002080B586B000AF012093
:1012C0000121FFF733FA3B1D20221A603B1D00224B
:1012D0001A713B1D00229A713B1D0122DA713B1DE0
:1012E00000225A719023DA053B1D101C191C00F0D6
:1012F00077F83B1D802252001A603B1D00221A71B4
:101300003B1D00229A713B1D0122DA713B1D002218
:101310005A719023DA053B1D101C191C00F060F86F
:101320003B1D10221A603B1D00221A713B1D00223A
:101330009A713B1D0122DA713B1D00225A719023E4
:10134000DA053B1D101C191C00F04AF8002005218D
:1013500001F012F80020082101F00EF8002004210D
:1013600001F00AF83B1C1033982252001A603B1C13
:10137000103300221A713B1C10330C225A713B1C93
:10138000103301229A713B1C1033181C00F05CFFD3
:101390003B1C0C3307221A703B1C0C3300225A7082
:1013A0003B1C0C3301229A703B1C0C33181C01F0BF
:1013B000D5F9BD4606B080BD80B582B000AF3B1DFB
:1013C0001B221A703B1D00225A703B1D01229A708D
:1013D0003B1D181C01F0C2F9BD4602B080BDC046DD
:1013E00080B586B000AF7860396000237B61002350
:1013F0003B610023FB6000237B6185E07B69012268
:10140000101C9840031C3B613B681B683A69134001
:10141000FB60FA683B699A4273D13B681B79012BE8
:1014200003D03B681B79022B38D17B689B687A69B3
:1014300052000321081C9040021CD2431A407B68D2
:101440009A607B689A683B685B79191C7B695B00D2
:10145000081C9840031C1A437B689A607B689B8831
:101460009BB27A6992B20121081C9040021C92B290
:10147000D24392B213409AB27B689A807B689B8871
:101480009AB23B689B79191C7B699BB2081C9840F7
:10149000031C9BB213439AB27B689A807B681B68DB
:1014A0007A6952000321081C9040021CD2431A4062
:1014B0007B681A607B681A683B681B79191C7B691A
:1014C0005B00081C9840031C1A437B681A607B6809
:1014D000DB687A6992B252000321081C9040021C1A
:1014E000D2431A407B68DA607B68DA683B68DB7954
:1014F000191C7B695B00081C9840031C1A437B681D
:10150000DA607B6901337B617B690F2B00D875E75B
:10151000BD4606B080BDC04680B584B000AF7860DF
:101520000A1CBB1C1A803B1C0F3300221A707B68FC
:101530001B8A9BB2BA1C128813409BB2002B04D0AA
:101540003B1C0F3301221A7003E03B1C0F330022B7
:101550001A703B1C0F331B78181CBD4604B080BDAD
:1015600080B582B000AF78600A1CBB1C1A80BB1C1F
:101570001A887B689A61BD4602B080BD80B582B092
:1015800000AF78600A1CBB1C1A807B68BA1C1288EA
:101590001A85BD4602B080BD90B585B000AF7860B9
:1015A000BB1C19807B1C1A700023FB600023BB60EE
:1015B0007B1C1A78BB1C198807230B409B00111C4D
:1015C00099400B1CFB60BB1C1B88DB089BB21A1CE0
:1015D000BB1C1B88DB089BB2191C7B680831890087
:1015E000CB58B91C08880721014089000F20041C32
:1015F0008C40211CC94319407B6808329200D150AD
:10160000BB1C1B88DB089BB21A1C7B68083292004B
:10161000D258FB681343BB60BB1C1B88DB089BB222
:101620001A1C7B6808329200B968D150BD4605B0DB
:1016300090BDC04680B582B000AF021CFB1D1A7081
:10164000002000F0C3FCFB1D1B78002B00D0C4E081
:101650000020012100F0A4FB0120382100F0A0FBB4
:101660000220C02100F09CFB0320182100F098FB11
:101670000420782100F094FB0520002100F090FB6D
:101680000620802100F08CFB0720002100F088FB61
:101690000820802100F084FB0920002100F080FB5D
:1016A0000A20802100F07CFB0B20002100F078FB59
:1016B0000C20802100F074FB0D20002100F070FB55
:1016C0000E20802100F06CFB0F20002100F068FB51
:1016D0001020802100F064FB1120202100F060FB2D
:1016E0001220002100F05CFB1320202100F058FBA9
:1016F0001420042100F054FB15200A2100F050FBB7
:101700001620062100F04CFB1720062100F048FBB4
:101710001820002100F044FB1920082100F040FBB4
:101720001A20002100F03CFB1B20FF2100F038FBB9
:101730001C20FF2100F034FB1D20782100F030FB3D
:101740001E20342100F02CFB1F20902100F028FBEC
:101750002020072100F024FB2120202100F020FB85
:101760002220322100F01CFB2320142100F018FB62
:101770002420082100F014FB25207F2100F010FB1D
:101780002620102100F00CFB2720702100F008FB20
:101790002820BF2100F004FB2920022100F000FBDB
:1017A0002A20002100F0FCFA2B20002100F0F8FA9A
:1017B0002C20002100F0F4FA2D20082100F0F0FA8E
:1017C0002E20202100F0ECFA3620012100F0E8FA6A
:1017D0003C200E2100F0E4FAC046BD4602B080BDB8
:1017E00080B500AF012000F0F1FB9620FF2100F052
:1017F000D7FABD4680BDC04680B500AF012000F0DD
:10180000E5FB0120002100F0CBFA0220182100F0B6
:10181000C7FA0320002100F0C3FA1520002100F0D0
:10182000BFFA1620002100F0BBFA1820082100F0B2
:10183000B7FA3020042100F0B3FA3120032100F080
:10184000AFFA3220E02100F0ABFA3320242100F07F
:10185000A7FA3420062100F0A3FA3520402100F039
:101860009FFA3620D92100F09BFA37200A2100F098
:1018700097FA3820002100F093FA39202D2100F04A
:101880008FFA3A20002100F08BFA3B20402100F033
:1018900087FA3C20042100F083FA4020802100F0E8
:1018A0007FFA4120102100F07BFA4920A82100F0A6
:1018B00077FA5520002100F073FA5620082100F035
:1018C0006FFA9620202100F06BFA9820032100F097
:1018D00067FA9920022100F063FA9C20302100F081
:1018E0005FFA9D20612100F05BFAA220A42100F0A4
:1018F00057FAA320A42100F053FAA520442100F0B8
:101900004FFAAB20402100F04BFAAF20142100F039
:1019100047FABA20A02100F043FADE209C2100F013
:101920003FFAE420602100F03BFAFA207D2100F02C
:1019300037FA4820002100F033FA5520102100F03A
:101940002FFA5620002100F02BFA162030213022E9
:1019500000F018FB17200021012200F013FBBD4608
:1019600080BDC04680B582B000AF78600C4B1B884C
:10197000D02B03D90A4B00221A8007E07B689AB269
:10198000074B1B88D3189AB2054B1A80044B1B884F
:10199000DBB23820191C00F003FABD4602B080BD4E
:1019A0004C00002080B58CB000AF78603960002317
:1019B000FB620023BB6200237B627B681B68012201
:1019C000191C91430A1C7B681A607B685B687B6208
:1019D0007A6A474B13407B623B689B687A6A134381
:1019E0007B627B687A6A5A607B681B687B627A6A72
:1019F000404B13407B623B685A683B68DB681A4384
:101A00003B681B6913437A6A13437B627B687A6A7B
:101A10001A607B689B687B627A6A374B13407B62F3
:101A20003B685B697A6A13437B627B687A6A9A6077
:101A30003B1C0833181CFEF775FD7A682F4B9A4241
:101A400004D13B1C08339B69BB6203E03B1C083399
:101A50009B68BB627B681A6880231B02134014D00A
:101A6000BB6A5A003B681B68101C191C00F0CCFEB6
:101A7000031CFB62BB6A5A003B681B68101C191CE4
:101A800000F006FF0B1C7B6210E03B681B68B86A25
:101A9000191C00F0B9FE031CFB623B681B68BA6AA4
:101AA000101C191C00F0F4FE0B1C7B623B681B68C9
:101AB0005A087B6A9A4202D8FB6A0133FB627B6850
:101AC0001A6880231B0213400AD0FA6A0F231340BE
:101AD0005B087B62FA6A0A4B1A407B6A1343FB621B
:101AE000FB6A9AB27B689A81BD460CB080BDC04645
:101AF000FFCFFFFFF3E9FFFFFFFCFFFF00380140CE
:101B0000F0FF000080B582B000AF78600A1CFB1CBB
:101B10001A70FB1C1B78002B06D07B681B68012207
:101B20001A437B681A6007E07B681B680122191C56
:101B300091430A1C7B681A60BD4602B080BDC04656
:101B400080B582B000AF78600A1CBB1C1A80BB1C39
:101B50001B88DB05DB0D9AB27B681A85BD4602B097
:101B600080BDC04680B582B000AF78607B689B8C3A
:101B70009BB2DB05DB0D9BB2181CBD4602B080BDDD
:101B800080B588B000AFF860B960FB1D1A70002303
:101B9000BB6100237B6100233B610023FB61FB6889
:101BA000FB61BB689BB21B0A9BB2BB61BA68FF2397
:101BB00013407B617B690122111C99400B1C3B6126
:101BC000BB69022B03D1FB690433FB6105E0BB69F0
:101BD000032B02D1FB690833FB61FB1D1B78002B33
:101BE00006D0FB69FA6911683A690A431A6006E08F
:101BF000FB69FA6912683969C9430A401A60BD462F
:101C000008B080BD80B584B000AF786039603B1CFF
:101C10000F3300221A707B68DB693A68134004D0E6
:101C20003B1C0F3301221A7003E03B1C0F330022D0
:101C30001A703B1C0F331B78181CBD4604B080BDC6
:101C400080B586B000AF786039600023FB60002368
:101C50007B610023BB603B1C133300221A703B687E
:101C60009BB21B0A9BB2BB603A68FF2313407B61A7
:101C70007B690122111C99400B1C7B61BB68012B05
:101C800005D17B681A687B6913407B610DE0BB68F6
:101C9000022B05D17B685A687B6913407B6104E0A5
:101CA0007B689A687B6913407B613B681B0CFB6017
:101CB000FB680122111C99400B1CFB607B68DA69F0
:101CC000FB681340FB607B69002B07D0FB68002B8F
:101CD00004D03B1C133301221A7003E03B1C133366
:101CE00000221A703B1C13331B78181CBD4606B02B
:101CF00080BDC04680B582B000AF021CFB1D1A70CB
:101D0000FB1D1B78042B0ED89A00094BD3181B68B7
:101D10009F46982308E0722306E0402304E0562300
:101D200002E07E2300E09823181CBD4602B080BD6F
:101D3000D82D000880B588B000AF80239B03181C05
:101D40000121FEF711FD0020FEF7D6FB00F032FC6A
:101D50003B1D00225A603B1D00229A603B1D102251
:101D60001A613B1D0022DA603B1D00225A613B1DB7
:101D7000094A1A603B1D00229A61084A3B1D101C4B
:101D8000191CFEF7E3FF054B181C0121FFF746F86D
:101D9000BD4608B080BDC046090332100054004063
:101DA00080B584B002AF0A1CFB1D011C1970BB1D5D
:101DB0001A70C046344A80231B02101C191CFFF7FE
:101DC00095F8031C012BF5D0304B1B78181CFFF73E
:101DD00091FF031C01339AB22B4980235B048020BE
:101DE00080010090081C111C0122FFF735F8C04645
:101DF000254B181C0221FFF779F8031C002BF7D0A4
:101E0000214AFB1D1B78101C191CFFF755F8C04612
:101E10001D4B181C8021FFF769F8031C002BF7D01D
:101E20001A4B1B78181CFFF765FF031C01339AB28D
:101E3000154980239B0400200090081C111C0122DE
:101E4000FFF70AF8C046104B181C0221FFF74EF8A6
:101E5000031C002BF7D00C4ABB1D1B78101C191C4F
:101E6000FFF72AF8C046084B181C2021FFF73EF860
:101E7000031C002BF7D0044B181C2021FFF75CF843
:101E8000BD4602B080BDC046005400404E00002058
:101E900090B587B002AF021CFB1D1A703B1C0F33BC
:101EA00000221A70C046354A80231B02101C191CE0
:101EB000FFF71CF8031C012BF5D0314B1B78181CC5
:101EC000FFF718FF031C2D4A802189010091101C87
:101ED000191C01220023FEF7BFFFC046274B181C28
:101EE0000221FFF703F8031C002BF7D0234AFB1D48
:101EF0001B78101C191CFEF7DFFFC0461F4B181C77
:101F00004021FEF7F3FF031C002BF7D01C4B1B787E
:101F1000181CFFF7EFFE031C1A1C184980239B04B2
:101F2000902080010090081C111C0122FEF794FFF4
:101F3000C046124B181C0421FEF7D8FF031C002BCF
:101F4000F7D03C1C0F340D4B181CFEF7C3FF031CCD
:101F50002370C046094B181C2021FEF7C7FF031C45
:101F6000002BF7D0054B181C2021FEF7E5FF3B1C8A
:101F70000F331B78181CBD4605B090BD00540040BF
:101F80004E00002080B582B000AFFB1D1870BB1D55
:101F900019707B1D1A70FB1D1B78181CFFF778FF4A
:101FA000031CDBB2BA1D1278D243D2B21340DAB2AC
:101FB0007B1D1B781343DBB2DBB2FA1D1278101CB9
:101FC000191CFFF7EDFEBD4602B080BD80B582B0A2
:101FD00000AF021CFB1D1A70034BFA1D12781A7019
:101FE000BD4602B080BDC0464E00002080B500AFA7
:101FF000044B1B781A1C044B9200D358181CBD4686
:1020000080BDC0464E0000203000002080B500AFEB
:10201000064B1A698023134005D0044B044A5A60CA
:10202000024B044A5A60BD4680BDC04600200240B3
:1020300023016745AB89EFCD80B500AF034B034A61
:10204000126980210A431A61BD4680BD002002400A
:1020500090B585B000AF78603B1C0F3304221A7036
:102060003C1C0F34B0231B03181C00F0BFF8031CEA
:1020700023703B1C0F331B78042B1DD1124B124ACB
:10208000126902210A431A610F4B7A685A610E4B9A
:102090000D4A126940210A431A613C1C0F34B023D7
:1020A0001B03181C00F0A2F8031C2370064B064A01
:1020B000126902218A431A613B1C0F331B78181CDA
:1020C000BD4605B090BDC0460020024090B585B029
:1020D00000AF786039603B1C0F3304221A70002374
:1020E000BB603C1C0F34B0231B03181C00F07EF8AF
:1020F000031C23703B1C0F331B78042B35D11E4B64
:102100001D4A126901210A431A617B683A6892B23A
:102110001A803C1C0F34B0231B03181C00F066F817
:10212000031C23703B1C0F331B78042B17D17B68D7
:102130000233BB60BB683A68120C92B21A803C1C36
:102140000F34B0231B03181C00F050F8031C23703D
:10215000094B094A126901218A431A6105E0064BBD
:10216000054A126901218A431A613B1C0F331B780F
:10217000181CBD4605B090BD0020024080B582B05D
:1021800000AF7860024B7A68DA60BD4602B080BD6D
:102190000020024080B582B000AFFB1D04221A70FF
:1021A000114BDA680123134003D0FB1D01221A7082
:1021B00014E00D4BDA681023134003D0FB1D0222FC
:1021C0001A700BE0084BDA680423134003D0FB1DA0
:1021D00003221A7002E0FB1D04221A70FB1D1B78FB
:1021E000181CBD4602B080BD0020024090B585B0ED
:1021F00000AF78603B1C0F3304221A703C1C0F3474
:10220000FFF7C8FF031C237008E03C1C0F34FFF7E6
:10221000C1FF031C23707B68013B7B603B1C0F33B9
:102220001B78012B02D17B68002BEED17B68002B41
:1022300003D13B1C0F3305221A703B1C0F331B7854
:10224000181CBD4605B090BD80B584B000AF786065
:102250000023FB60314BFB607B689B79002B4DD0EA
:102260002E4B2E4A11687A681268D2430A401A60CF
:102270002A4B2A4A51687A681268D2430A405A6047
:102280007B681B79FA68D318FB60FB68FA681168F1
:102290007A6812680A431A60204B204A91687A686B
:1022A0001268D2430A409A601C4B1C4AD1687A6873
:1022B0001268D2430A40DA607B685B79102B0ED13A
:1022C000164B164A91687A6812680A439A60134B53
:1022D000124AD1687A6812680A43DA601BE00F4B31
:1022E000FB607B685B79FA68D318FB60FB68FA686F
:1022F00011687A6812680A431A600CE07B681B79DF
:10230000FA68D318FB60FB68FA6811687A6812688B
:10231000D2430A401A60BD4604B080BD00040140AB
:1023200080B584B000AF78603B1C0F3300221A7078
:102330000A4B5B697A68134004D03B1C0F330122BF
:102340001A7003E03B1C0F3300221A703B1C0F3342
:102350001B78181CBD4604B080BDC0460004014077
:1023600080B582B000AF7860024B7A685A61BD4692
:1023700002B080BD00040140B0B584B000AF0A1CBB
:10238000FB1D011C1970BB1D1A700023FB60BB1DD7
:102390001A78032313409B000F22111C99400B1C39
:1023A000FB60184BBA1D12789208D2B21549B81DBD
:1023B00000788008C0B2023080004158F868C043FD
:1023C000014002329200D1500E4BBA1D1278920891
:1023D000D2B20C49B81D00788008C0B2023080002B
:1023E0004058F91D0C78B91D0D780321294089004A
:1023F000251C8D40291C014302329200D150BD465C
:1024000004B0B0BD0000014080B584B000AF78607A
:102410000A1CFB1C1A700023FB6005E0FB680133FB
:10242000FB607B6801337B607B681B78FA1C127849
:102430009A42F3D1FB68181CBD4604B080BDC0466B
:1024400080B584B000AF786039601B4BBB60BB685F
:102450000433BB60BB6800221A703B1C0F333A6820
:102460001A7013E0BB68013BBB607A680F2313400E
:10247000124AD25CBB681A707B681B117B603B1CE4
:102480000F333A1C0F321278013A1A703B1C0F338B
:102490001B78002BE6D1BB68013BBB60BB68782290
:1024A0001A70BB68013BBB60BB6830221A70BB6806
:1024B000181CBD4604B080BD7C000020EC2D000837
:1024C00080B584B000AF78600023FB600CE0FB684F
:1024D000DA00FB685B00D2187B681B78D318303BAE
:1024E000FB607B6801337B607B681B78002BEED13F
:1024F000FB68181CBD4604B080BDC04680B586B0E0
:1025000000AF786001237B610023BB607B68181CEF
:102510000021FFF779FF031C013BFB601DE0FB6816
:102520007A68D3181B78303B3B613B69092B08DD87
:102530003B69302B01DD272300E007233A69D31ADA
:102540003B613B697A695343BA68D318BB607B69C6
:102550001B017B61FB68013BFB60FB68002BDEDA43
:10256000BB68181CBD4606B080BDC04680B586B0AD
:1025700000AFF8607A603B1C0B330A1C1A70002312
:102580007B6109E0FB685A1CFA603A1C0B32127836
:102590001A707B6901337B617A697B689A42F1D357
:1025A000BD4606B080BDC04680B582B000AFBD4616
:1025B00002B080BD80B582B000AF9023DB05181C4F
:1025C00009210422FEF7E8FF9023DB05181C0A21ED
:1025D0000422FEF7E1FF3B1CC022D2001A603B1C24
:1025E00000225A713B1C02221A713B1C0122DA7133
:1025F0003B1C01229A719023DA053B1C101C191C0C
:10260000FEF7EEFEBD4602B080BDC04680B582B08A
:1026100000AF124B181C06210022FEF7BDFF0F4B26
:10262000181C07210022FEF7B7FF3B1CC0221A60CE
:102630003B1C03225A713B1C02221A713B1C0022D4
:102640009A713B1C0122DA71044A3B1C101C191CB4
:10265000FEF7C6FEBD4602B080BDC046000400487D
:1026600080B582B000AF3B1C03221A603B1C0022E5
:102670001A713B1C00229A713B1C0122DA713B1C2F
:1026800001225A71254A3B1C101C191CFEF7A8FE9A
:102690003B1CCF221A603B1C00221A713B1C0022FB
:1026A0009A713B1C0122DA713B1C01225A71902362
:1026B000DA053B1C101C191CFEF792FE3B1C38224D
:1026C0001A603B1C01221A713B1C00229A713B1CB0
:1026D0000122DA713B1C01225A71104A3B1C101C6A
:1026E000191CFEF77DFE3B1C802212021A603B1C67
:1026F00001221A713B1C00229A713B1C0122DA71E3
:102700003B1C01225A719023DA053B1C101C191C3A
:10271000FEF766FEBD4602B080BDC046000400481C
:1027200080B582B000AF3B1C802252001A603B1C77
:1027300001221A713B1C00229A713B1C0122DA71A2
:102740003B1C01225A719023DA053B1C101C191CFA
:10275000FEF746FEBD4602B080BDC04680B584B0DF
:1027600000AF78600023FB607B689B78002B3CD037
:10277000244B7A6812789208D2B2C0329200D358B1
:10278000FB607B681B781A1C03231340DB00FF22CD
:10279000101C9840031CDA43FB681340FB607B6805
:1027A0005B789A01FF231A407B681B78191C03236E
:1027B0000B40DB00111C99400B1CFA681343FB60B3
:1027C000104B7A6812789208D2B2C0329200F9683F
:1027D000D1500C4B7A681278111C1F220A4001213B
:1027E000081C9040021C1A6009E0064A7B681B78AE
:1027F000191C1F230B40012199408023D150BD4655
:1028000004B080BD00E100E0002934D001230022A3
:1028100010B488422CD301242407A14204D281425F
:1028200002D209011B01F8E7E400A14204D281426F
:1028300002D249005B00F8E7884201D3401A1A43EC
:102840004C08A04202D3001B5C0822438C08A04223
:1028500002D3001B9C082243CC08A04202D3001BD9
:10286000DC082243002803D01B0901D00909E3E753
:10287000101C10BC7047002801D00020C04307B4D2
:10288000024802A14018029003BDC0461900000092
:102890000029F0D003B5FFF7B9FF0EBC4243891AF7
:1028A0001847C0467047C0468A0200083E03000829
:1028B0005A030008900400088A0300085265616406
:1028C00020000000206F6E2064657669636520003B
:1028D00053796E7461783A2072203C7265673E00CD
:1028E0005772697474656E200000000020746F20B8
:1028F00072656769737465722000000052656769CC
:102900007374657220616374697665206973200051
:1029100053796E7461783A2069203C7265673E0095
:10292000446576696365200020697320616374697A
:102930007665000053796E7461783A2073203C7399
:102940006C6176653E0D0A09303A204144393938C8
:1029500034410D0A09313A20414456373531310DA1
:102960000A09323A20414456373238300D0A0933C9
:102970003A204144563733393100000053796E74A0
:1029800061783A207A203C31322062697420616497
:1029900064726573733E0000206174206164647228
:1029A000657373200000000053796E7461783A20DB
:1029B00078203C33326269742076616C75653E0024
:1029C000416374697665206164647265737320691C
:1029D00073200000206F6E20666C61736820000019
:1029E00053796E7461783A2063203C3132626974A5
:1029F00020616464726573733E0000004465666123
:102A0000756C7420636F6E66696775726174696F47
:102A10006E206973206E6F772075736564210D0ACF
:102A200000000000437573746F6D20636F6E6669FC
:102A30006775726174696F6E206973206E6F77209D
:102A400075736564210D0A00436F6D6D616E64736B
:102A50003A0D0A000920723A20726561642072659D
:102A60006769737465720D0A000000000920773AE7
:102A70002077726974652072656769737465720D79
:102A80000A0000000920693A2073657420616374AC
:102A9000697665207265676973746572202877723C
:102AA00069746520746F2074686973207265672982
:102AB0000D0A00000920733A207365742061637465
:102AC000697665206465766963650D0A000000001B
:102AD00009207A3A20726561642066726F6D206603
:102AE0006C6173680D0A00000920783A20777269DA
:102AF000746520746F20666C6173680D0A000000B5
:102B00000920633A207365742061637469766520D7
:102B100061646472657373202877726974652074C8
:102B20006F207468697320616464726573732C200C
:102B30006D756C7469706C65206F662034290D0AA0
:102B4000000000000920643A2073657420746F202F
:102B500064656661756C7420636F6E666967757213
:102B60006174696F6E0D0A000920663A20736574FE
:102B700020746F20637573746F6D20636F6E666968
:102B80006775726174696F6E202866726F6D20665A
:102B90006C617368290D0A007E0A0008DA0A0008D1
:102BA000600B0008F20A0008600B0008600B0008C8
:102BB000DA080008600B0008600B0008600B0008D2
:102BC000600B0008600B0008600B0008600B000839
:102BD000600B0008C807000844090008600B0008E3
:102BE000600B0008600B000848080008FC0900089A
:102BF000600B000892090008466C617368206661EA
:102C0000696C6564210D0A00457261736520666C0C
:102C1000617368206661696C6564210D0A000000BB
:102C20004952512052454349564544204C494E454E
:102C30002035210D0A00000049525120737461743F
:102C400075733A20000000000D0A00004361626CB9
:102C50006520696E7365727465642C20696E697491
:102C600069616C697A696E672E2E2E0D0A0000006C
:102C70004361626C652072656D6F7665640D0A0054
:102C800052656164696E6720454449443A0D0A0003
:102C90004952512052454349564544204C494E45DE
:102CA0002038210D0A000000495251205245434965
:102CB000564544204C494E452034210D0A00000061
:102CC00042616420526563656976657220424B53A8
:102CD000560000005269204D69736D61746368008D
:102CE000506A204D69736D617463680049324320F6
:102CF0004572726F722028757375616C6C792061F2
:102D0000206E6F2D61636B290000000054696D65B2
:102D100064204F75742057616974696E6720666F0F
:102D20007220446F776E73747265616D20526570A6
:102D3000656174657220444F4E4500004D617820F6
:102D400043617363616465206F66205265706561DD
:102D5000746572732045786365656465640000007E
:102D60005348412D31204861736820436865636B87
:102D7000206F66204B5356204C697374204661695E
:102D80006C656400546F6F204D616E7920446576E8
:102D90006963657320436F6E6E6563746564207448
:102DA0006F205265706561746572205472656500AC
:102DB00041443939383441004144563735313100C6
:102DC00041445637323830004144563733393100A8
:102DD0004544494400000000121D0008161D00086B
:102DE0001A1D00081E1D0008221D00083031323354
:102DF00034353637383941424344454600000000F7
:102E00000000000001020304010203040607080990
:102E1000C02C0008D42C0008E02C0008EC2C000882
:102E20000C2D00083C2D0008602D0008842D0008A2
:102E3000B02D0008B82D0008C02D0008C82D0008CE
:042E4000D02D000889
:0400000508000000EF
:00000001FF
